:1000000002000375814312013CE582600302006F28
:10001000780079007A007B007C007D00EC4D601C4C
:1000200088828983E493A3A882A9838A828B83F040
:10003000A3AA82AB831CBCFFE31D80E07582007520
:1000400083007C007D00EC4D600AE4F0A31CBCFF43
:10005000F51D80F27582007583007C007D00EC4DFB
:10006000600AE4F0A31CBCFFF51D80F212013B12F4
:1000700002BB80FE1B5B324A00414443207465731F
:10008000742070726F6772616D0A46696C653A2000
:1000900025730A436F6D70696C65643A2025732C73
:1000A0002025730A0A00433A5C4D756E74616B69D2
:1000B0006D5F46696C65735C5363686F6F6C5C530E
:1000C00063686F6F6C5F576F726B5C456E67696ECC
:1000D000656572696E675F42616368656C6F7273B4
:1000E0005C323032335C454C45435F3239315C4CD5
:1000F00061625F345C454C45433239315F4C61622B
:10010000345C6164632E63004665622032382032BD
:100110003032340031373A30353A303900564050B9
:10012000302E313D25372E3566562C205640503224
:100130002E313D25372E3566560D002275A70075E8
:1001400097DE7597AD75FF8075EF0675A71075C1C1
:100150002075A70075A90075A900E5A930E7FB7512
:10016000A90375A903E5A930E7FB43A41075E101D4
:1001700075E20075E340759810758DE6858D8B539B
:10018000890F438920D28ED2997582002275A700EB
:10019000C2EF75B28075BC2075B91E75E80075DFB9
:1001A0003F75B300D2EF22AA82438E407592B87594
:1001B00093FF8592948593957591047B00C3EB9A88
:1001C000500BE59130E7FB53917F0B80F075910068
:1001D00022AA82AB837C007D00C3EC9AED9B502B5E
:1001E0007E00BE0400501D7582FAC002C003C00428
:1001F000C005C0061201A7D006D005D004D003D098
:10020000020E80DE0CBC00D10D80CE22AA828512A7
:10021000F005F07401800225E0D5F0FBFB75A72006
:10022000BA0002800ABA0102800FBA021E8014EBE3
:10023000F4FA52F1EB42D48012EBF4FA52F2EB42B0
:10024000D58008EBF4FA52F3EB42CC75A700228577
:1002500082BBC2EDD2EC30EDFD85BD8285BE83222E
:1002600012024F12037BAA82AB83ACF0FDC002C026
:1002700003C004C005906C8B75F053744012038763
:10028000AA82AB83ACF0FDE58124FCF581E4C0E0FB
:1002900074FCC0E0747FC0E07446C0E08A828B8347
:1002A0008CF0ED120460AA82AB83ACF0FDE58124F2
:1002B000FCF5818A828B838CF0ED229001F412018F
:1002C000D17474C0E07400C0E07480C0E012043FD8
:1002D0001581158115817414C0E07401C0E074802B
:1002E000C0E07408C0E07401C0E07480C0E074A68F
:1002F000C0E07400C0E07480C0E07479C0E07400B5
:10030000C0E07480C0E012043FE58124F4F58175FB
:10031000120175820012020C75120175820212021E
:100320000C12018D758200120260AA82AB83ACF0C0
:10033000FD8A098B0A8C0B8D0C75820E120260AA45
:1003400082AB83ACF0FD8A0D8B0E8C0F8D10C0023A
:10035000C003C004C005C009C00AC00BC00C741D96
:10036000C0E07401C0E07480C0E012043FE5812465
:10037000F5F5819001F41201D180A9E4AC83AB8240
:10038000FAF9748E020588120614BC00030205B344
:10039000EF60FA30D502B2D1E583B4FF030205C99C
:1003A000E582B4FF030205C9258340072482400B80
:1003B0000205B324831450030205C9F582EA8DF0C7
:1003C000A4A8F0EA8EF0A428F8E435F0F9EB8DF05B
:1003D000A428E935F0F9E433CA8FF0A429F9EA3505
:1003E000F0FAEBF88EF0A429F9EA35F0FAE433FBE1
:1003F000EC8DF0A429F9EA35F0FAE43BFBE88FF044
:10040000A42AFAEB35F0FBE433CCFD8EF0A42AFAF3
:10041000EB35F0FBE43CFCED8FF0A42BFBEC35F06E
:10042000FC20E7031205E1020592020FCE8582301F
:1004300085833185F03285113390042A020A21C068
:1004400008858108E50824FBF533E50824FBF886D8
:100450003008863108863290042A120A21D00822F8
:1004600012061430D502B2D1BF0009BC0003020548
:10047000D60205C9BC00030205B3E583B4FF0BE552
:1004800082B4FF030205D60205B3E582B4FF03027E
:1004900005C9C395835007247F400B0205B3248010
:1004A0001450030205C9C0E0E4CCCBCAF98D128E0A
:1004B000138F14EF54F0C4F5157583068515F0EB12
:1004C00084F582E9C4F9EAC4FAEBC4FBEC540FC426
:1004D0007803D6FC18EBD6FB18EAD6FA8582F0ED45
:1004E000A4A8F0FD8582F0EEA428FEE435F0F8859E
:1004F00082F0EFA428FFE435F0F8E99DF9EA9EFACE
:10050000EB9FFBEC98FCAD12AE13AF1430E7101567
:1005100082E92DF9EA3EFAEB3FFBE43CFC80EDC0BA
:1005200082D58398C3E933F9EA33FAEB33FBEC3332
:10053000FCC3E99DEA9EEB9FEC9400B3E413F9D071
:1005400002D0E0C44AFAD003D0E0C44BFBD004D0C0
:10055000E0F5F0540FC44CFCD082158230F40FD378
:10056000EC13FCEB13FBEA13FAE913F90582E9300B
:10057000E70A74012AFAE43BFBE43CFC0205AAFC0E
:10058000ABF0AA83A982749EC2D1F5821205E10262
:100590000592B98003EA13B34010EA2401FAE43B60
:1005A000FBE43CFC50047C800582BC000EBB000BCD
:1005B000BA0008E4F5F0F583F58222A2D1E58213B2
:1005C0008CF092F78B838A8222E4F583F58275F0B2
:1005D00080F4A2D11322E4F583F58275F0C0747F14
:1005E000227804EC7011E58224F8500AF582E4C9FF
:1005F000CACBFCD8EF22EC7820058220E713D58205
:100600000122C3E933F9EA33FAEB33FBEC33FCD8CC
:10061000EA158222AA82AB83A2F73392D16002D27A
:10062000F7F582ACF0E58124F9F8E6FD08E6FE086E
:1006300086F008E6A2F73392D56002D2F7F583AFD1
:10064000F022AA827453C0E07406C0E0C022C02326
:100650008A82220529E4B52902052A22AA82743059
:100660002AFA24C6500A74072AFA300003430220EB
:100670008A82020642E582FAC4540FF582C0021251
:10068000065CD002740F5AF58202065CAA24AB25E0
:10069000AC26AD27AE28752F20EE2EFEED2354019B
:1006A000FF4206EA2AFAEB33FBEC33FCED33FDC3E1
:1006B000EE952B4008EEC3952BFE430201D52FD9B2
:1006C0008A248B258C268D278E28227840E624D0FC
:1006D00075F00AA4FA7841E624D02AFA783F860316
:1006E000BB2D04C3E49AFA752B01C3E464808AF03D
:1006F00063F08095F05029752F038A0374F6252F37
:10070000401C052BE52F142434F8E52F2434F987F9
:1007100004A604772E1BEBFA6004052F80DE8B0203
:10072000EA30E70D783586037836A6037835762EDD
:100730000AE52D600AE52D04FB252BF52B800530FD
:100740000B02052B78348603E4BB2D0104FB7006F5
:10075000200603300702052B30040302081230057F
:1007600057EB600C75822DC002120642D002801C2D
:1007700030060C75822BC002120642D002800D306A
:10078000070A758220C002120642D002783586041C
:10079000BC2E0C758230C002120642D002152CAC61
:1007A0002C152CC3E52B9C4003020856758230C0E3
:1007B00002120642D00280E7AC2C152CC3E52B9C1C
:1007C000500C758220C002120642D00280EA7834B2
:1007D0008604BC2D0C75822DC002120642D0028008
:1007E0001C30060C75822BC002120642D002800D0E
:1007F00030070A758220C002120642D00278358680
:1008000004BC2E52758230C002120642D002152C52
:100810008044EB600E75822DC002120642D0021594
:100820002C802030060E75822BC002120642D002A8
:10083000152C800F30070C758220C002120642D0A2
:1008400002152C78358603BB2E0C758230C002123F
:100850000642D002152C752F01C20DE52F2434F865
:100860008603BB4503020913BB2E348A03C3E46429
:10087000808BF063F08095F0500F758230C00312CA
:100880000642D0031B8B0280E48B02D20DE52D7053
:1008900038200B0302091375822E12064280743031
:1008A0000D278A03EB30E71FC3E46480852DF063D6
:1008B000F08095F0500C758230C003120642D003D0
:1008C000152D0B8B0280DD8B02300D0EC3E464808E
:1008D000852DF063F08095F05021E52F2434F886C3
:1008E000038B82C002120642D002300D0EE52F2487
:1008F00034F88603BB2E028002152D152CC3E46448
:1009000080852DF063F08095F04003200D05052FC4
:1009100002085BC3E46480852DF063F08095F0509D
:100920000A758230120642152D80E830040FAA2C79
:10093000152CEA600875822012064280F122E52D0E
:100940007003300B0D7407252DFAE52CC39AF52C96
:100950008006E52C24FAF52C752F0078348602BA2F
:100960002B0F20060C78347620200705752F010503
:100970002C200419AA2CC3E464808AF063F08095CB
:10098000F0500A758220120642152C80E7C20DE550
:100990002F2434F88602BA00028069BA451F30005D
:1009A000027665C3E46480852DF063F08095F05095
:1009B0000A758230120642152D80E8D20DC3E52F4C
:1009C0009402E433FA7014EA700EC3E46480852D57
:1009D000F063F08095F04003300D16E52F2434F8D5
:1009E00086028A82120642E52F24FD5012152D80C0
:1009F0000E7402B52F09300B0675822E12064205C1
:100A00002F02098F300419AA2CC3E464808AF06392
:100A1000F08095F0500A758220120642152C80E76E
:100A200022858222858323E4F529F52AAA30AB3179
:100A3000AC328A828B838CF0120FE3FD74012AF5AD
:100A400030E43BF5318C32EDFA7003020FC7BA2562
:100A5000028003020FBFC204C205C206C207C20859
:100A6000C209C20AC20BC201C202C203752B0075C1
:100A70002C00752DFFAB30AC31AD328B828C838D69
:100A8000F0120FE3FAA3AB82AC838B308C318D3242
:100A9000BA25078A8212064280928A06BE3000403A
:100AA0002E8A06EE24C6402774FFB52D13E52C755B
:100AB000F00AA4FEEA24D02EF52C70BFD20580BB2C
:100AC000E52D75F00AA4FEEA24D02EF52D80ACBAEF
:100AD0002E0A74FFB52DA4752D00809F8A06BE6175
:100AE00000400E8A06EE248540075302DFD20080C4
:100AF00002C200BA20028075BA2303020B7CBA2A14
:100B000003020B81BA2B02805FBA2D028055BA42D4
:100B100002805FBA4303020BC6BA4403020D01BA56
:100B20004503020D1BBA4603020D17BA4703020D17
:100B30001FBA4903020D01BA4C02803BBA4E0302B0
:100B40000D23BA4F03020D08BA5003020C9ABA5390
:100B500003020BEABA5503020D0DBA5803020D1237
:100B6000020D4DD204020A7BD206020A7BD2070292
:100B70000A7BD209020A7BD20A020A7BD20B020A42
:100B80007B74FFB52D2030090BE53314F8883386CC
:100B90002C020A7BE53324FEF88833860608860794
:100BA000188E2C020A7B30090BE53314F888338643
:100BB0002D020A7BE53324FEF88833860608860773
:100BC000188E2D020A7B30090AE53314F888338623
:100BD00002800FE53324FEF8883386030886041864
:100BE0008B028A82120642020D52E53324FDF888F8
:100BF00033860308860408860518188B248C258DF7
:100C0000268B828C838DF0121137AB82AC838B2EB6
:100C100074FFB52D03852E2D20041DC3E52E952CC4
:100C20005016E52CC3952EF52CAB2C152CEB60083B
:100C300075822012064280F18524828525838526CF
:100C4000F0120FE3FBFA6029AB2D152DC3E464808D
:100C50008BF063F08095F050188A82120642AB2424
:100C6000AC25AD260BBB00010C8B248C258D26807A
:100C7000C7200403020D52C3E52E952C4003020D3C
:100C800052E52CC3952EF52CAB2C152CEB700302E2
:100C90000D5275822012064280EEE53324FDF8885D
:100CA00033860308860408860518188B248C258D46
:100CB00026E526FB30E7047A438013EB546060049A
:100CC0007A50800AEB30E6047A4980027A588A82A8
:100CD000C00212064275823A12064275823012062E
:100CE00042758278120642D002BA4902800BBA508D
:100CF000028006852582120675852482120675807B
:100D000051D208752B0A804A752B088045752B0A2D
:100D10008040752B10803BD2018037D2028033D2C5
:100D200003802FE53324FDF8883386030886040802
:100D3000860518188B248C258D268B828C838DF04C
:100D4000E52912111EA3E52A12111E80058A8212BE
:100D50000642200106200203300370E53324FCF82C
:100D6000883386030886040886050886061818183E
:100D70008B248C258D268E27E524E525E526E52781
:100D80008B828C838DF0EE120FFF74FFB52D0375EF
:100D90002D06300327747F5527FB8B28E528EB2B86
:100DA000FB8B28E52630E70674014528F528E52861
:100DB00024684006749925284002D20230020612A7
:100DC000093E020A2C1206CB020A2CE52B70030204
:100DD0000A2C7B3930092BE53314F88833E6FC33D1
:100DE00095E0FDFEFF8C248D258E268F2720085E42
:100DF000AC247D007E007F008C248D258E268F27DD
:100E0000804C300A1FE53324FCF8883386040886BA
:100E1000050886060886071818188C248D258E2646
:100E20008F27802AE53324FEF88833860408860558
:100E300018ED3395E0FEFF8C248D258E268F27201C
:100E4000080CAC24AD257E007F008E268F27300B4A
:100E500043E52445254526452760397408B52B0C04
:100E6000758230C003120642D00380287410B52B5F
:100E700023758230C003120642D00330000C758205
:100E800078C003120642D003800A758258C003124C
:100E90000642D003300825AC24AD25AE26E527FF59
:100EA00030E717C3E49CFCE49DFDE49EFEE49FFF55
:100EB0008C248D258E268F278002C208752E00D2A5
:100EC0000C8B00752800C00012068CD000200C0D81
:100ED000E528C4FCE6FD4CF61888038002A6280528
:100EE0002EB20CE52445254526452770D68803E516
:100EF0002C7003752C0120051A200417E52E04FC24
:100F0000C3952C500E758220C003120642D00315E3
:100F10002C80E930080E75822DC003120642D003E2
:100F2000152C8024E52E602030060E75822BC00320
:100F3000120642D003152C800F30070C758220C09A
:100F400003120642D003152C20041EAC2C152CC312
:100F5000E52E9C50273005047C3080027C208C825A
:100F6000C003120642D00380E2C3E52E952C50093F
:100F7000E52CC3952EF52C8003752C008B00AB2E31
:100F8000152EEB6022B20C200C0A08E6C4540FFBAD
:100F90008B2880078603740F5BF528852882C000A4
:100FA00012065CD00080D7200403020A2CAB2C155B
:100FB0002CEB7003020A2C75822012064280EE8A06
:100FC00082120642020A2C852982852A8322AA825D
:100FD000BA0A0810990280FB75990D10990280FBDE
:100FE0008A992220F71430F6148883A88220F50706
:100FF000E6A88375830022E280F7E49322E022C012
:10100000E0F84582458345F07009F5F0FBFCFDFEF4
:101010000210CDE823A2F792E0F8A982AA83D2F7C2
:10102000ABF07C007E07C3749798404074FF2EFE9F
:10103000740A89F0A4F985F082740A8AF0A4FA850A
:10104000F083740A8BF0A4FB740529F9EA3582FA5F
:10105000EB3583FB740035F0FCC3EC13FCEB13FBA6
:10106000EA13FAE913F908EC70EF80BAE8C3947F49
:10107000F88B838EF0E4FBFCFDFEFF08C3E933F937
:10108000EA33FAE58333F583EB3BD4FBEC3CD4FC49
:10109000ED3DD4FDEE3ED4FEEF3FD4FF602D05F0D4
:1010A00074052BD4FBE43CD4FCE43DD4FDE43ED4F5
:1010B000FEE43FD4FF758204C3EF13FFEE13FEED91
:1010C00013FDEC13FCEB13FBD582EDD8AF7834D0D5
:1010D000E020E704762B8002762D087906E7C454D9
:1010E0000F4430F608B90603762E08E7540F443053
:1010F000F60819B902E7764508E5F020E704762BF3
:101100008004762DF4040875F00A844430F608E56E
:10111000F04430F608E4F690003475F0402220F7F1
:101120001030F6118883A88220F507F6A88375830E
:101130000022F280F7F022AA82AB83ACF07D007E21
:10114000008A828B838CF0120FE3FFA3AA82AB8309
:10115000EF60070DBD00EA0E80E78D828E832200CE
:00000001FF
