:10000000020003758176120146E582600302006FEB
:10001000780079007A007B007C007D00EC4D601C4C
:1000200088828983E493A3A882A9838A828B83F040
:10003000A3AA82AB831CBCFFE31D80E07582007520
:1000400083007C007D00EC4D600AE4F0A31CBCFF43
:10005000F51D80F27582007583007C007D00EC4DFB
:10006000600AE4F0A31CBCFFF51D80F212014512EA
:1000700008C580FE1B5B324A005479706520496ECA
:1000800074656E64656420446973706C617920697D
:100090006E204C696E65203220283136204368611D
:1000A00072204D6178293A20000A00543A20252E0A
:1000B0003366207300463A20252E3366206B487A3B
:1000C00000433A20252E3366206E4600523A202502
:1000D0002E3366206B4F686D730020202020202077
:1000E00020202020202020202020004552524F5246
:1000F000203A204C4F572043004552524F52203A4D
:1001000020484947482043004552524F52203A2048
:10011000484947482052000D52286B4F686D73299B
:10012000203D2025660D0A000D46286B487A2920BF
:100130003D2025660D0A000D43286E4629203D20EE
:1001400025660D0A002275A7007597DE7597AD43E9
:10015000FF8075EF0675A71075C12075A70075A9FA
:100160000075A900E5A930E7FB75A90375A903E5AA
:10017000A930E7FB43A41075E10175E20075E34087
:10018000759810858E8E758DE6858D8B53890F43FE
:100190008920D28ED2997582002275A700C2EF7590
:1001A000B28075BC2075B91E75E80075DF3F75B368
:1001B00000D2EF22AA828511F005F0740180022599
:1001C000E0D5F0FBFB75A720BA0002800ABA010255
:1001D000800FBA021E8014EBF4FA52F1EB42D48085
:1001E00012EBF4FA52F2EB42D58008EBF4FA52F338
:1001F000EB42CC75A700228582BBC2EDD2EC30ED7C
:10020000FD85BD8285BE83221201F7120CD9AA8218
:10021000AB83ACF0FDC002C003C004C005906C8B82
:1002200075F0537440120D45AA82AB83ACF0FDE526
:100230008124FCF581E4C0E074FCC0E0747FC0E080
:100240007446C0E08A828B838CF0ED120F50AA8234
:10025000AB83ACF0FDE58124FCF5818A828B838C35
:10026000F0ED22AA82438E407592B87593FF859275
:10027000948593957591047B00C3EB9A500BE5919F
:1002800030E7FB53917F0B80F075910022AA82AB7F
:10029000837C007D00C3EC9AED9B502B7E00BE0456
:1002A00000501D7582FAC002C003C004C005C0061C
:1002B000120263D006D005D004D003D0020E80DE37
:1002C0000CBC00D10D80CE225389F0438901C28C31
:1002D000229001F412028D7474C0E07400C0E074C6
:1002E00080C0E0120E5615811581158122D2A075AD
:1002F0008228120263C2A022AA828AE0A2E7929018
:10030000A2E69291A2E59292A2E49293C002120216
:10031000ED758228120263D0028AE0A2E39290A2D5
:10032000E29291A2E19292A2E092930202EDAA825D
:10033000D2978A821202F890000202028DAA82C22B
:10034000978A821202F890000502028DC2A09000E6
:100350001412028D75823312033D75823312033DF0
:1003600075823212033D75822812033D75820C128C
:10037000033D75820112033D90001402028DAA8292
:10038000AB83ACF07402B533047DC080027D808DF8
:1003900082C002C003C00412033D90000512028D0A
:1003A000D004D003D0027D007E00ED2AFFEE3BF8A2
:1003B0008C018F82888389F0120CBDFF60208F82B0
:1003C000C002C003C004C005C00612032ED006D070
:1003D00005D004D003D0020DBD00CF0E80CC30007C
:1003E000248D028E03C3EA9410EB64809480501530
:1003F000758220C002C00312032ED003D0020ABAB5
:1004000000E30B80E02285823685833785F038E46F
:10041000F539F53AE53424FFFFE53534FFF8790086
:100420007A00C3E99FEA648088F063F08095F05019
:1004300059C002C007C000C001120E77AB82D001C4
:10044000D000D007D002BB0A028003BB0D1DE539E6
:100450002536FCE53A3537FDAE388C828D838EF03B
:10046000E4120E8A853982853A8322E92536FCEA30
:100470003537FDAE388C828D838EF0EB120E8A09F3
:10048000B900010A89398A3A8098E5392536FAE5B2
:100490003A3537FBAC388A828B838CF0E4120E8AB3
:1004A00085348285358322AA82AB83ACF0C002C03A
:1004B00003C0047479C0E07400C0E07480C0E0122E
:1004C0000E56158115811581D004D003D002853BCD
:1004D00034853C358A828B838CF0C002C003C00413
:1004E00012040674A9C0E07400C0E07480C0E01279
:1004F0000E56158115811581D004D003D0027533B5
:1005000001D2008A828B838CF002037EAA82AB83A5
:10051000ACF0FDC002C003C004C00574ABC0E07401
:1005200000C0E07480C0E07423C0E07400C0E074D8
:1005300040C0E0120EF2E58124F6F581753302D257
:100540000090002375F04002037EAA82AB83ACF0DA
:10055000FDC002C003C004C00574B5C0E07400C093
:10056000E07480C0E07423C0E07400C0E07440C058
:10057000E0120EF2E58124F6F581753301D2009088
:10058000002375F04002037EAA82AB83ACF0FDC06D
:1005900002C003C004C00574C1C0E07400C0E074B0
:1005A00080C0E07423C0E07400C0E07440C0E0127A
:1005B0000EF2E58124F6F581753302D20090002316
:1005C00075F04002037EAA82AB83ACF0FDC002C08E
:1005D00003C004C00574CCC0E07400C0E07480C0E7
:1005E000E07423C0E07400C0E07440C0E0120EF27A
:1005F000E58124F6F581753301D20090002375F072
:100600004012037E753302D2009000DA75F080024A
:10061000037E120F43AA82AB83ACF0FDC002C0037D
:10062000C004C00590000075F0807447120D45AA03
:1006300082AB83ACF0FDE58124FCF581853D8285AC
:100640003E83C002C003C004C005120F43AE82AF98
:1006500083A8F0F9C006C007C000C0019000007573
:10066000F0807443120D45AE82AF83A8F0F9E581A6
:1006700024FCF581D005D004D003D002C006C00709
:10068000C000C0018A828B838CF0ED120DE8AA8233
:10069000AB83ACF0FDE58124FCF581853F8285408C
:1006A00083C002C003C004C005120F43AE82AF83F3
:1006B000A8F0F9D005D004D003D002C006C007C00E
:1006C00000C0018A828B838CF0ED120DE8AA82AB08
:1006D00083ACF0FDE58124FCF581C002C003C004B9
:1006E000C00590F4FC75F0327434120D45AA82AB4B
:1006F00083ACF0FDE58124FCF5818A828B838CF04C
:10070000ED22AA82AB83ACF0FDC002C003C004C0DE
:100710000590000075F080743F120F50AA82AB83E1
:10072000ACF0FDE58124FCF5818A828B838CF0EDB1
:1007300022AA82AB83ACF0FDC002C003C004C00596
:100740009051EC75F0B8743F120D45AA82AB83ACA2
:10075000F0FDE58124FCF581E4C0E074A0C0E07404
:100760008CC0E07445C0E08A828B838CF0ED120F60
:1007700050AA82AB83ACF0FDE58124FCF581C00278
:10078000C003C004C005906B2875F06E744E120D46
:1007900045AA82AB83ACF0FDE58124FCF5818A8219
:1007A0008B838CF0ED22AA82AB83ACF0FDC002C03B
:1007B00003C004C005C002C003C004C00590999ADC
:1007C00075F0997440120F38AE82AF83A8F0F9E546
:1007D0008124FCF581E4C0E0C0E074C8C0E074424C
:1007E000C0E08E828F8388F0E9120F50AE82AF8313
:1007F000A8F0F9E58124FCF581C006C007C000C05F
:100800000190000075F07A7444120D45AE82AF83FA
:10081000A8F0F9E58124FCF581E4C0E07424C0E08F
:100820007474C0E07449C0E08E828F8388F0E9124E
:100830000F50AE82AF83A8F0F9E58124FCF581D09A
:1008400005D004D003D002C006C007C000C0018A92
:10085000828B838CF0ED120F50AA82AB83ACF0FD3B
:10086000E58124FCF581E4C0E0C0E0747AC0E07466
:1008700044C0E08A828B838CF0ED120F50AA82ABC9
:1008800083ACF0FDE58124FCF5818A828B838CF0BA
:10089000ED22AA82AB8320B110900032C002C003C7
:1008A00012028DD003D00280058A828B832220B170
:1008B0000F30B1FDEA4B700490000122900000223D
:1008C0008A828B8322E4F541F542F553F5541202F6
:1008D000C81202D112034C7511017582001201B4C5
:1008E0007511017582021201B412019A8541828547
:1008F00042831208928582418583427582001202EA
:100900000875820E12020885824385834485F0456E
:10091000F5461207A685824785834885F049F54A42
:10092000758A00758C00C28D75220020B3FD30B32E
:10093000FDD28C30B309108D0280F8052280F4209E
:10094000B309108D0280F8052280F4C28CA82279A8
:1009500000858C3D753E00858A3F75400088828900
:100960008312061285824B85834C85F04DF54E121D
:100970000702AE82AF83ACF0FD854B82854C838548
:100980004DF0E54EC004C005C006C0071207318512
:10099000824F85835085F051F552D007D006D0059F
:1009A000D0047401B54108E4B5420474018001E447
:1009B000F8605FC004C005C006C007C000748BC0EB
:1009C000E0746CC0E07453C0E07440C0E0854382C2
:1009D0008544838545F0E546120D15A982E58124FD
:1009E000FCF581D000D007D006D005D004E9602204
:1009F0008547828548838549F0E54AC004C005C023
:100A000006C007C0001205C6D000D007D006D0052A
:100A1000D004E54145426003020B45C004C005C057
:100A200006C007C000E4C0E0C0E07448C0E0744302
:100A3000C0E08E828F838CF0ED120CE5A982E581F7
:100A400024FCF581D000D007D006D005D004E960A1
:100A50003FC004C005C006C007C000C001E4C0E03C
:100A60007450C0E074C3C0E07448C0E08E828F83CD
:100A70008CF0ED120D15AA82E58124FCF581D001E0
:100A8000D000D007D006D005D004EA6003020B45A1
:100A9000E4F553F554C004C005C006C007C000C04B
:100AA00001E4C0E07450C0E074C3C0E07448C0E02A
:100AB0008E828F838CF0ED120D15AA82E58124FCC5
:100AC000F581D001D000D007D006D005D004EA705F
:100AD00024753301D2009000EB75F080C004C0058E
:100AE000C006C007C00012037ED000D007D006D0D9
:100AF00005D0048025E97022753301D2009000F9F9
:100B000075F080C004C005C006C007C00012037E97
:100B1000D000D007D006D005D004753302D20090A3
:100B200000DA75F080C004C005C006C007C000121E
:100B3000037E9001F412028DD000D007D006D005BC
:100B4000D004020BC9E86079C004C005C006C00724
:100B5000C000748BC0E0746CC0E07453C0E074409B
:100B6000C0E08543828544838545F0E546120D1536
:100B7000AA82E58124FCF581D000D007D006D005FB
:100B8000D004EA703CF553F554753301D20090015E
:100B90000875F080C004C005C006C007C00012037D
:100BA0007E753302D2009000DA75F08012037E90D9
:100BB00001F412028DD000D007D006D005D00480F9
:100BC000080553E4B553020554C3E5539403E554B3
:100BD0006480948050030208ECE860339000A6C063
:100BE00004C005C006C00712028DC047C048C049F6
:100BF000C04A7417C0E07401C0E07480C0E0120EF7
:100C000056E58124F9F581D007D006D005D00490AF
:100C100000A6C004C005C006C00712028DD007D0D0
:100C200006D005D004E4C0E0C0E0747AC0E07444AB
:100C3000C0E08E828F838CF0ED120F50AA82AB83BE
:100C4000ACF0FDE58124FCF581C002C003C004C006
:100C500005C002C003C004C0057428C0E07401C010
:100C6000E07480C0E0120E56E58124F9F581900011
:100C7000A612028DC04FC050C051C0527437C0E0A0
:100C80007401C0E07480C0E0120E56E58124F9F5CD
:100C900081D005D004D003D002E541454260030273
:100CA00008EC8A828B838CF0ED12054A854F828591
:100CB00050838551F0E5521205880208EC20F714A4
:100CC00030F6148883A88220F507E6A88375830090
:100CD00022E280F7E49322E022E4AC83AB82FAF9CB
:100CE000748E021078FFA88118181210A0D2D13388
:100CF000E6400730E70B7582012220E70675820087
:100D000022C2D1121082E97003F5822230D101B3E0
:100D1000E433F58222FFA88118181210A0D2D13333
:100D2000E6400730E70B7582002220E70675820156
:100D300022C2D1121082E97003F5822220D101B3C0
:100D4000E433F5822212114DBC00030210ECEF6077
:100D5000FA30D502B2D1E583B4FF03021102E58275
:100D6000B4FF03021102258340072482400B0210C6
:100D7000EC2483145003021102F582EA8DF0A4A83A
:100D8000F0EA8EF0A428F8E435F0F9EB8DF0A42811
:100D9000E935F0F9E433CA8FF0A429F9EA35F0FA1D
:100DA000EBF88EF0A429F9EA35F0FAE433FBEC8D88
:100DB000F0A429F9EA35F0FAE43BFBE88FF0A42A25
:100DC000FAEB35F0FBE433CCFD8EF0A42AFAEB35D8
:100DD000F0FBE43CFCED8FF0A42BFBEC35F0FC20A9
:100DE000E70312111A0210CB12114D7900E583B5F9
:100DF0008202800D500312117BE583C3958212118C
:100E000095E5D0C465D020E117EA2DFAEB3EFBEC66
:100E10003FFC50097401121195EC4480FC0210CB88
:100E2000C3EA9DFAEB9EFBEC9FFC500FC3E499F9DB
:100E3000E49AFAE49BFBE49CFCB2D112111A021072
:100E4000CB021B6485826385836485F065851066AB
:100E5000900E410215B7C008858108E50824FBF50E
:100E600066E50824FBF88663088664088665900EAC
:100E7000411215B7D0082210980280FBAA998A82E5
:100E8000C002121B64D0028A822220F71030F611B1
:100E90008883A88220F507F6A88375830022F28054
:100EA000F7F022AA82AB09AC0AAD0B8B828C838D42
:100EB000F0EA120E8A0509E4B50902050A228582C4
:100EC0000985830A85F00B850C63850D64850E65A5
:100ED000850F66900EA31215B7AA82AB83AC09AD3D
:100EE0000AAE0B8C828D838EF0E4120E8A8A828B7E
:100EF0008322C008858108E50824F8F566E5082402
:100F0000FBF8860908860A08860BE50824F8F886A7
:100F100063088664088665900EA31215B7AA82AB93
:100F200083AC09AD0AAE0B8C828D838EF0E4120E79
:100F30008A8A828B83D00822A8811818C6B2E7C695
:100F4000020DE8AC83AB827A007900748E021B82BA
:100F500012114D30D502B2D1BF0009BC00030211FD
:100F60000F021102BC00030210ECE583B4FF0BE595
:100F700082B4FF0302110F0210ECE582B4FF0302FA
:100F80001102C395835007247F400B0210EC24808C
:100F9000145003021102C0E0E4CCCBCAF98D118ECB
:100FA000128F13EF54F0C4F5147583068514F0EB1B
:100FB00084F582E9C4F9EAC4FAEBC4FBEC540FC42B
:100FC0007803D6FC18EBD6FB18EAD6FA8582F0ED4A
:100FD000A4A8F0FD8582F0EEA428FEE435F0F885A3
:100FE00082F0EFA428FFE435F0F8E99DF9EA9EFAD3
:100FF000EB9FFBEC98FCAD11AE12AF1330E7101570
:1010000082E92DF9EA3EFAEB3FFBE43CFC80EDC0BF
:1010100082D58398C3E933F9EA33FAEB33FBEC3337
:10102000FCC3E99DEA9EEB9FEC9400B3E413F9D076
:1010300002D0E0C44AFAD003D0E0C44BFBD004D0C5
:10104000E0F5F0540FC44CFCD082158230F40FD37D
:10105000EC13FCEB13FBEA13FAE913F90582E93010
:10106000E70A74012AFAE43BFBE43CFC0210E3FCCF
:10107000ABF0AA83A982749EC2D1F58212111A0222
:1010800010CB7901AA82E68F82B5821318E6B5F0FB
:101090000E18E6B5830918E68A82B5820279002225
:1010A000B4800FE5F0700AE5837006E58270027F78
:1010B00000EFB6801518B6001018B6000B18B60071
:1010C0000608080876002208080822B98003EA13F7
:1010D000B34010EA2401FAE43BFBE43CFC50047CFE
:1010E000800582BC000EBB000BBA0008E4F5F0F5E9
:1010F00083F58222A2D1E582138CF092F78B838A4A
:101100008222E4F583F58275F080F4A2D11322E403
:10111000F583F58275F0C0747F227804EC7011E5D8
:101120008224F8500AF582E4C9CACBFCD8EF22EC3D
:101130007820058220E713D5820122C3E933F9EA3A
:1011400033FAEB33FBEC33FCD8EA158222AA82ABEC
:1011500083A2F73392D16002D2F7F582ACF0E58139
:1011600024F9F8E6FD08E6FE0886F008E6A2F73363
:1011700092D56002D2F7F583AFF022E582C583F500
:1011800082A2D133A2D592D11392D5ECCFFCEBCE73
:10119000FBEACDFA226040F82582500274FFF58206
:1011A000E824F8501ECCCBCAF9E4CC24F85014CB78
:1011B000CAF9E4CB24F8500BCAF9E4CA24F8500366
:1011C00079002224086010F8C3EC13FCEB13FBEA4F
:1011D00013FAE913F9D8F122AA8274E9C0E0741174
:1011E000C0E0C055C0568A8222055CE4B55C0205A9
:1011F0005D22AA8274302AFA24C6500A74072AFA99
:101200003001034302208A820211D8E582FAC454D5
:101210000FF582C0021211F2D002740F5AF5820249
:1012200011F2AA57AB58AC59AD5AAE5B756220EEBD
:101230002EFEED235401FF4206EA2AFAEB33FBECC3
:1012400033FCED33FDC3EE955E4008EEC3955EFEC4
:10125000430201D562D98A578B588C598D5A8E5BBF
:10126000227873E624D075F00AA4FA7874E624D0C4
:101270002AFA78728603BB2D04C3E49AFA755E01DC
:10128000C3E464808AF063F08095F05029756203AE
:101290008A0374F62562401C055EE562142467F833
:1012A000E5622467F98704A604772E1BEBFA600435
:1012B000056280DE8B02EA30E70D78688603786984
:1012C000A6037868762E0AE560600AE56004FB25CF
:1012D0005EF55E8005300C02055E78678603E4BB30
:1012E0002D0104FB7006200703300802055E30055F
:1012F000030213A8300657EB600C75822DC0021252
:1013000011D8D002801C30070C75822BC00212113C
:10131000D8D002800D30080A758220C0021211D880
:10132000D00278688604BC2E0C758230C00212117F
:10133000D8D002155FAC5F155FC3E55E9C40030229
:1013400013EC758230C0021211D8D00280E7AC5F76
:10135000155FC3E55E9C500C758220C0021211D847
:10136000D00280EA78678604BC2D0C75822DC002FD
:101370001211D8D002801C30070C75822BC00212CB
:1013800011D8D002800D30080A758220C0021211D7
:10139000D8D00278688604BC2E52758230C0021202
:1013A00011D8D002155F8044EB600E75822DC0020B
:1013B0001211D8D002155F802030070E75822BC025
:1013C000021211D8D002155F800F30080C758220F0
:1013D000C0021211D8D002155F78688603BB2E0CAC
:1013E000758230C0021211D8D002155F756201C239
:1013F0000EE5622467F88603BB45030214A9BB2EE1
:10140000348A03C3E464808BF063F08095F0500F5E
:10141000758230C0031211D8D0031B8B0280E48B7D
:1014200002D20EE5607038200C030214A975822EDA
:101430001211D88074300E278A03EB30E71FC3E403
:1014400064808560F063F08095F0500C758230C048
:10145000031211D8D00315600B8B0280DD8B023094
:101460000E0EC3E464808560F063F08095F0502137
:10147000E5622467F886038B82C0021211D8D0027D
:10148000300E0EE5622467F88603BB2E028002153B
:1014900060155FC3E464808560F063F08095F04080
:1014A00003200E0505620213F1C3E464808560F039
:1014B00063F08095F0500A7582301211D815608063
:1014C000E830050FAA5F155FEA60087582201211E7
:1014D000D880F122E5607003300C0D74072560FAA6
:1014E000E55FC39AF55F8006E55F24FAF55F7562F4
:1014F0000078678602BA2B0F20070C7867762020C9
:101500000805756201055F200519AA5FC3E46480C0
:101510008AF063F08095F0500A7582201211D81578
:101520005F80E7C20EE5622467F88602BA00028097
:1015300069BA451F3001027665C3E464808560F0B6
:1015400063F08095F0500A7582301211D8156080D2
:10155000E8D20EC3E5629402E433FA7014EA700E26
:10156000C3E464808560F063F08095F04003300E42
:1015700016E5622467F886028A821211D8E5622491
:10158000FD50121560800E7402B56209300C0675AC
:10159000822E1211D80562021525300519AA5FC3E3
:1015A000E464808AF063F08095F0500A758220121E
:1015B00011D8155F80E722858255858356E4F55C56
:1015C000F55DAA63AB64AC658A828B838CF0120CE8
:1015D000BDFD74012AF563E43BF5648C65EDFA709A
:1015E00003021B5DBA25028003021B55C205C20619
:1015F000C207C208C209C20AC20BC20CC202C2039D
:10160000C204755E00755F007560FFAB63AC64ADCE
:10161000658B828C838DF0120CBDFAA3AB82AC83F8
:101620008B638C648D65BA25078A821211D88092EB
:101630008A06BE3000402E8A06EE24C6402774FF7C
:10164000B56013E55F75F00AA4FEEA24D02EF55FBD
:1016500070BFD20680BBE56075F00AA4FEEA24D014
:101660002EF56080ACBA2E0A74FFB560A4756000D8
:10167000809F8A06BE6100400E8A06EE24854007E0
:101680005302DFD2018002C201BA20028075BA2360
:1016900003021712BA2A03021717BA2B02805FBA85
:1016A0002D028055BA4202805FBA430302175CBA2A
:1016B0004403021897BA45030218B1BA4603021848
:1016C000ADBA47030218B5BA4903021897BA4C02DB
:1016D000803BBA4E030218B9BA4F0302189EBA50A3
:1016E00003021830BA5303021780BA55030218A335
:1016F000BA58030218A80218E3D205021611D2073D
:10170000021611D208021611D20A021611D20B02C9
:101710001611D20C02161174FFB56020300A0BE5C9
:101720006614F88866865F021611E56624FEF8885E
:10173000668606088607188E5F021611300A0BE5CA
:101740006614F888668660021611E56624FEF8883D
:10175000668606088607188E60021611300A0AE5AA
:101760006614F888668602800FE56624FEF88866AF
:101770008603088604188B028A821211D80218E8A0
:10178000E56624FDF8886686030886040886051841
:10179000188B578C588D598B828C838DF0121CC5F9
:1017A000AB82AC838B6174FFB560038561602005FB
:1017B0001DC3E561955F5016E55FC39561F55FABAD
:1017C0005F155FEB60087582201211D880F1855794
:1017D000828558838559F0120CBDFBFA6029AB60F5
:1017E0001560C3E464808BF063F08095F050188A34
:1017F000821211D8AB57AC58AD590BBB00010C8B02
:10180000578C588D5980C72005030218E8C3E5613D
:10181000955F40030218E8E55FC39561F55FAB5F34
:10182000155FEB70030218E87582201211D880EE64
:10183000E56624FDF8886686030886040886051890
:10184000188B578C588D59E559FB30E7047A438043
:1018500013EB546060047A50800AEB30E6047A4956
:1018600080027A588A82C0021211D875823A121107
:10187000D87582301211D87582781211D8D002BA78
:101880004902800BBA5002800685588212120B85DD
:10189000578212120B8051D209755E0A804A755E1A
:1018A000088045755E0A8040755E10803BD20280DC
:1018B00037D2038033D204802FE56624FDF8886692
:1018C000860308860408860518188B578C588D598E
:1018D0008B828C838DF0E55C120E8AA3E55D120E7F
:1018E0008A80058A821211D8200206200303300460
:1018F00070E56624FCF88866860308860408860579
:101900000886061818188B578C588D598E5AE5572B
:10191000E558E559E55A8B828C838DF0EE121BA6B3
:1019200074FFB56003756006300427747F555AFB59
:101930008B5BE55BEB2BFB8B5BE55930E7067401BA
:10194000455BF55BE55B246840067499255B4002C6
:10195000D2033003061214D40215C212126102150A
:10196000C2E55E70030215C27B6C300A2BE566147B
:10197000F88866E6FC3395E0FDFEFF8C578D588EA7
:10198000598F5A20095EAC577D007E007F008C572E
:101990008D588E598F5A804C300B1FE56624FCF809
:1019A00088668604088605088606088607181818BB
:1019B0008C578D588E598F5A802AE56624FEF888F8
:1019C00066860408860518ED3395E0FEFF8C578D7A
:1019D000588E598F5A20090CAC57AD587E007F00A5
:1019E0008E598F5A300C43E55745584559455A6032
:1019F000397408B55E0C758230C0031211D8D0035B
:101A000080287410B55E23758230C0031211D8D0BF
:101A10000330010C758278C0031211D8D003800AFC
:101A2000758258C0031211D8D003300925AC57ADC8
:101A300058AE59E55AFF30E717C3E49CFCE49DFD1E
:101A4000E49EFEE49FFF8C578D588E598F5A80027A
:101A5000C209756100D20D8B00755B00C0001212C7
:101A600022D000200D0DE55BC4FCE6FD4CF6188885
:101A7000038002A65B0561B20DE5574558455945FF
:101A80005A70D68803E55F7003755F0120061A203F
:101A90000517E56104FCC3955F500E758220C003F5
:101AA0001211D8D003155F80E930090E75822DC060
:101AB000031211D8D003155F8024E5616020300740
:101AC0000E75822BC0031211D8D003155F800F3022
:101AD000080C758220C0031211D8D003155F2005B1
:101AE0001EAC5F155FC3E5619C50273006047C3057
:101AF00080027C208C82C0031211D8D00380E2C304
:101B0000E561955F5009E55FC39561F55F800375F9
:101B10005F008B00AB611561EB6022B20D200D0AF6
:101B200008E6C4540FFB8B5B80078603740F5BF5DC
:101B30005B855B82C0001211F2D00080D7200503C4
:101B40000215C2AB5F155FEB70030215C2758220F0
:101B50001211D880EE8A821211D80215C2855C82D9
:101B6000855D8322AA82BA0A0810990280FB7599C2
:101B70000D10990280FB8A9922FCABF0AA83A982FE
:101B8000749EF582C2D1EC30E716D2D1E9F424017B
:101B9000F9EAF43400FAEBF43400FBECF43400FC22
:101BA00012111A0210CBC0E0F84582458345F0704F
:101BB00009F5F0FBFCFDFE021C74E823A2F792E09D
:101BC000F8A982AA83D2F7ABF07C007E07C3749792
:101BD00098404074FF2EFE740A89F0A4F985F082C3
:101BE000740A8AF0A4FA85F083740A8BF0A4FB745B
:101BF0000529F9EA3582FAEB3583FB740035F0FCF0
:101C0000C3EC13FCEB13FBEA13FAE913F908EC70CD
:101C1000EF80BAE8C3947FF88B838EF0E4FBFCFD81
:101C2000FEFF08C3E933F9EA33FAE58333F583EBC2
:101C30003BD4FBEC3CD4FCED3DD4FDEE3ED4FEEFBA
:101C40003FD4FF602D05F074052BD4FBE43CD4FC9D
:101C5000E43DD4FDE43ED4FEE43FD4FF758204C3EA
:101C6000EF13FFEE13FEED13FDEC13FCEB13FBD5AE
:101C700082EDD8AF7867D0E020E704762B8002763B
:101C80002D087906E7C4540F4430F608B9060376E8
:101C90002E08E7540F4430F60819B902E7764508D4
:101CA000E5F020E704762B8004762DF4040875F027
:101CB0000A844430F608E5F04430F608E4F6900073
:101CC0006775F04022AA82AB83ACF07D007E008A6B
:101CD000828B838CF0120CBDFFA3AA82AB83EF60D2
:101CE000070DBD00EA0E80E78D828E832200000082
:00000001FF
