:10000000020003758174120134E582600302006FFF
:10001000780079007A007B007C007D00EC4D601C4C
:1000200088828983E493A3A882A9838A828B83F040
:10003000A3AA82AB831CBCFFE31D80E07582007520
:1000400083007C007D00EC4D600AE4F0A31CBCFF43
:10005000F51D80F27582007583007C007D00EC4DFB
:10006000600AE4F0A31CBCFFF51D80F212013312FC
:1000700008ED80FE1B5B324A005479706520496EA2
:1000800074656E64656420446973706C617920697D
:100090006E204C696E65203220283136204368611D
:1000A00072204D6178293A20000A00543A20252E0A
:1000B0003366207300463A20252E3366206B487A3B
:1000C00000433A20252E3366206E4600523A202502
:1000D0002E3366206B4F686D730020202020202077
:1000E00020202020202020202020000D4D6F64653E
:1000F0003A2025640D0A004552524F52203A2048BA
:100100004947482052000D52286B4F686D29203D09
:100110002025660D0A000D46286B487A29203D20CF
:1001200025660D0A000D43286E4629203D202566D0
:100130000D0A002275A7007597DE7597AD43FF8005
:1001400075EF0675A71075C12075A70075A9007514
:10015000A900E5A930E7FB75A90375A903E5A93056
:10016000E7FB43A41075E10175E20075E340759863
:1001700010858E8E758DE6858D8B53890F43892072
:10018000D28ED2997582002275A700C2EF75B28017
:1001900075BC2075B91E75E80075DF3F75B300D2D8
:1001A000EF22AA828511F005F07401800225E0D5C6
:1001B000F0FBFB75A720BA0002800ABA0102800F8B
:1001C000BA021E8014EBF4FA52F1EB42D48012EB27
:1001D000F4FA52F2EB42D58008EBF4FA52F3EB4218
:1001E000CC75A700228582BBC2EDD2EC30EDFD8537
:1001F000BD8285BE83221201E5120CC0AA82AB83A8
:10020000ACF0FDC002C003C004C005906C8B75F05B
:10021000537440120D2CAA82AB83ACF0FDE581240F
:10022000FCF581E4C0E074FCC0E0747FC0E074467B
:10023000C0E08A828B838CF0ED120F37AA82AB83E9
:10024000ACF0FDE58124FCF5818A828B838CF0ED96
:1002500022AA82438E407592B87593FF8592948549
:1002600093957591047B00C3EB9A500BE59130E7B1
:10027000FB53917F0B80F075910022AA82AB837CA7
:10028000007D00C3EC9AED9B502B7E00BE04005015
:100290001D7582FAC002C003C004C005C006120268
:1002A00051D006D005D004D003D0020E80DE0CBCA5
:1002B00000D10D80CE225389F0438901C28C229057
:1002C00001F412027B7474C0E07400C0E07480C05A
:1002D000E0120E3D15811581158122D2A07582286C
:1002E000120251C2A022AA828AE0A2E79290A2E65C
:1002F0009291A2E59292A2E49293C0021202DB755F
:100300008228120251D0028AE0A2E39290A2E292E5
:1003100091A2E19292A2E092930202DBAA82D2978A
:100320008A821202E690000202027BAA82C2978AA7
:10033000821202E690000502027BC2A09000141215
:10034000027B75823312032B75823312032B758265
:100350003212032B75822812032B75820C12032B89
:1003600075820112032B90001402027BAA82AB83D8
:10037000ACF07402B533047DC080027D808D82C0F4
:1003800002C003C00412032B90000512027BD004AC
:10039000D003D0027D007E00ED2AFFEE3BF88C01F9
:1003A0008F82888389F0120CA4FF60208F82C002A4
:1003B000C003C004C005C00612031CD006D005D07F
:1003C00004D003D0020DBD00CF0E80CC3000248DB0
:1003D000028E03C3EA9410EB6480948050157582FA
:1003E00020C002C00312031CD003D0020ABA00E3EB
:1003F0000B80E02285823685833785F038E4F53935
:10040000F53AE53424FFFFE53534FFF879007A004A
:10041000C3E99FEA648088F063F08095F05059C08A
:1004200002C007C000C001120E5EAB82D001D00036
:10043000D007D002BB0A028003BB0D1DE53925366B
:10044000FCE53A3537FDAE388C828D838EF0E412B0
:100450000E71853982853A8322E92536FCEA3537E3
:10046000FDAE388C828D838EF0EB120E7109B900CF
:10047000010A89398A3A8098E5392536FAE53A350C
:1004800037FBAC388A828B838CF0E4120E71853492
:100490008285358322AA82AB83ACF0C002C003C040
:1004A000047479C0E07400C0E07480C0E0120E3DB6
:1004B000158115811581D004D003D002853B348588
:1004C0003C358A828B838CF0C002C003C0041203C7
:1004D000F474A9C0E07400C0E07480C0E0120E3D66
:1004E000158115811581D004D003D002753301D256
:1004F000008A828B838CF002036CAA82AB83ACF0FF
:10050000FDC002C003C004C00574ABC0E07400C0ED
:10051000E07480C0E07423C0E07400C0E07440C0A8
:10052000E0120ED9E58124F6F581753302D20090F0
:10053000002375F04002036CAA82AB83ACF0FDC0CF
:1005400002C003C004C00574B5C0E07400C0E0740C
:1005500080C0E07423C0E07400C0E07440C0E012CA
:100560000ED9E58124F6F581753301D20090002380
:1005700075F04002036CAA82AB83ACF0FDC002C0F0
:1005800003C004C00574C1C0E07400C0E07480C042
:10059000E07423C0E07400C0E07440C0E0120ED9E3
:1005A000E58124F6F581753302D20090002375F0C1
:1005B0004002036CAA82AB83ACF0FDC002C003C052
:1005C00004C00574CCC0E07400C0E07480C0E07466
:1005D00023C0E07400C0E07440C0E0120ED9E58191
:1005E00024F6F581753301D20090002375F0401296
:1005F000036C753302D2009000DA75F08002036C50
:10060000120F2AAA82AB83ACF0FDC002C003C00463
:10061000C00590000075F0807447120D2CAA82ABC3
:1006200083ACF0FDE58124FCF581853D82853E8328
:10063000C002C003C004C005120F2AAE82AF83A857
:10064000F0F9C006C007C000C00190000075F0803E
:100650007443120D2CAE82AF83A8F0F9E58124FC1F
:10066000F581D005D004D003D002C006C007C00079
:10067000C0018A828B838CF0ED120DCFAA82AB83EE
:10068000ACF0FDE58124FCF581853F82854083C087
:1006900002C003C004C005120F2AAE82AF83A8F0C7
:1006A000F9D005D004D003D002C006C007C000C0F6
:1006B000018A828B838CF0ED120DCFAA82AB83ACC2
:1006C000F0FDE58124FCF581C002C003C004C00533
:1006D00090F4FC75F0327434120D2CAA82AB83AC0A
:1006E000F0FDE58124FCF5818A828B838CF0ED227C
:1006F000AA82AB83ACF0FDC002C003C004C0059069
:10070000000075F080743F120F37AA82AB83ACF003
:10071000FDE58124FCF5818A828B838CF0ED22AA91
:1007200082AB83ACF0FDC002C003C004C005905191
:10073000EC75F0B8743F120D2CAA82AB83ACF0FDBF
:10074000E58124FCF581E4C0E074A0C0E0748CC0B5
:10075000E07445C0E08A828B838CF0ED120F37AADB
:1007600082AB83ACF0FDE58124FCF581C002C003BF
:10077000C004C005906B2875F06E744E120D2CAA43
:1007800082AB83ACF0FDE58124FCF5818A828B830A
:100790008CF0ED22AA82AB83ACF0FDC002C003C096
:1007A00004C005C002C003C004C00590999A75F04A
:1007B000997440120F1FAE82AF83A8F0F9E581242F
:1007C000FCF5817471C0E0743DC0E074C5C0E07494
:1007D00042C0E08E828F8388F0E9120F37AE82AF7D
:1007E00083A8F0F9E58124FCF581C006C007C000AC
:1007F000C00190000075F07A7444120D2CAE82AFE7
:1008000083A8F0F9E58124FCF581E4C0E07424C0FC
:10081000E07474C0E07449C0E08E828F8388F0E990
:10082000120F37AE82AF83A8F0F9E58124FCF58181
:10083000D005D004D003D002C006C007C000C0015C
:100840008A828B838CF0ED120F37AA82AB83ACF0D7
:10085000FDE58124FCF581E4C0E0C0E0747AC0E0ED
:100860007444C0E08A828B838CF0ED120F37AA8229
:10087000AB83ACF0FDE58124FCF5818A828B838C0F
:10088000F0ED22AA82AB838A048B0520B118900078
:1008900032C002C003C004C00512027BD005D004E0
:1008A000D003D00280058A828B832220B13A30B1F6
:1008B000FDEC4DB40100E433FC7D00C002C003C078
:1008C00004C00574EBC0E07400C0E07480C0E012A6
:1008D0000E3DE58124FBF581D003D002EA4B700484
:1008E00090000122900000228A828B8322E4FAFB8E
:1008F000F551F552C002C0031202B61202BF120334
:100900003A7511017582001201A2751101758202FA
:100910001201A2120188D003D0028A828B831208AE
:1009200083AA82AB83758200C002C0031201F675F0
:10093000820E1201F685824185834285F043F5449B
:1009400012079485824585834685F047F548D00394
:10095000D002758A00758C00C28D75220020B3FD0F
:1009600030B3FDD28C30B309108D0280F80522809F
:10097000F420B309108D0280F8052280F4C28CA8FF
:10098000227900858C3D753E00858A3F7540008840
:10099000828983C002C00312060085824985834A8A
:1009A00085F04BF54C1206F0AE82AF83ACF0FD85BE
:1009B0004982854A83854BF0E54CC004C005C006DA
:1009C000C00712071F85824D85834E85F04FF55075
:1009D000D007D006D005D004D003D002E4BA010479
:1009E000BB000104F8606FC002C003C004C005C0B2
:1009F00006C007C000748BC0E0746CC0E07453C0C4
:100A0000E07440C0E08541828542838543F0E5443F
:100A1000120CFCA982E58124FCF581D000D007D01E
:100A200006D005D004D003D002E9602A854582852E
:100A300046838547F0E548C002C003C004C005C036
:100A400006C007C0001205B4D000D007D006D005FC
:100A5000D004D003D002EA4B6003020B13C002C0E3
:100A600003C004C005C006C007C000E4C0E0C0E089
:100A70007448C0E07443C0E08E828F838CF0ED1226
:100A80000CCCA982E58124FCF581D000D007D006EA
:100A9000D005D004D003D002E96040C002C003C03A
:100AA00004C005C006C007C000E4C0E07450C0E048
:100AB00074C3C0E07448C0E08E828F838CF0ED1266
:100AC0000CFCA982E58124FCF581D000D007D0067A
:100AD000D005D004D003D002E97038E4F551F552C6
:100AE000753302D2009000DA75F080C002C003C0F6
:100AF00004C005C006C007C00012036C9001F412C8
:100B0000027BD000D007D006D005D004D003D0029D
:100B1000020BAAE87003020BA2C002C003C004C00B
:100B200005C006C007C000748BC0E0746CC0E074E0
:100B300053C0E07440C0E08541828542838543F024
:100B4000E544120CFCA982E58124FCF581D000D09B
:100B500007D006D005D004D003D002E97044F55187
:100B6000F552753301D2009000F775F080C002C0D5
:100B700003C004C005C006C007C00012036C753373
:100B800002D2009000DA75F08012036C9001F4122A
:100B9000027BD000D007D006D005D004D003D0020D
:100BA00080080551E4B5510205529000C8C002C04A
:100BB00003C004C005C006C007C00012027BD000FD
:100BC000D007D006D005D004D003D002E86035C0ED
:100BD00002C003C004C005C006C007C045C046C06F
:100BE00047C0487406C0E07401C0E07480C0E012E1
:100BF0000E3DE58124F9F581D007D006D005D0045B
:100C0000D003D002C002C003E4C0E0C0E0747AC0E8
:100C1000E07444C0E08E828F838CF0ED120F37AC0D
:100C200082AD83AEF0FFE58124FCF581C004C005F0
:100C3000C006C007C004C005C006C0077416C0E0E7
:100C40007401C0E07480C0E0120E3DE58124F9F526
:100C500081C04DC04EC04FC0507425C0E07401C06B
:100C6000E07480C0E0120E3DE58124F9F581D007E3
:100C7000D006D005D004D003D002EA4B60030209AD
:100C80001A8C828D838EF0EFC002C0031205388566
:100C90004D82854E83854FF0E550120576D003D006
:100CA0000202091A20F71430F6148883A88220F56E
:100CB00007E6A88375830022E280F7E49322E0220E
:100CC000E4AC83AB82FAF9748E02105FFFA881183E
:100CD00018121087D2D133E6400730E70B75820136
:100CE0002220E70675820022C2D1121069E9700342
:100CF000F5822230D101B3E433F58222FFA88118B6
:100D000018121087D2D133E6400730E70B75820006
:100D10002220E70675820122C2D1121069E9700310
:100D2000F5822220D101B3E433F58222121134BCC2
:100D300000030210D3EF60FA30D502B2D1E583B4DC
:100D4000FF030210E9E582B4FF030210E9258340A6
:100D5000072482400B0210D324831450030210E9AD
:100D6000F582EA8DF0A4A8F0EA8EF0A428F8E43524
:100D7000F0F9EB8DF0A428E935F0F9E433CA8FF0EF
:100D8000A429F9EA35F0FAEBF88EF0A429F9EA354E
:100D9000F0FAE433FBEC8DF0A429F9EA35F0FAE43B
:100DA0003BFBE88FF0A42AFAEB35F0FBE433CCFDF3
:100DB0008EF0A42AFAEB35F0FBE43CFCED8FF0A4B6
:100DC0002BFBEC35F0FC20E7031211010210B212EC
:100DD00011347900E583B58202800D50031211624F
:100DE000E583C3958212117CE5D0C465D020E1175C
:100DF000EA2DFAEB3EFBEC3FFC5009740112117C2A
:100E0000EC4480FC0210B2C3EA9DFAEB9EFBEC9F1F
:100E1000FC500FC3E499F9E49AFAE49BFBE49CFCD0
:100E2000B2D11211010210B2021B4B85826185837F
:100E30006285F063851064900E2802159EC00885B7
:100E40008108E50824FBF564E50824FBF8866108C1
:100E50008662088663900E2812159ED0082210988C
:100E60000280FBAA998A82C002121B4BD0028A829E
:100E70002220F71030F6118883A88220F507F6A803
:100E80008375830022F280F7F022AA82AB09AC0AB4
:100E9000AD0B8B828C838DF0EA120E710509E4B5DF
:100EA0000902050A2285820985830A85F00B850CD3
:100EB00061850D62850E63850F64900E8A12159E02
:100EC000AA82AB83AC09AD0AAE0B8C828D838EF007
:100ED000E4120E718A828B8322C008858108E5089E
:100EE00024F8F564E50824FBF8860908860A0886D4
:100EF0000BE50824F8F88661088662088663900E80
:100F00008A12159EAA82AB83AC09AD0AAE0B8C8205
:100F10008D838EF0E4120E718A828B83D00822A812
:100F2000811818C6B2E7C6020DCFAC83AB827A0037
:100F30007900748E021B6912113430D502B2D1BF10
:100F40000009BC00030210F60210E9BC0003021005
:100F5000D3E583B4FF0BE582B4FF030210F6021061
:100F6000D3E582B4FF030210E9C395835007247FC1
:100F7000400B0210D324801450030210E9C0E0E4B7
:100F8000CCCBCAF98D118E128F13EF54F0C4F51427
:100F90007583068514F0EB84F582E9C4F9EAC4FA96
:100FA000EBC4FBEC540FC47803D6FC18EBD6FB184B
:100FB000EAD6FA8582F0EDA4A8F0FD8582F0EEA4D1
:100FC00028FEE435F0F88582F0EFA428FFE435F040
:100FD000F8E99DF9EA9EFAEB9FFBEC98FCAD11AEA7
:100FE00012AF1330E7101582E92DF9EA3EFAEB3F14
:100FF000FBE43CFC80EDC082D58398C3E933F9EA79
:1010000033FAEB33FBEC33FCC3E99DEA9EEB9FEC38
:101010009400B3E413F9D002D0E0C44AFAD003D06C
:10102000E0C44BFBD004D0E0F5F0540FC44CFCD02E
:1010300082158230F40FD3EC13FCEB13FBEA13FAA6
:10104000E913F90582E930E70A74012AFAE43BFB67
:10105000E43CFC0210CAFCABF0AA83A982749EC2D5
:10106000D1F5821211010210B27901AA82E68F82B3
:10107000B5821318E6B5F00E18E6B5830918E68AAE
:1010800082B58202790022B4800FE5F0700AE58310
:101090007006E58270027F00EFB6801518B600106A
:1010A00018B6000B18B600060808087600220808D3
:1010B0000822B98003EA13B34010EA2401FAE43BA2
:1010C000FBE43CFC50047C800582BC000EBB000BA2
:1010D000BA0008E4F5F0F583F58222A2D1E5821387
:1010E0008CF092F78B838A8222E4F583F58275F087
:1010F00080F4A2D11322E4F583F58275F0C0747FE9
:10110000227804EC7011E58224F8500AF582E4C9D3
:10111000CACBFCD8EF22EC7820058220E713D582D9
:101120000122C3E933F9EA33FAEB33FBEC33FCD8A1
:10113000EA158222AA82AB83A2F73392D16002D24F
:10114000F7F582ACF0E58124F9F8E6FD08E6FE0843
:1011500086F008E6A2F73392D56002D2F7F583AFA6
:10116000F022E582C583F582A2D133A2D592D113B4
:1011700092D5ECCFFCEBCEFBEACDFA226040F8250D
:1011800082500274FFF582E824F8501ECCCBCAF9D5
:10119000E4CC24F85014CBCAF9E4CB24F8500BCAA1
:1011A000F9E4CA24F8500379002224086010F8C337
:1011B000EC13FCEB13FBEA13FAE913F9D8F122AABA
:1011C0008274D0C0E07411C0E0C053C0548A82223F
:1011D000055AE4B55A02055B22AA8274302AFA2421
:1011E000C6500A74072AFA3001034302208A820299
:1011F00011BFE582FAC4540FF582C0021211D9D092
:1012000002740F5AF5820211D9AA55AB56AC57ADEC
:1012100058AE59756020EE2EFEED235401FF4206B4
:10122000EA2AFAEB33FBEC33FCED33FDC3EE955CBD
:101230004008EEC3955CFE430201D560D98A558B08
:10124000568C578D588E59227871E624D075F00A45
:10125000A4FA7872E624D02AFA78708603BB2D04AB
:10126000C3E49AFA755C01C3E464808AF063F08099
:1012700095F050297560038A0374F62560401C05BB
:101280005CE560142465F8E5602465F98704A6042C
:10129000772E1BEBFA6004056080DE8B02EA30E7F4
:1012A0000D786686037867A6037866762E0AE55E73
:1012B000600AE55E04FB255CF55C8005300C0205E8
:1012C0005C78658603E4BB2D0104FB7006200703F0
:1012D000300802055C30050302138F300657EB60BF
:1012E0000C75822DC0021211BFD002801C30070C79
:1012F00075822BC0021211BFD002800D30080A7512
:101300008220C0021211BFD00278668604BC2E0C67
:10131000758230C0021211BFD002155DAC5D155D43
:10132000C3E55C9C40030213D3758230C0021211E6
:10133000BFD00280E7AC5D155DC3E55C9C500C75C9
:101340008220C0021211BFD00280EA78658604BCF8
:101350002D0C75822DC0021211BFD002801C3007E7
:101360000C75822BC0021211BFD002800D30080A0A
:10137000758220C0021211BFD00278668604BC2E8E
:1013800052758230C0021211BFD002155D8044EB4D
:10139000600E75822DC0021211BFD002155D802033
:1013A00030070E75822BC0021211BFD002155D806E
:1013B0000F30080C758220C0021211BFD002155DDB
:1013C00078668603BB2E0C758230C0021211BFD026
:1013D00002155D756001C20EE5602465F88603BBE9
:1013E0004503021490BB2E348A03C3E464808BF05F
:1013F00063F08095F0500F758230C0031211BFD09A
:10140000031B8B0280E48B02D20EE55E7038200C49
:101410000302149075822E1211BF8074300E278A39
:1014200003EB30E71FC3E46480855EF063F08095D2
:10143000F0500C758230C0031211BFD003155E0B43
:101440008B0280DD8B02300E0EC3E46480855EF07B
:1014500063F08095F05021E5602465F886038B8267
:10146000C0021211BFD002300E0EE5602465F8866E
:1014700003BB2E028002155E155DC3E46480855EA9
:10148000F063F08095F04003200E0505600213D84C
:10149000C3E46480855EF063F08095F0500A758245
:1014A000301211BF155E80E830050FAA5D155DEAA8
:1014B00060087582201211BF80F122E55E70033052
:1014C0000C0D7407255EFAE55DC39AF55D8006E5AF
:1014D0005D24FAF55D75600078658602BA2B0F20F1
:1014E000070C78657620200805756001055D2005EC
:1014F00019AA5DC3E464808AF063F08095F0500A15
:101500007582201211BF155D80E7C20EE56024656B
:10151000F88602BA00028069BA451F30010276657A
:10152000C3E46480855EF063F08095F0500A7582B4
:10153000301211BF155E80E8D20EC3E5609402E45C
:1015400033FA7014EA700EC3E46480855EF063F0D1
:101550008095F04003300E16E5602465F886028A17
:10156000821211BFE56024FD5012155E800E7402D8
:10157000B56009300C0675822E1211BF0560021588
:101580000C300519AA5DC3E464808AF063F080958D
:10159000F0500A7582201211BF155D80E722858206
:1015A00053858354E4F55AF55BAA61AB62AC638A58
:1015B000828B838CF0120CA4FD74012AF561E43B4C
:1015C000F5628C63EDFA7003021B44BA25028003B6
:1015D000021B3CC205C206C207C208C209C20AC237
:1015E0000BC20CC202C203C204755C00755D0075BB
:1015F0005EFFAB61AC62AD638B828C838DF0120CAD
:10160000A4FAA3AB82AC838B618C628D63BA25078D
:101610008A821211BF80928A06BE3000402E8A064E
:10162000EE24C6402774FFB55E13E55D75F00AA48D
:10163000FEEA24D02EF55D70BFD20680BBE55E7554
:10164000F00AA4FEEA24D02EF55E80ACBA2E0A740D
:10165000FFB55EA4755E00809F8A06BE6100400EE5
:101660008A06EE248540075302DFD2018002C201C0
:10167000BA20028075BA23030216F9BA2A030216A9
:10168000FEBA2B02805FBA2D028055BA4202805FFB
:10169000BA4303021743BA440302187EBA45030251
:1016A0001898BA4603021894BA470302189CBA491C
:1016B0000302187EBA4C02803BBA4E030218A0BA4D
:1016C0004F03021885BA5003021817BA53030217C2
:1016D00067BA550302188ABA580302188F0218CA4B
:1016E000D2050215F8D2070215F8D2080215F8D271
:1016F0000A0215F8D20B0215F8D20C0215F874FF85
:10170000B55E20300A0BE56414F88864865D021526
:10171000F8E56424FEF888648606088607188E5D5E
:101720000215F8300A0BE56414F88864865E021529
:10173000F8E56424FEF888648606088607188E5E3D
:101740000215F8300A0AE56414F888648602800FEE
:10175000E56424FEF888648603088604188B028AF0
:10176000821211BF0218CFE56424FDF88864860355
:1017700008860408860518188B558C568D578B8261
:101780008C838DF0121CACAB82AC838B5F74FFB585
:101790005E03855F5E20051DC3E55F955D5016E520
:1017A0005DC3955FF55DAB5D155DEB6008758220EF
:1017B0001211BF80F18555828556838557F0120C32
:1017C000A4FBFA6029AB5E155EC3E464808BF06312
:1017D000F08095F050188A821211BFAB55AC56AD0F
:1017E000570BBB00010C8B558C568D5780C72005BD
:1017F000030218CFC3E55F955D40030218CFE55D96
:10180000C3955FF55DAB5D155DEB70030218CF7599
:1018100082201211BF80EEE56424FDF888648603FF
:1018200008860408860518188B558C568D57E55781
:10183000FB30E7047A438013EB546060047A5080F5
:101840000AEB30E6047A4980027A588A82C0021292
:1018500011BF75823A1211BF7582301211BF7582A5
:10186000781211BFD002BA4902800BBA500280062A
:101870008556821211F28555821211F28051D209D9
:10188000755C0A804A755C088045755C0A80407505
:101890005C10803BD2028037D2038033D204802F89
:1018A000E56424FDF8886486030886040886051824
:1018B000188B558C568D578B828C838DF0E55A1280
:1018C0000E71A3E55B120E7180058A821211BF2092
:1018D0000206200303300470E56424FCF888648663
:1018E000030886040886050886061818188B558C88
:1018F000568D578E58E555E556E557E5588B828C41
:10190000838DF0EE121B8D74FFB55E03755E06309D
:101910000427747F5558FB8B59E559EB2BFB8B59EA
:10192000E55730E70674014559F559E559246840F3
:1019300006749925594002D2033003061214BB02E3
:1019400015A91212480215A9E55C70030215A97BBE
:101950006A300A2BE56414F88864E6FC3395E0FDF0
:10196000FEFF8C558D568E578F5820095EAC557DE5
:10197000007E007F008C558D568E578F58804C30DE
:101980000B1FE56424FCF888648604088605088635
:10199000060886071818188C558D568E578F588054
:1019A0002AE56424FEF88864860408860518ED3369
:1019B00095E0FEFF8C558D568E578F5820090CAC44
:1019C00055AD567E007F008E578F58300C43E5553D
:1019D00045564557455860397408B55C0C758230DA
:1019E000C0031211BFD00380287410B55C23758228
:1019F00030C0031211BFD00330010C758278C003D0
:101A00001211BFD003800A758258C0031211BFD0D3
:101A100003300925AC55AD56AE57E558FF30E717F2
:101A2000C3E49CFCE49DFDE49EFEE49FFF8C558D89
:101A3000568E578F588002C209755F00D20D8B00F9
:101A4000755900C000121209D000200D0DE559C4CF
:101A5000FCE6FD4CF61888038002A659055FB20D1E
:101A6000E55545564557455870D68803E55D7003E2
:101A7000755D0120061A200517E55F04FCC3955D1E
:101A8000500E758220C0031211BFD003155D80E98E
:101A900030090E75822DC0031211BFD003155D8071
:101AA00024E55F602030070E75822BC0031211BF42
:101AB000D003155D800F30080C758220C003121111
:101AC000BFD003155D20051EAC5D155DC3E55F9CB1
:101AD00050273006047C3080027C208C82C00312A8
:101AE00011BFD00380E2C3E55F955D5009E55DC39A
:101AF000955FF55D8003755D008B00AB5F155FEB57
:101B00006022B20D200D0A08E6C4540FFB8B5980E9
:101B1000078603740F5BF559855982C0001211D9ED
:101B2000D00080D72005030215A9AB5D155DEB70D1
:101B3000030215A97582201211BF80EE8A8212114C
:101B4000BF0215A9855A82855B8322AA82BA0A0838
:101B500010990280FB75990D10990280FB8A9922D9
:101B6000FCABF0AA83A982749EF582C2D1EC30E767
:101B700016D2D1E9F42401F9EAF43400FAEBF43492
:101B800000FBECF43400FC1211010210B2C0E0F8CA
:101B90004582458345F07009F5F0FBFCFDFE021C13
:101BA0005BE823A2F792E0F8A982AA83D2F7ABF010
:101BB0007C007E07C3749798404074FF2EFE740A21
:101BC00089F0A4F985F082740A8AF0A4FA85F0837A
:101BD000740A8BF0A4FB740529F9EA3582FAEB3517
:101BE00083FB740035F0FCC3EC13FCEB13FBEA132E
:101BF000FAE913F908EC70EF80BAE8C3947FF88B28
:101C0000838EF0E4FBFCFDFEFF08C3E933F9EA3301
:101C1000FAE58333F583EB3BD4FBEC3CD4FCED3DA0
:101C2000D4FDEE3ED4FEEF3FD4FF602D05F07405E9
:101C30002BD4FBE43CD4FCE43DD4FDE43ED4FEE4F0
:101C40003FD4FF758204C3EF13FFEE13FEED13FDC7
:101C5000EC13FCEB13FBD582EDD8AF7865D0E02018
:101C6000E704762B8002762D087906E7C4540F44EA
:101C700030F608B90603762E08E7540F4430F6080C
:101C800019B902E7764508E5F020E704762B8004D1
:101C9000762DF4040875F00A844430F608E5F04423
:101CA00030F608E4F690006575F04022AA82AB8316
:101CB000ACF07D007E008A828B838CF0120CA4FF36
:101CC000A3AA82AB83EF60070DBD00EA0E80E78D0B
:101CD000828E83220000000000000000000000004F
:00000001FF
