:100000000200037581821201B3E582600302006F72
:10001000780079007A007B007C007D00EC4D601C4C
:1000200088828983E493A3A882A9838A828B83F040
:10003000A3AA82AB831CBCFFE31D80E07582007520
:1000400083007C007D00EC4D600AE4F0A31CBCFF43
:10005000F51D80F27582007583007C007D00EC4DFB
:10006000600AE4F0A31CBCFFF51D80F21201B2127D
:1000700006F580FE1B5B324A005479706520496E9C
:1000800074656E64656420446973706C617920697D
:100090006E204C696E65203220283136204368611D
:1000A00072204D6178293A20000A00543A20252E0A
:1000B0003366207300463A20252E3366206B487A3B
:1000C00000433A20252E3366206E46000D45464DEE
:1000D0003820506572696F64206D65617375726553
:1000E0006D656E742061742070696E2050302E3101
:1000F000207573696E672054696D657220302E0A11
:1001000046696C653A2025730A436F6D70696C65AA
:10011000643A2025732C2025730A0D0A00433A5CAB
:100120004D756E74616B696D5F46696C65735C5388
:1001300063686F6F6C5C5363686F6F6C5F576F724F
:100140006B5C456E67696E656572696E675F42617B
:100150006368656C6F72735C323032335C454C455A
:10016000435F3239315C4C61625F345C454C4543DE
:100170003239315F4C6162345C4C6162342E630011
:1001800046656220323620323032340031393A311D
:10019000343A3535000A46286B487A29203D202517
:1001A000660D0A000D43286E4629203D2025660D68
:1001B0000A002275A7007597DE7597AD43FF80751D
:1001C000EF0275A71075C12075A70075A90075A964
:1001D00000E5A930E7FB75A90375A903E5A930E798
:1001E000FB43A41075E10175E20075E340759810BA
:1001F000858E8E758DE6858D8B53890F438920D230
:100200008ED29975820022AA82438E407592B8756B
:1002100093FF8592948593957591047B00C3EB9A27
:10022000500BE59130E7FB53917F0B80F075910007
:1002300022AA82AB83BA0004BB0001227582F9C0F6
:1002400002C0031202077582F91202077582F912C1
:1002500002077582FA120207D003D0021ABAFF0110
:100260001B80D25389F0438901C28C229001F41281
:1002700002317474C0E07400C0E07480C0E0120900
:10028000AB15811581158122D2A075822812020733
:10029000C2A022AA828AE0A2E79290A2E69291A24C
:1002A000E59292A2E49293C002120288758228120B
:1002B0000207D0028AE0A2E39290A2E29291A2E128
:1002C0009292A2E09293020288AA82D2978A821224
:1002D0000293900002020231AA82C2978A8212021D
:1002E00093900005020231C2A090001412023175F1
:1002F00082331202D87582331202D875823212020A
:10030000D87582281202D875820C1202D875820123
:100310001202D8900014020231AA82AB83ACF074AE
:1003200002B523047DC080027D808D82C002C0039F
:10033000C0041202D8900005120231D004D003D0BC
:10034000027D007E00ED2AFFEE3BF88C018F828853
:100350008389F012087EFF60208F82C002C003C034
:1003600004C005C0061202C9D006D005D004D003CF
:10037000D0020DBD00CF0E80CC3000248D028E0344
:10038000C3EA9410EB648094805015758220C002FB
:10039000C0031202C9D003D0020ABA00E30B80E006
:1003A0002285822685832785F028E4F529F52AE52C
:1003B0002424FFFFE52534FFF879007A00C3E99F84
:1003C000EA648088F063F08095F05059C002C0075D
:1003D000C000C0011209CCAB82D001D000D007D040
:1003E00002BB0A028003BB0D1DE5292526FCE52A78
:1003F0003527FDAE288C828D838EF0E41209DF85CF
:100400002982852A8322E92526FCEA3527FDAE28A4
:100410008C828D838EF0EB1209DF09B900010A8905
:10042000298A2A8098E5292526FAE52A3527FBAC72
:10043000288A828B838CF0E41209DF85248285254B
:100440008322AA82AB83ACF0C002C003C0047479DB
:10045000C0E07400C0E07480C0E01209AB158115E3
:10046000811581D004D003D002852B24852C258AC8
:10047000828B838CF0C002C003C0041203A174A954
:10048000C0E07400C0E07480C0E01209AB158115B3
:10049000811581D004D003D002752301D2008A8255
:1004A0008B838CF0020319AA82AB83ACF0FDC002EF
:1004B000C003C004C00574ABC0E07400C0E0748029
:1004C000C0E0742DC0E07400C0E07440C0E0120AC7
:1004D00047E58124F6F581752302D20090002D7541
:1004E000F040020319AA82AB83ACF0FDC002C00346
:1004F000C004C00574B5C0E07400C0E07480C0E002
:10050000743DC0E07400C0E07440C0E0120A47E5EA
:100510008124F6F581752301D20090003D75F040ED
:10052000020319AA82AB83ACF0FDC002C003C00471
:10053000C00574C1C0E07400C0E07480C0E0744DB8
:10054000C0E07400C0E07440C0E0120A47E58124B6
:10055000F6F581752302D20090004D75F04002033C
:1005600019120A8DAA82AB83ACF0FDC002C003C091
:1005700004C00590000075F080744712089AAA82A2
:10058000AB83ACF0FDE58124FCF581855D82855E61
:1005900083C002C003C004C005120A8DAE82AF83BF
:1005A000A8F0F9C006C007C000C00190000075F0B7
:1005B00080744312089AAE82AF83A8F0F9E58124D3
:1005C000FCF581D005D004D003D002C006C007C01E
:1005D00000C0018A828B838CF0ED12093DAA82ABA8
:1005E00083ACF0FDE58124FCF581855F8285608325
:1005F000C002C003C004C005120A8DAE82AF83A83A
:10060000F0F9D005D004D003D002C006C007C00066
:10061000C0018A828B838CF0ED12093DAA82AB83E4
:10062000ACF0FDE58124FCF581C002C003C004C02C
:100630000590F4FC75F032743412089AAA82AB83E8
:10064000ACF0FDE58124FCF5818A828B838CF0ED92
:1006500022AA82AB83ACF0FDC002C003C004C00577
:1006600090000075F080743F120A9AAA82AB83ACA6
:10067000F0FDE58124FCF5818A828B838CF0ED22EC
:10068000AA82AB83ACF0FDC002C003C004C00590D9
:1006900051EC75F0B8743F12089AAA82AB83ACF0A3
:1006A000FDE58124FCF581E4C0E074A0C0E0748C19
:1006B000C0E07445C0E08A828B838CF0ED120A9A08
:1006C000AA82AB83ACF0FDE58124FCF581C002C0B9
:1006D00003C004C005906B2875F06E744E12089A22
:1006E000AA82AB83ACF0FDE58124FCF5818A828B84
:1006F000838CF0ED2212026312026C1202E7748CFA
:10070000C0E07401C0E07480C0E07480C0E0740197
:10071000C0E07480C0E0741DC0E07401C0E074806B
:10072000C0E074CCC0E07400C0E07480C0E0120986
:10073000ABE58124F4F581758A00758C00C28D7556
:1007400022002081FD3081FDD28C308109108D0284
:1007500080F8052280F4208109108D0280F805229E
:1007600080F4C28CAA227B00858C5D755E00858A30
:100770005F7560008A828B83120561AA82AB83ACAD
:10078000F0FDC002C003C004C005120651AE82AF26
:1007900083A8F0F9D005D004D003D0028A828B83DD
:1007A0008CF0EDC006C007C000C001120680AA820E
:1007B000AB83ACF0FDD001D000D007D0069000FA9A
:1007C000C002C003C004C005C006C007C000C0010D
:1007D000120231D001D000D007D006E4C0E0C0E062
:1007E000747AC0E07444C0E08E828F8388F0E9128E
:1007F0000A9AAE82AF83A8F0F9E58124FCF581C0A6
:1008000006C007C000C001C006C007C000C0017418
:1008100095C0E07401C0E07480C0E01209ABE581CE
:1008200024F9F581D001D000D007D0068E828F83C5
:1008300088F0E91204E59000FA120231D005D004E4
:10084000D003D002C002C003C004C005C002C00370
:10085000C004C00574A4C0E07401C0E07480C0E0AE
:100860001209ABE58124F9F581D005D004D003D07D
:10087000028A828B838CF0ED12052302073720F762
:100880001430F6148883A88220F507E6A8837583C0
:100890000022E280F7E49322E022120C3BBC00032A
:1008A000020BDAEF60FA30D502B2D1E583B4FF0370
:1008B000020BF0E582B4FF03020BF025834007240E
:1008C00082400B020BDA2483145003020BF0F582F2
:1008D000EA8DF0A4A8F0EA8EF0A428F8E435F0F947
:1008E000EB8DF0A428E935F0F9E433CA8FF0A429A0
:1008F000F9EA35F0FAEBF88EF0A429F9EA35F0FAC6
:10090000E433FBEC8DF0A429F9EA35F0FAE43BFB83
:10091000E88FF0A42AFAEB35F0FBE433CCFD8EF03F
:10092000A42AFAEB35F0FBE43CFCED8FF0A42BFBA2
:10093000EC35F0FC20E703120C08020BB9120C3B5B
:100940007900E583B58202800D5003120C69E583BE
:10095000C39582120C83E5D0C465D020E117EA2D3F
:10096000FAEB3EFBEC3FFC50097401120C83EC44A3
:1009700080FC020BB9C3EA9DFAEB9EFBEC9FFC5096
:100980000FC3E499F9E49AFAE49BFBE49CFCB2D12E
:10099000120C08020BB902165285826F858370858E
:1009A000F0718510729009960210A5C00885810823
:1009B000E50824FBF572E50824FBF8866F088670CD
:1009C0000886719009961210A5D00822109802800E
:1009D000FBAA998A82C002121652D0028A82222071
:1009E000F71030F6118883A88220F507F6A88375E2
:1009F000830022F280F7F022AA82AB09AC0AAD0B89
:100A00008B828C838DF0EA1209DF0509E4B50902B7
:100A1000050A2285820985830A85F00B850C6F857E
:100A20000D70850E71850F729009F81210A5AA82BB
:100A3000AB83AC09AD0AAE0B8C828D838EF0E412D1
:100A400009DF8A828B8322C008858108E50824F8A3
:100A5000F572E50824FBF8860908860A08860BE586
:100A60000824F8F8866F0886700886719009F812D5
:100A700010A5AA82AB83AC09AD0AAE0B8C828D8324
:100A80008EF0E41209DF8A828B83D00822AC83AB1C
:100A9000827A007900748E021670120C3B30D502F7
:100AA000B2D1BF0009BC0003020BFD020BF0BC0079
:100AB00003020BDAE583B4FF0BE582B4FF03020BFC
:100AC000FD020BDAE582B4FF03020BF0C3958350FD
:100AD00007247F400B020BDA2480145003020BF032
:100AE000C0E0E4CCCBCAF98D118E128F13EF54F015
:100AF000C4F5147583068514F0EB84F582E9C4F916
:100B0000EAC4FAEBC4FBEC540FC47803D6FC18EB30
:100B1000D6FB18EAD6FA8582F0EDA4A8F0FD85820E
:100B2000F0EEA428FEE435F0F88582F0EFA428FF6B
:100B3000E435F0F8E99DF9EA9EFAEB9FFBEC98FCAE
:100B4000AD11AE12AF1330E7101582E92DF9EA3E70
:100B5000FAEB3FFBE43CFC80EDC082D58398C3E90F
:100B600033F9EA33FAEB33FBEC33FCC3E99DEA9E3D
:100B7000EB9FEC9400B3E413F9D002D0E0C44AFA3E
:100B8000D003D0E0C44BFBD004D0E0F5F0540FC448
:100B90004CFCD082158230F40FD3EC13FCEB13FB2A
:100BA000EA13FAE913F90582E930E70A74012AFA2F
:100BB000E43BFBE43CFC020BD1B98003EA13B340F5
:100BC00010EA2401FAE43BFBE43CFC50047C800581
:100BD00082BC000EBB000BBA0008E4F5F0F583F50B
:100BE0008222A2D1E582138CF092F78B838A822233
:100BF000E4F583F58275F080F4A2D11322E4F58345
:100C0000F58275F0C0747F227804EC7011E58224BF
:100C1000F8500AF582E4C9CACBFCD8EF22EC782060
:100C2000058220E713D5820122C3E933F9EA33FABA
:100C3000EB33FBEC33FCD8EA158222AA82AB83A209
:100C4000F73392D16002D2F7F582ACF0E58124F956
:100C5000F8E6FD08E6FE0886F008E6A2F73392D52E
:100C60006002D2F7F583AFF022E582C583F582A258
:100C7000D133A2D592D11392D5ECCFFCEBCEFBEAC7
:100C8000CDFA226040F82582500274FFF582E824F4
:100C9000F8501ECCCBCAF9E4CC24F85014CBCAF9D6
:100CA000E4CB24F8500BCAF9E4CA24F850037900C5
:100CB0002224086010F8C3EC13FCEB13FBEA13FAD0
:100CC000E913F9D8F122AA8274D7C0E0740CC0E00D
:100CD000C061C0628A82220568E4B56802056922A3
:100CE000AA8274302AFA24C6500A74072AFA3001FC
:100CF000034302208A82020CC6E582FAC4540FF52F
:100D000082C002120CE0D002740F5AF582020CE08D
:100D1000AA63AB64AC65AD66AE67756E20EE2EFE61
:100D2000ED235401FF4206EA2AFAEB33FBEC33FCD5
:100D3000ED33FDC3EE956A4008EEC3956AFE4302AB
:100D400001D56ED98A638B648C658D668E67227837
:100D50007FE624D075F00AA4FA7880E624D02AFA37
:100D6000787E8603BB2D04C3E49AFA756A01C3E456
:100D700064808AF063F08095F05029756E038A03D1
:100D800074F6256E401C056AE56E142473F8E56E52
:100D90002473F98704A604772E1BEBFA6004056E12
:100DA00080DE8B02EA30E70D787486037875A6033F
:100DB0007874762E0AE56C600AE56C04FB256AF50A
:100DC0006A8005300C02056A78738603E4BB2D0146
:100DD00004FB7006200703300802056A3005030291
:100DE0000E96300657EB600C75822DC002120CC6B1
:100DF000D002801C30070C75822BC002120CC6D0AA
:100E000002800D30080A758220C002120CC6D00282
:100E100078748604BC2E0C758230C002120CC6D0C9
:100E200002156BAC6B156BC3E56A9C4003020EDACE
:100E3000758230C002120CC6D00280E7AC6B156B15
:100E4000C3E56A9C500C758220C002120CC6D00209
:100E500080EA78738604BC2D0C75822DC002120CBA
:100E6000C6D002801C30070C75822BC002120CC643
:100E7000D002800D30080A758220C002120CC6D044
:100E80000278748604BC2E52758230C002120CC6E1
:100E9000D002156B8044EB600E75822DC002120CDF
:100EA000C6D002156B802030070E75822BC002124F
:100EB0000CC6D002156B800F30080C758220C00262
:100EC000120CC6D002156B78748603BB2E0C75828B
:100ED00030C002120CC6D002156B756E01C20EE551
:100EE0006E2473F88603BB4503020F97BB2E348A2A
:100EF00003C3E464808BF063F08095F0500F75823B
:100F000030C003120CC6D0031B8B0280E48B02D2CC
:100F10000EE56C7038200C03020F9775822E120CB0
:100F2000C68074300E278A03EB30E71FC3E4648069
:100F3000856CF063F08095F0500C758230C0031220
:100F40000CC6D003156C0B8B0280DD8B02300E0EAD
:100F5000C3E46480856CF063F08095F05021E56E09
:100F60002473F886038B82C002120CC6D002300EA6
:100F70000EE56E2473F88603BB2E028002156C15F5
:100F80006BC3E46480856CF063F08095F0400320CF
:100F90000E05056E020EDFC3E46480856CF063F01D
:100FA0008095F0500A758230120CC6156C80E830BE
:100FB000050FAA6B156BEA6008758220120CC680BB
:100FC000F122E56C7003300C0D7407256CFAE56BAB
:100FD000C39AF56B8006E56B24FAF56B756E0078A5
:100FE000738602BA2B0F20070C7873762020080531
:100FF000756E01056B200519AA6BC3E464808AF045
:1010000063F08095F0500A758220120CC6156B8033
:10101000E7C20EE56E2473F88602BA00028069BA50
:10102000451F3001027665C3E46480856CF063F08F
:101030008095F0500A758230120CC6156C80E8D28B
:101040000EC3E56E9402E433FA7014EA700EC3E442
:101050006480856CF063F08095F04003300E16E5F7
:101060006E2473F886028A82120CC6E56E24FD5047
:1010700012156C800E7402B56E09300C0675822E46
:10108000120CC6056E021013300519AA6BC3E46476
:10109000808AF063F08095F0500A758220120CC6A9
:1010A000156B80E722858261858362E4F568F569C6
:1010B000AA6FAB70AC718A828B838CF012087EFDB4
:1010C00074012AF56FE43BF5708C71EDFA70030240
:1010D000164BBA25028003021643C205C206C20798
:1010E000C208C209C20AC20BC20CC202C203C204B5
:1010F000756A00756B00756CFFAB6FAC70AD718B72
:10110000828C838DF012087EFAA3AB82AC838B6F46
:101110008C708D71BA25078A82120CC680928A065D
:10112000BE3000402E8A06EE24C6402774FFB56C00
:1011300013E56B75F00AA4FEEA24D02EF56B70BFA0
:10114000D20680BBE56C75F00AA4FEEA24D02EF529
:101150006C80ACBA2E0A74FFB56CA4756C00809FCD
:101160008A06BE6100400E8A06EE248540075302BF
:10117000DFD2018002C201BA20028075BA230302C5
:101180001200BA2A03021205BA2B02805FBA2D029E
:101190008055BA4202805FBA430302124ABA44033E
:1011A000021385BA450302139FBA460302139BBA82
:1011B00047030213A3BA4903021385BA4C02803BCA
:1011C000BA4E030213A7BA4F0302138CBA5003029C
:1011D000131EBA530302126EBA5503021391BA5882
:1011E000030213960213D1D2050210FFD207021098
:1011F000FFD2080210FFD20A0210FFD20B0210FF2A
:10120000D20C0210FF74FFB56C20300A0BE572148B
:10121000F88872866B0210FFE57224FEF8887286E9
:1012200006088607188E6B0210FF300A0BE5721451
:10123000F88872866C0210FFE57224FEF8887286C8
:1012400006088607188E6C0210FF300A0AE5721431
:10125000F888728602800FE57224FEF88872860391
:10126000088604188B028A82120CC60213D6E57215
:1012700024FDF88872860308860408860518188BF2
:10128000638C648D658B828C838DF01217B3AB8277
:10129000AC838B6D74FFB56C03856D6C20051DC32D
:1012A000E56D956B5016E56BC3956DF56BAB6B15E6
:1012B0006BEB6008758220120CC680F18563828515
:1012C00064838565F012087EFBFA6029AB6C156CAF
:1012D000C3E464808BF063F08095F050188A82122A
:1012E0000CC6AB63AC64AD650BBB00010C8B638CAF
:1012F000648D6580C72005030213D6C3E56D956B29
:1013000040030213D6E56BC3956DF56BAB6B156BA4
:10131000EB70030213D6758220120CC680EEE572C4
:1013200024FDF88872860308860408860518188B41
:10133000638C648D65E565FB30E7047A438013EBCD
:10134000546060047A50800AEB30E6047A498002E7
:101350007A588A82C002120CC675823A120CC6757F
:101360008230120CC6758278120CC6D002BA4902BD
:10137000800BBA50028006856482120CF985638264
:10138000120CF98051D209756A0A804A756A088080
:1013900045756A0A8040756A10803BD2028037D258
:1013A000038033D204802FE57224FDF8887286030F
:1013B00008860408860518188B638C648D658B82FB
:1013C0008C838DF0E5681209DFA3E5691209DF80DF
:1013D000058A82120CC6200206200303300470E541
:1013E0007224FCF88872860308860408860508863D
:1013F000061818188B638C648D658E66E563E5644A
:10140000E565E5668B828C838DF0EE12169474FF91
:10141000B56C03756C06300427747F5566FB8B67CB
:10142000E567EB2BFB8B67E56530E70674014567E5
:10143000F567E56724684006749925674002D20382
:10144000300306120FC20210B0120D4F0210B0E5A9
:101450006A70030210B07B78300A2BE57214F888AA
:1014600072E6FC3395E0FDFEFF8C638D648E658F24
:101470006620095EAC637D007E007F008C638D6416
:101480008E658F66804C300B1FE57224FCF88872E5
:1014900086040886050886060886071818188C63CF
:1014A0008D648E658F66802AE57224FEF8887286C8
:1014B0000408860518ED3395E0FEFF8C638D648E7D
:1014C000658F6620090CAC63AD647E007F008E657D
:1014D0008F66300C43E56345644565456660397445
:1014E00008B56A0C758230C003120CC6D003802880
:1014F0007410B56A23758230C003120CC6D0033055
:10150000010C758278C003120CC6D003800A758264
:1015100058C003120CC6D003300925AC63AD64AECD
:1015200065E566FF30E717C3E49CFCE49DFDE49E9F
:10153000FEE49FFF8C638D648E658F668002C20916
:10154000756D00D20D8B00756700C000120D10D0B4
:1015500000200D0DE567C4FCE6FD4CF618880380FD
:1015600002A667056DB20DE5634564456545667085
:10157000D68803E56B7003756B0120061A200517EA
:10158000E56D04FCC3956B500E758220C003120CF0
:10159000C6D003156B80E930090E75822DC0031289
:1015A0000CC6D003156B8024E56D602030070E75E6
:1015B000822BC003120CC6D003156B800F30080CB1
:1015C000758220C003120CC6D003156B20051EAC1B
:1015D0006B156BC3E56D9C50273006047C30800290
:1015E0007C208C82C003120CC6D00380E2C3E56D60
:1015F000956B5009E56BC3956DF56B8003756B00BA
:101600008B00AB6D156DEB6022B20D200D0A08E664
:10161000C4540FFB8B6780078603740F5BF56785E7
:101620006782C000120CE0D00080D72005030210B2
:10163000B0AB6B156BEB70030210B0758220120C0F
:10164000C680EE8A82120CC60210B0856882856957
:101650008322AA82BA0A0810990280FB75990D109C
:10166000990280FB8A9922FCABF0AA83A982749E1E
:10167000F582C2D1EC30E716D2D1E9F42401F9EABF
:10168000F43400FAEBF43400FBECF43400FC120CFC
:1016900008020BB9C0E0F84582458345F07009F5B2
:1016A000F0FBFCFDFE021762E823A2F792E0F8A926
:1016B00082AA83D2F7ABF07C007E07C37497984070
:1016C0004074FF2EFE740A89F0A4F985F082740A32
:1016D0008AF0A4FA85F083740A8BF0A4FB740529C0
:1016E000F9EA3582FAEB3583FB740035F0FCC3EC84
:1016F00013FCEB13FBEA13FAE913F908EC70EF8023
:10170000BAE8C3947FF88B838EF0E4FBFCFDFEFF08
:1017100008C3E933F9EA33FAE58333F583EB3BD4C5
:10172000FBEC3CD4FCED3DD4FDEE3ED4FEEF3FD4CB
:10173000FF602D05F074052BD4FBE43CD4FCE43DA4
:10174000D4FDE43ED4FEE43FD4FF758204C3EF131E
:10175000FFEE13FEED13FDEC13FCEB13FBD582ED56
:10176000D8AF7873D0E020E704762B8002762D087E
:101770007906E7C4540F4430F608B90603762E08FC
:10178000E7540F4430F60819B902E7764508E5F04A
:1017900020E704762B8004762DF4040875F00A8483
:1017A0004430F608E5F04430F608E4F6900073752E
:1017B000F04022AA82AB83ACF07D007E008A828B4F
:1017C000838CF012087EFFA3AA82AB83EF60070D23
:1017D000BD00EA0E80E78D828E83220000000000AB
:00000001FF
