:1000000002000375818C120130E582600302006FEB
:10001000780079007A007B007C007D00EC4D601C4C
:1000200088828983E493A3A882A9838A828B83F040
:10003000A3AA82AB831CBCFFE31D80E07582007520
:1000400083007C007D00EC4D600AE4F0A31CBCFF43
:10005000F51D80F27582007583007C007D00EC4DFB
:10006000600AE4F0A31CBCFFF51D80F212012F1200
:10007000074480FE1B5B324A005479706520496E4C
:1000800074656E64656420446973706C617920697D
:100090006E204C696E65203220283136204368611D
:1000A00072204D6178293A20000A00543A20252E0A
:1000B0003366207300463A20252E3366206B487A3B
:1000C00000433A20252E3366206E4600565F4C458D
:1000D00044203D2025660D0A00565F52203D202514
:1000E000660D0A004552524F52203A204C4F57207D
:1000F00043004552524F52203A2048494748204336
:10010000002020202020202020202020202020200F
:1001100020000A46286B487A29203D2025660D0AD2
:10012000000D43286E4629203D2025660D0A002239
:1001300075A7007597DE7597AD43FF8075EF06755F
:10014000A71075C12075A70075A90075A900E5A9BC
:1001500030E7FB75A90375A903E5A930E7FB43A4C4
:100160001075E10175E20075E340759810858E8E7B
:10017000758DE6858D8B53890F438920D28ED29958
:100180007582002275A700C2EF75B28075BC20751C
:10019000B91E75E80075DF3F75B300D2EF22AA8261
:1001A0008511F005F07401800225E0D5F0FBFB75A8
:1001B000A720BA0002800ABA0102800FBA021E808C
:1001C00014EBF4FA52F1EB42D48012EBF4FA52F24F
:1001D000EB42D58008EBF4FA52F3EB42CC75A70062
:1001E000228582BBC2EDD2EC30EDFD85BD8285BE9D
:1001F00083221201E1120A43AA82AB83ACF0FDC054
:1002000002C003C004C005906C8B75F0537440129B
:100210000AAFAA82AB83ACF0FDE58124FCF581E452
:10022000C0E074FCC0E0747FC0E07446C0E08A8225
:100230008B838CF0ED120CAFAA82AB83ACF0FDE5A2
:100240008124FCF5818A828B838CF0ED22AA824383
:100250008E407592B87593FF8592948593957591AC
:10026000047B00C3EB9A500BE59130E7FB53917F81
:100270000B80F075910022AA82AB837C007D00C3C5
:10028000EC9AED9B502B7E00BE0400501D7582FA47
:10029000C002C003C004C005C00612024DD006D083
:1002A00005D004D003D0020E80DE0CBC00D10D803E
:1002B000CE225389F0438901C28C229001F41202AC
:1002C000777474C0E07400C0E07480C0E0120BC0AA
:1002D00015811581158122D2A075822812024DC286
:1002E000A022AA828AE0A2E79290A2E69291A2E5D9
:1002F0009292A2E49293C0021202D775822812024F
:100300004DD0028AE0A2E39290A2E29291A2E19201
:1003100092A2E092930202D7AA82D2978A82120214
:10032000E2900002020277AA82C2978A821202E257
:10033000900005020277C2A0900014120277758225
:100340003312032775823312032775823212032773
:1003500075822812032775820C12032775820112F9
:100360000327900014020277AA82AB83ACF07402D8
:10037000B523047DC080027D808D82C002C003C091
:1003800004120327900005120277D004D003D00294
:100390007D007E00ED2AFFEE3BF88C018F82888382
:1003A00089F0120A27FF60208F82C002C003C004B8
:1003B000C005C006120318D006D005D004D003D063
:1003C000020DBD00CF0E80CC3000248D028E03C301
:1003D000EA9410EB648094805015758220C002C0AE
:1003E00003120318D003D0020ABA00E30B80E02204
:1003F00085822685832785F028E4F529F52AE524DA
:1004000024FFFFE52534FFF879007A00C3E99FEA6D
:10041000648088F063F08095F05059C002C007C036
:1004200000C001120BE1AB82D001D000D007D00296
:10043000BB0A028003BB0D1DE5292526FCE52A35F4
:1004400027FDAE288C828D838EF0E4120BF4852973
:1004500082852A8322E92526FCEA3527FDAE288CF1
:10046000828D838EF0EB120BF409B900010A892901
:100470008A2A8098E5292526FAE52A3527FBAC2823
:100480008A828B838CF0E4120BF485248285258389
:1004900022AA82AB83ACF0C002C003C0047479C04E
:1004A000E07400C0E07480C0E0120BC015811581BB
:1004B0001581D004D003D002852B24852C258A8277
:1004C0008B838CF0C002C003C0041203F074A9C077
:1004D000E07400C0E07480C0E0120BC0158115818B
:1004E0001581D004D003D002752301D2008A828BFB
:1004F000838CF0020368AA82AB83ACF0FDC002C01B
:1005000003C004C00574ABC0E07400C0E07480C0D8
:10051000E0742DC0E07400C0E07440C0E0120C5CD8
:10052000E58124F6F581752302D20090002D75F047
:1005300040020368AA82AB83ACF0FDC002C003C0D6
:1005400004C00574B5C0E07400C0E07480C0E074FD
:100550003DC0E07400C0E07440C0E0120C5CE58176
:1005600024F6F581752301D20090003D75F040021C
:100570000368AA82AB83ACF0FDC002C003C004C014
:100580000574C1C0E07400C0E07480C0E0744DC068
:10059000E07400C0E07440C0E0120C5CE58124F619
:1005A000F581752302D20090004D75F0400203687A
:1005B000120CA2AA82AB83ACF0FDC002C003C0043F
:1005C000C00590000075F0807447120AAFAA82AB94
:1005D00083ACF0FDE58124FCF581855D82855E8339
:1005E000C002C003C004C005120CA2AE82AF83A833
:1005F000F0F9C006C007C000C00190000075F0808F
:100600007443120AAFAE82AF83A8F0F9E58124FCEF
:10061000F581D005D004D003D002C006C007C000C9
:10062000C0018A828B838CF0ED120B52AA82AB83BD
:10063000ACF0FDE58124FCF581855F82856083C097
:1006400002C003C004C005120CA2AE82AF83A8F0A2
:10065000F9D005D004D003D002C006C007C000C046
:10066000018A828B838CF0ED120B52AA82AB83AC91
:10067000F0FDE58124FCF581C002C003C004C00583
:1006800090F4FC75F0327434120AAFAA82AB83ACDA
:10069000F0FDE58124FCF5818A828B838CF0ED22CC
:1006A000AA82AB83ACF0FDC002C003C004C00590B9
:1006B000000075F080743F120CAFAA82AB83ACF0DF
:1006C000FDE58124FCF5818A828B838CF0ED22AAE2
:1006D00082AB83ACF0FDC002C003C004C0059051E2
:1006E000EC75F0B8743F120AAFAA82AB83ACF0FD90
:1006F000E58124FCF581E4C0E074A0C0E0748CC006
:10070000E07445C0E08A828B838CF0ED120CAFAAB6
:1007100082AB83ACF0FDE58124FCF581C002C0030F
:10072000C004C005906B2875F06E744E120AAFAA13
:1007300082AB83ACF0FDE58124FCF5818A828B835A
:100740008CF0ED22E4F569F56A1202B21202BB12D6
:10075000033675110175820012019E7511017582B3
:100760000212019E1201847582001201F2858261DB
:1007700085836285F063F5647582011201F2A882B7
:10078000A983ACF0FDC004C005C000C001C061C0B9
:1007900062C063C06474CCC0E07400C0E07480C008
:1007A000E0120BC0E58124F9F581D001D000D0051D
:1007B000D004C000C001C004C00574D9C0E07400FA
:1007C000C0E07480C0E0120BC0E58124F9F58175AA
:1007D0008A00758C00C28D75220020B3FD30B3FDF8
:1007E000D28C30B309108D0280F8052280F420B33A
:1007F00009108D0280F8052280F4C28CAC227D00A5
:10080000858C5D755E00858A5F7560008C828D8346
:100810001205B0AC82AD83AEF0FFC004C005C006C7
:10082000C0071206A0A882A983AAF0FBD007D006B1
:10083000D005D0048C828D838EF0EFC002C003C03F
:1008400000C0011206CF85826585836685F067F555
:1008500068D001D000D003D002C002C003C000C0E5
:1008600001E4C0E0C0E07448C0E07443C0E08882A6
:1008700089838AF0EB120A4FAC82E58124FCF58172
:10088000D001D000D003D002EC603BC002C003C056
:1008900004C000C001E4C0E07450C0E074C3C0E014
:1008A0007448C0E0888289838AF0EB120A7FAD82A7
:1008B000E58124FCF581D001D000D004D003D00222
:1008C000ED600302096AE4F569F56AC002C003C07D
:1008D00004C000C001E4C0E07450C0E074C3C0E0D4
:1008E0007448C0E0888289838AF0EB120A7FAD8267
:1008F000E58124FCF581D001D000D004D003D002E2
:10090000ED7020752301D2009000E475F080C002E4
:10091000C003C000C001120368D001D000D003D0D2
:10092000028021EC701E752301D2009000F275F058
:1009300080C002C003C000C001120368D001D00013
:10094000D003D002752302D20090010175F080C05F
:1009500002C003C000C0011203689000FA120277BF
:10096000D001D000D003D00280080569E4B5690247
:10097000056AC3E5699403E56A64809480500302C4
:1009800007679000FAC002C003C000C001120277DE
:10099000D001D000D003D002E4C0E0C0E0747AC03F
:1009A000E07444C0E0888289838AF0EB120CAFAA1D
:1009B00082AB83ACF0FDE58124FCF581C002C0036D
:1009C000C004C005C002C003C004C0057412C0E06A
:1009D0007401C0E07480C0E0120BC0E58124F9F519
:1009E00081D005D004D003D0028A828B838CF0EDB5
:1009F0001205349000FA120277C065C066C067C065
:100A0000687421C0E07401C0E07480C0E0120BC0C3
:100A1000E58124F9F5818565828566838567F0E542
:100A20006812057202076720F71430F6148883A84D
:100A30008220F507E6A88375830022E280F7E4931D
:100A400022E022E4AC83AB82FAF9748E020DD7FF68
:100A5000A8811818120DFFD2D133E6400730E70BFA
:100A60007582012220E70675820022C2D1120DE1B3
:100A7000E97003F5822230D101B3E433F58222FF1D
:100A8000A8811818120DFFD2D133E6400730E70BCA
:100A90007582002220E70675820122C2D1120DE183
:100AA000E97003F5822220D101B3E433F5822212EA
:100AB0000EACBC0003020E4BEF60FA30D502B2D18F
:100AC000E583B4FF03020E61E582B4FF03020E6109
:100AD000258340072482400B020E4B2483145003CD
:100AE000020E61F582EA8DF0A4A8F0EA8EF0A42847
:100AF000F8E435F0F9EB8DF0A428E935F0F9E433AA
:100B0000CA8FF0A429F9EA35F0FAEBF88EF0A4299F
:100B1000F9EA35F0FAE433FBEC8DF0A429F9EA3573
:100B2000F0FAE43BFBE88FF0A42AFAEB35F0FBE4A3
:100B300033CCFD8EF0A42AFAEB35F0FBE43CFCED5F
:100B40008FF0A42BFBEC35F0FC20E703120E7902AA
:100B50000E2A120EAC7900E583B58202800D500397
:100B6000120EDAE583C39582120EF4E5D0C465D087
:100B700020E117EA2DFAEB3EFBEC3FFC5009740133
:100B8000120EF4EC4480FC020E2AC3EA9DFAEB9E9E
:100B9000FBEC9FFC500FC3E499F9E49AFAE49BFB49
:100BA000E49CFCB2D1120E79020E2A0218C385828F
:100BB0007985837A85F07B85107C900BAB021316C8
:100BC000C008858108E50824FBF57CE50824FBF8CE
:100BD000867908867A08867B900BAB121316D008AC
:100BE0002210980280FBAA998A82C0021218C3D0F0
:100BF000028A822220F71030F6118883A88220F51D
:100C000007F6A88375830022F280F7F022AA82AB50
:100C100009AC0AAD0B8B828C838DF0EA120BF405C4
:100C200009E4B50902050A2285820985830A85F04F
:100C30000B850C79850D7A850E7B850F7C900C0DCC
:100C4000121316AA82AB83AC09AD0AAE0B8C828D4F
:100C5000838EF0E4120BF48A828B8322C008858194
:100C600008E50824F8F57CE50824FBF886090886E1
:100C70000A08860BE50824F8F8867908867A08863B
:100C80007B900C0D121316AA82AB83AC09AD0AAE91
:100C90000B8C828D838EF0E4120BF48A828B83D0CE
:100CA0000822AC83AB827A007900748E0218E112BC
:100CB0000EAC30D502B2D1BF0009BC0003020E6EEB
:100CC000020E61BC0003020E4BE583B4FF0BE5820C
:100CD000B4FF03020E6E020E4BE582B4FF03020E58
:100CE00061C395835007247F400B020E4B24801470
:100CF0005003020E61C0E0E4CCCBCAF98D118E1214
:100D00008F13EF54F0C4F5147583068514F0EB844B
:100D1000F582E9C4F9EAC4FAEBC4FBEC540FC478D9
:100D200003D6FC18EBD6FB18EAD6FA8582F0EDA4C0
:100D3000A8F0FD8582F0EEA428FEE435F0F8858267
:100D4000F0EFA428FFE435F0F8E99DF9EA9EFAEB0C
:100D50009FFBEC98FCAD11AE12AF1330E71015827B
:100D6000E92DF9EA3EFAEB3FFBE43CFC80EDC08262
:100D7000D58398C3E933F9EA33FAEB33FBEC33FC60
:100D8000C3E99DEA9EEB9FEC9400B3E413F9D00213
:100D9000D0E0C44AFAD003D0E0C44BFBD004D0E08A
:100DA000F5F0540FC44CFCD082158230F40FD3EC14
:100DB00013FCEB13FBEA13FAE913F90582E930E7B8
:100DC0000A74012AFAE43BFBE43CFC020E42FCAB51
:100DD000F0AA83A982749EC2D1F582120E79020E06
:100DE0002A7901AA82E68F82B5821318E6B5F00E41
:100DF00018E6B5830918E68A82B58202790022B422
:100E0000800FE5F0700AE5837006E58270027F00CE
:100E1000EFB6801518B6001018B6000B18B600060D
:100E200008080876002208080822B98003EA13B3EC
:100E30004010EA2401FAE43BFBE43CFC50047C80D3
:100E40000582BC000EBB000BBA0008E4F5F0F58388
:100E5000F58222A2D1E582138CF092F78B838A82ED
:100E600022E4F583F58275F080F4A2D11322E4F533
:100E700083F58275F0C0747F227804EC7011E582EE
:100E800024F8500AF582E4C9CACBFCD8EF22EC78EA
:100E900020058220E713D5820122C3E933F9EA3322
:100EA000FAEB33FBEC33FCD8EA158222AA82AB833F
:100EB000A2F73392D16002D2F7F582ACF0E581243B
:100EC000F9F8E6FD08E6FE0886F008E6A2F7339298
:100ED000D56002D2F7F583AFF022E582C583F582B3
:100EE000A2D133A2D592D11392D5ECCFFCEBCEFB9D
:100EF000EACDFA226040F82582500274FFF582E8BC
:100F000024F8501ECCCBCAF9E4CC24F85014CBCA38
:100F1000F9E4CB24F8500BCAF9E4CA24F850037959
:100F2000002224086010F8C3EC13FCEB13FBEA1357
:100F3000FAE913F9D8F122AA827448C0E0740FC00C
:100F4000E0C06BC06C8A82220572E4B57202057340
:100F500022AA8274302AFA24C6500A74072AFA3068
:100F600001034302208A82020F37E582FAC4540F3C
:100F7000F582C002120F51D002740F5AF582020F8F
:100F800051AA6DAB6EAC6FAD70AE71757820EE2E60
:100F9000FEED235401FF4206EA2AFAEB33FBEC3361
:100FA000FCED33FDC3EE95744008EEC39574FE432B
:100FB0000201D578D98A6D8B6E8C6F8D708E7122FF
:100FC0007889E624D075F00AA4FA788AE624D02A33
:100FD000FA78888603BB2D04C3E49AFA757401C3BA
:100FE000E464808AF063F08095F050297578038A74
:100FF0000374F62578401C0574E57814247DF8E523
:1010000078247DF98704A604772E1BEBFA6004058B
:101010007880DE8B02EA30E70D787E8603787FA643
:1010200003787E762E0AE576600AE57604FB257461
:10103000F5748005300C020574787D8603E4BB2DC1
:101040000104FB7006200703300802057430050315
:10105000021107300657EB600C75822DC002120F8B
:1010600037D002801C30070C75822BC002120F375C
:10107000D002800D30080A758220C002120F37D0CE
:1010800002787E8604BC2E0C758230C002120F37A7
:10109000D0021575AC751575C3E5749C400302113B
:1010A0004B758230C002120F37D00280E7AC751545
:1010B00075C3E5749C500C758220C002120F37D0A6
:1010C0000280EA787D8604BC2D0C75822DC0021248
:1010D0000F37D002801C30070C75822BC002120F14
:1010E00037D002800D30080A758220C002120F37F7
:1010F000D002787E8604BC2E52758230C002120F58
:1011000037D00215758044EB600E75822DC0021237
:101110000F37D0021575802030070E75822BC00264
:10112000120F37D0021575800F30080C758220C061
:1011300002120F37D0021575787E8603BB2E0C7510
:101140008230C002120F37D0021575757801C20EB9
:10115000E578247DF88603BB4503021208BB2E34D4
:101160008A03C3E464808BF063F08095F0500F75C0
:101170008230C003120F37D0031B8B0280E48B0236
:10118000D20EE5767038200C0302120875822E12FA
:101190000F378074300E278A03EB30E71FC3E464F7
:1011A000808576F063F08095F0500C758230C00336
:1011B000120F37D00315760B8B0280DD8B02300EB9
:1011C0000EC3E464808576F063F08095F05021E5ED
:1011D00078247DF886038B82C002120F37D002304C
:1011E0000E0EE578247DF88603BB2E02800215766C
:1011F0001575C3E464808576F063F08095F0400354
:10120000200E050578021150C3E464808576F063F2
:10121000F08095F0500A758230120F37157680E80D
:1012200030050FAA751575EA6008758220120F3710
:1012300080F122E5767003300C0D74072576FAE50F
:1012400075C39AF5758006E57524FAF5757578000D
:10125000787D8602BA2B0F20070C787D7620200837
:10126000057578010575200519AA75C3E464808A9F
:10127000F063F08095F0500A758220120F371575D3
:1012800080E7C20EE578247DF88602BA0002806904
:10129000BA451F3001027665C3E464808576F06349
:1012A000F08095F0500A758230120F37157680E87D
:1012B000D20EC3E5789402E433FA7014EA700EC3D8
:1012C000E464808576F063F08095F04003300E167C
:1012D000E578247DF886028A82120F37E57824FDAE
:1012E00050121576800E7402B57809300C0675829E
:1012F0002E120F370578021284300519AA75C3E43F
:1013000064808AF063F08095F0500A758220120F95
:1013100037157580E72285826B85836CE4F572F55D
:1013200073AA79AB7AAC7B8A828B838CF0120A2702
:10133000FD74012AF579E43BF57A8C7BEDFA7003B4
:101340000218BCBA250280030218B4C205C206C244
:1013500007C208C209C20AC20BC20CC202C203C23F
:10136000047574007575007576FFAB79AC7AAD7B4A
:101370008B828C838DF0120A27FAA3AB82AC838B0D
:10138000798C7A8D7BBA25078A82120F3780928AF0
:1013900006BE3000402E8A06EE24C6402774FFB5F4
:1013A0007613E57575F00AA4FEEA24D02EF5757063
:1013B000BFD20680BBE57675F00AA4FEEA24D02EE3
:1013C000F57680ACBA2E0A74FFB576A475760080E7
:1013D0009F8A06BE6100400E8A06EE2485400753B0
:1013E00002DFD2018002C201BA20028075BA230353
:1013F000021471BA2A03021476BA2B02805FBA2D46
:10140000028055BA4202805FBA43030214BBBA4459
:10141000030215F6BA4503021610BA460302160C6B
:10142000BA4703021614BA49030215F6BA4C0280F1
:101430003BBA4E03021618BA4F030215FDBA500309
:1014400002158FBA53030214DFBA5503021602BA0B
:101450005803021607021642D205021370D2070281
:101460001370D208021370D20A021370D20B021347
:1014700070D20C02137074FFB57620300A0BE57C35
:1014800014F8887C8675021370E57C24FEF8887C4D
:101490008606088607188E75021370300A0BE57CE5
:1014A00014F8887C8676021370E57C24FEF8887C2C
:1014B0008606088607188E76021370300A0AE57CC5
:1014C00014F8887C8602800FE57C24FEF8887C86F0
:1014D00003088604188B028A82120F37021647E52A
:1014E0007C24FDF8887C8603088604088605181885
:1014F0008B6D8C6E8D6F8B828C838DF0121A24AB6A
:1015000082AC838B7774FFB5760385777620051DD3
:10151000C3E57795755016E575C39577F575AB7589
:101520001575EB6008758220120F3780F1856D828A
:10153000856E83856FF0120A27FBFA6029AB76155A
:1015400076C3E464808BF063F08095F050188A8253
:10155000120F37AB6DAC6EAD6F0BBB00010C8B6D1A
:101560008C6E8D6F80C7200503021647C3E5779503
:10157000754003021647E575C39577F575AB75158C
:1015800075EB7003021647758220120F3780EEE567
:101590007C24FDF8887C86030886040886051818D4
:1015A0008B6D8C6E8D6FE56FFB30E7047A43801393
:1015B000EB546060047A50800AEB30E6047A49808C
:1015C000027A588A82C002120F3775823A120F3798
:1015D000758230120F37758278120F37D002BA49F0
:1015E00002800BBA50028006856E82120F6A856DEA
:1015F00082120F6A8051D20975740A804A75740884
:10160000804575740A8040757410803BD202803723
:10161000D2038033D204802FE57C24FDF8887C86B9
:101620000308860408860518188B6D8C6E8D6F8BE9
:10163000828C838DF0E572120BF4A3E573120BF428
:1016400080058A82120F37200206200303300470BF
:10165000E57C24FCF8887C86030886040886050857
:1016600086061818188B6D8C6E8D6F8E70E56DE583
:101670006EE56FE5708B828C838DF0EE1219057428
:10168000FFB57603757606300427747F5570FB8BA3
:1016900071E571EB2BFB8B71E56F30E7067401454B
:1016A00071F571E57124684006749925714002D284
:1016B00003300306121233021321120FC00213214A
:1016C000E57470030213217B82300A2BE57C14F849
:1016D000887CE6FC3395E0FDFEFF8C6D8D6E8E6F91
:1016E0008F7020095EAC6D7D007E007F008C6D8D5B
:1016F0006E8E6F8F70804C300B1FE57C24FCF88859
:101700007C86040886050886060886071818188C43
:101710006D8D6E8E6F8F70802AE57C24FEF8887C3C
:10172000860408860518ED3395E0FEFF8C6D8D6EFE
:101730008E6F8F7020090CAC6DAD6E7E007F008EB9
:101740006F8F70300C43E56D456E456F45706039A5
:101750007408B5740C758230C003120F37D0038043
:10176000287410B57423758230C003120F37D0036C
:1017700030010C758278C003120F37D003800A75D0
:101780008258C003120F37D003300925AC6DAD6EFF
:10179000AE6FE570FF30E717C3E49CFCE49DFDE409
:1017A0009EFEE49FFF8C6D8D6E8E6F8F708002C2E7
:1017B00009757700D20D8B00757100C000120F8182
:1017C000D000200D0DE571C4FCE6FD4CF618880331
:1017D0008002A6710577B20DE56D456E456F4570C7
:1017E00070D68803E575700375750120061A20050B
:1017F00017E57704FCC39575500E758220C003125F
:101800000F37D003157580E930090E75822DC0039E
:10181000120F37D00315758024E577602030070E4E
:1018200075822BC003120F37D0031575800F300857
:101830000C758220C003120F37D003157520051ECA
:10184000AC751575C3E5779C50273006047C308055
:10185000027C208C82C003120F37D00380E2C3E5E4
:101860007795755009E575C39577F575800375759E
:10187000008B00AB771577EB6022B20D200D0A08C4
:10188000E6C4540FFB8B7180078603740F5BF57100
:10189000857182C000120F51D00080D7200503024D
:1018A0001321AB751575EB7003021321758220129D
:1018B0000F3780EE8A82120F3702132185728285DC
:1018C000738322AA82BA0A0810990280FB75990DC7
:1018D00010990280FB8A9922FCABF0AA83A982743A
:1018E0009EF582C2D1EC30E716D2D1E9F42401F999
:1018F000EAF43400FAEBF43400FBECF43400FC12AC
:101900000E79020E2AC0E0F84582458345F0700941
:10191000F5F0FBFCFDFE0219D3E823A2F792E0F8F4
:10192000A982AA83D2F7ABF07C007E07C374979894
:10193000404074FF2EFE740A89F0A4F985F0827489
:101940000A8AF0A4FA85F083740A8BF0A4FB74056C
:1019500029F9EA3582FAEB3583FB740035F0FCC3D4
:10196000EC13FCEB13FBEA13FAE913F908EC70EF44
:1019700080BAE8C3947FF88B838EF0E4FBFCFDFE15
:10198000FF08C3E933F9EA33FAE58333F583EB3B28
:10199000D4FBEC3CD4FCED3DD4FDEE3ED4FEEF3F59
:1019A000D4FF602D05F074052BD4FBE43CD4FCE49B
:1019B0003DD4FDE43ED4FEE43FD4FF758204C3EF82
:1019C00013FFEE13FEED13FDEC13FCEB13FBD582BE
:1019D000EDD8AF787DD0E020E704762B8002762D1D
:1019E000087906E7C4540F4430F608B90603762E8A
:1019F00008E7540F4430F60819B902E7764508E5C0
:101A0000F020E704762B8004762DF4040875F00AA4
:101A1000844430F608E5F04430F608E4F690007DA2
:101A200075F04022AA82AB83ACF07D007E008A82F2
:101A30008B838CF0120A27FFA3AA82AB83EF600787
:101A40000DBD00EA0E80E78D828E8322000000002B
:00000001FF
