:100000000200037581861201B9E582600302006F68
:10001000780079007A007B007C007D00EC4D601C4C
:1000200088828983E493A3A882A9838A828B83F040
:10003000A3AA82AB831CBCFFE31D80E07582007520
:1000400083007C007D00EC4D600AE4F0A31CBCFF43
:10005000F51D80F27582007583007C007D00EC4DFB
:10006000600AE4F0A31CBCFFF51D80F21201B81277
:10007000070A80FE1B5B324A005479706520496E86
:1000800074656E64656420446973706C617920697D
:100090006E204C696E65203220283136204368611D
:1000A00072204D6178293A20000A00543A202566D2
:1000B000207300463A202569206B487A00433A2095
:1000C000256920C2B546004C434420342D42697452
:1000D00020546573740048656C6C6F2C20576F72E8
:1000E0006C6421000D45464D3820506572696F647F
:1000F000206D6561737572656D656E742061742025
:1001000070696E2050302E31207573696E672054EF
:10011000696D657220302E0A46696C653A20257338
:100120000A436F6D70696C65643A2025732C202535
:10013000730A0D0A00433A5C4D756E74616B696D0C
:100140005F46696C65735C5363686F6F6C5C536387
:10015000686F6F6C5F576F726B5C456E67696E6539
:100160006572696E675F42616368656C6F72735C2C
:10017000323032335C454C45435F3239315C4C613F
:10018000625F345C454C45433239315F4C616234C7
:100190005C4C6162342E6300466562203236203248
:1001A0003032340031373A30373A3130000D43289D
:1001B000C2B546293D2566002275A7007597DE75F4
:1001C00097AD43FF8075EF0275A71075C12075A725
:1001D0000075A90075A900E5A930E7FB75A90375AD
:1001E000A903E5A930E7FB43A41075E10175E2001E
:1001F00075E340759810858E8E758DE6858D8B53D1
:10020000890F438920D28ED29975820022AA824317
:100210008E407592B87593FF8592948593957591EC
:10022000047B00C3EB9A500BE59130E7FB53917FC1
:100230000B80F075910022AA82AB83BA0004BB0048
:1002400001227582F9C002C00312020D7582F912F3
:10025000020D7582F912020D7582FA12020DD00399
:10026000D0021ABAFF011B80D25389F0438901C220
:100270008C229001F41202377474C0E07400C0E064
:100280007480C0E012097715811581158122D2A5ED
:1002900075822812020DC2A522AA828AE0A2E792E4
:1002A000A1A2E692A2A2E592A3A2E492A4C00212A5
:1002B000028E75822812020DD0028AE0A2E392A17A
:1002C000A2E292A2A2E192A3A2E092A402028EAACA
:1002D00082D2A68A82120299900002020237AA8272
:1002E000C2A68A82120299900005020237C2A59026
:1002F00000141202377582331202DE758233120245
:10030000DE7582321202DE7582281202DE75820CE0
:100310001202DE7582011202DE900014020237AA78
:1003200082AB83ACF07402B523047DC080027D8073
:100330008D82C002C003C0041202DE9000051202CA
:1003400037D004D003D0027D007E00ED2AFFEE3BC3
:10035000F88C018F82888389F0120816FF60208F45
:1003600082C002C003C004C005C0061202CFD0067E
:10037000D005D004D003D0020DBD00CF0E80CC300C
:1003800000248D028E03C3EA9410EB6480948050A5
:1003900015758220C002C0031202CFD003D0020A1A
:1003A000BA00E30B80E02285822685832785F0282A
:1003B000E4F529F52AE52424FFFFE52534FFF87943
:1003C000007A00C3E99FEA648088F063F08095F0CA
:1003D0005059C002C007C000C001120998AB82D0BA
:1003E00001D000D007D002BB0A028003BB0D1DE57F
:1003F000292526FCE52A3527FDAE288C828D838EA3
:10040000F0E41209AB852982852A8322E92526FC9E
:10041000EA3527FDAE288C828D838EF0EB1209AB76
:1004200009B900010A89298A2A8098E5292526FA2E
:10043000E52A3527FBAC288A828B838CF0E41209ED
:10044000AB85248285258322AA82AB83ACF0C002CF
:10045000C003C0047479C0E07400C0E07480C0E0E0
:10046000120977158115811581D004D003D002853A
:100470002B24852C258A828B838CF0C002C003C07C
:10048000041203A774A9C0E07400C0E07480C0E047
:10049000120977158115811581D004D003D002751A
:1004A0002301D2008A828B838CF002031FAA82ABC5
:1004B00083ACF0FDC002C003C004C00574ABC0E053
:1004C0007400C0E07480C0E0742DC0E07400C0E02F
:1004D0007440C0E0120A13E58124F6F58175230209
:1004E000D20090002D75F04002031F120832AA823C
:1004F000AB83C002C00374B3C0E07400C0E074807A
:10050000C0E0743DC0E07400C0E07440C0E0120A76
:1005100013E58124F8F581752302D20090003D7522
:10052000F04002031F120832AA82AB83C002C0034C
:1005300074BDC0E07400C0E07480C0E0744DC0E0E1
:100540007400C0E07440C0E0120A13E58124F8F59D
:1005500081752302D20090004D75F04002031F12F6
:100560000A59AA82AB83ACF0FDC002C003C004C02C
:100570000590000075F0807447120866AA82AB836C
:10058000ACF0FDE58124FCF581855D82855E83C04C
:1005900002C003C004C005120A59AE82AF83A8F09E
:1005A000F9C006C007C000C00190000075F080745B
:1005B00043120866AE82AF83A8F0F9E58124FCF50A
:1005C00081D005D004D003D002C006C007C000C04F
:1005D000018A828B838CF0ED120909AA82AB83AC6D
:1005E000F0FDE58124FCF581855F82856083C00292
:1005F000C003C004C005120A59AE82AF83A8F0F947
:10060000D005D004D003D002C006C007C000C0018E
:100610008A828B838CF0ED120909AA82AB83ACF03D
:10062000FDE58124FCF581C002C003C004C0059033
:10063000F4FC75F0327434120866AA82AB83ACF015
:10064000FDE58124FCF5818A828B838CF0ED22AA62
:1006500082AB8385615D85625E85635F8564608A48
:10066000828B8312055FAA82AB83ACF0FDC002C00F
:1006700003C004C00590000075F080743F120A6644
:10068000AA82AB83ACF0FDE58124FCF5818A828BE4
:10069000838CF0ED22AA82AB83ACF0FDC002C003D4
:1006A000C004C0059051EC75F0B8743F120866AAFA
:1006B00082AB83ACF0FDE58124FCF581E4C0E074FD
:1006C000A0C0E0748CC0E07445C0E08A828B838C4B
:1006D000F0ED120A66AA82AB83ACF0FDE58124FC42
:1006E000F581C002C003C004C00590D4A575F068B0
:1006F0007453120866AA82AB83ACF0FDE58124FC3A
:10070000F5818A828B838CF0ED22120269120272CB
:100710001202ED752301D2009000C775F08012031C
:100720001F752302D2009000D675F08012031F744B
:10073000A4C0E07401C0E07480C0E07498C0E074AC
:1007400001C0E07480C0E07435C0E07401C0E074A2
:1007500080C0E074E4C0E07400C0E07480C0E012C7
:100760000977E58124F4F581758A00758C00C28DC6
:100770007522002081FD3081FDD28C308109108DE1
:100780000280F8052280F4208109108D0280F8058E
:100790002280F4C28CAA227B00858C5D755E008568
:1007A0008A5F7560008A828B8312055F120695AAA4
:1007B00082AB83ACF0FDE4C0E07424C0E07474C08C
:1007C000E07449C0E08A828B838CF0ED120A66AA3D
:1007D00082AB83ACF0FDE58124FCF581C002C0034F
:1007E000C004C005C002C003C004C00574ADC0E0B1
:1007F0007401C0E07480C0E0120977E58124F9F546
:1008000081D005D004D003D0028A828B838CF0ED96
:1008100012052502076820F71430F6148883A88291
:1008200020F507E6A88375830022E280F7E493228F
:10083000E022120B85700AE582458345F0700122A3
:10084000E430D112F4700BE5F0F47006E58330E784
:10085000012290800022700AE5F07006E58320E70F
:100860000122907FFF22120C62BC0003020C01EFF8
:1008700060FA30D502B2D1E583B4FF03020C17E56C
:1008800082B4FF03020C17258340072482400B0229
:100890000C012483145003020C17F582EA8DF0A496
:1008A000A8F0EA8EF0A428F8E435F0F9EB8DF0A476
:1008B00028E935F0F9E433CA8FF0A429F9EA35F0D4
:1008C000FAEBF88EF0A429F9EA35F0FAE433FBEC00
:1008D0008DF0A429F9EA35F0FAE43BFBE88FF0A4A7
:1008E0002AFAEB35F0FBE433CCFD8EF0A42AFAEBC8
:1008F00035F0FBE43CFCED8FF0A42BFBEC35F0FC79
:1009000020E703120C2F020BE0120C627900E58342
:10091000B58202800D5003120C90E583C3958212BC
:100920000CAAE5D0C465D020E117EA2DFAEB3EFB16
:10093000EC3FFC50097401120CAAEC4480FC020B41
:10094000E0C3EA9DFAEB9EFBEC9FFC500FC3E499D9
:10095000F9E49AFAE49BFBE49CFCB2D1120C2F025E
:100960000BE002167985827385837485F075851096
:10097000769009620210CCC008858108E50824FB46
:10098000F576E50824FBF88673088674088675906A
:1009900009621210CCD0082210980280FBAA998A12
:1009A00082C002121679D0028A822220F71030F615
:1009B000118883A88220F507F6A88375830022F2A8
:1009C00080F7F022AA82AB09AC0AAD0B8B828C8334
:1009D0008DF0EA1209AB0509E4B50902050A228582
:1009E000820985830A85F00B850C73850D74850E4D
:1009F00075850F769009C41210CCAA82AB83AC091E
:100A0000AD0AAE0B8C828D838EF0E41209AB8A8224
:100A10008B8322C008858108E50824F8F576E5086F
:100A200024FBF8860908860A08860BE50824F8F8EE
:100A300086730886740886759009C41210CCAA8241
:100A4000AB83AC09AD0AAE0B8C828D838EF0E412C1
:100A500009AB8A828B83D00822AC83AB827A00797F
:100A600000748E021697120C6230D502B2D1BF000C
:100A700009BC0003020C24020C17BC0003020C0189
:100A8000E583B4FF0BE582B4FF03020C24020C01E2
:100A9000E582B4FF03020C17C395835007247F40FF
:100AA0000B020C012480145003020C17C0E0E4CCAC
:100AB000CBCAF98D118E128F13EF54F0C4F5147553
:100AC00083068514F0EB84F582E9C4F9EAC4FAEBF5
:100AD000C4FBEC540FC47803D6FC18EBD6FB18EA21
:100AE000D6FA8582F0EDA4A8F0FD8582F0EEA42868
:100AF000FEE435F0F88582F0EFA428FFE435F0F845
:100B0000E99DF9EA9EFAEB9FFBEC98FCAD11AE1261
:100B1000AF1330E7101582E92DF9EA3EFAEB3FFBFF
:100B2000E43CFC80EDC082D58398C3E933F9EA3315
:100B3000FAEB33FBEC33FCC3E99DEA9EEB9FEC94AC
:100B400000B3E413F9D002D0E0C44AFAD003D0E0F5
:100B5000C44BFBD004D0E0F5F0540FC44CFCD08261
:100B6000158230F40FD3EC13FCEB13FBEA13FAE914
:100B700013F90582E930E70A74012AFAE43BFBE441
:100B80003CFC020BF81216BBC3749E958240397967
:100B900000120CAA30D126E9F42401F582EAF434DB
:100BA00000F583EBF43400F5F0ECF43400700AE562
:100BB00082458345F0700122E430E70F22EC20E704
:100BC0001489828A838BF02230D10AE4F582F5837E
:100BD000F5F074802274FFF582F583F5F0747F22BE
:100BE000B98003EA13B34010EA2401FAE43BFBE4C2
:100BF0003CFC50047C800582BC000EBB000BBA009C
:100C000008E4F5F0F583F58222A2D1E582138CF099
:100C100092F78B838A8222E4F583F58275F080F463
:100C2000A2D11322E4F583F58275F0C0747F227897
:100C300004EC7011E58224F8500AF582E4C9CACBAD
:100C4000FCD8EF22EC7820058220E713D582012220
:100C5000C3E933F9EA33FAEB33FBEC33FCD8EA159A
:100C60008222AA82AB83A2F73392D16002D2F7F537
:100C700082ACF0E58124F9F8E6FD08E6FE0886F08E
:100C800008E6A2F73392D56002D2F7F583AFF022DF
:100C9000E582C583F582A2D133A2D592D11392D534
:100CA000ECCFFCEBCEFBEACDFA226040F825825077
:100CB0000274FFF582E824F8501ECCCBCAF9E4CCCC
:100CC00024F85014CBCAF9E4CB24F8500BCAF9E449
:100CD000CA24F8500379002224086010F8C3EC13EA
:100CE000FCEB13FBEA13FAE913F9D8F122AA827498
:100CF000FEC0E0740CC0E0C065C0668A8222056C4C
:100D0000E4B56C02056D22AA8274302AFA24C6501A
:100D10000A74072AFA3001034302208A82020CED8A
:100D2000E582FAC4540FF582C002120D07D0027496
:100D30000F5AF582020D07AA67AB68AC69AD6AAEBF
:100D40006B757220EE2EFEED235401FF4206EA2A57
:100D5000FAEB33FBEC33FCED33FDC3EE956E40084C
:100D6000EEC3956EFE430201D572D98A678B688CFB
:100D7000698D6A8E6B227883E624D075F00AA4FA16
:100D80007884E624D02AFA78828603BB2D04C3E453
:100D90009AFA756E01C3E464808AF063F08095F07E
:100DA00050297572038A0374F62572401C056EE59E
:100DB00072142477F8E5722477F98704A604772E55
:100DC0001BEBFA6004057280DE8B02EA30E70D78D7
:100DD0007886037879A6037878762E0AE570600A1B
:100DE000E57004FB256EF56E8005300C02056E780B
:100DF000778603E4BB2D0104FB700620070330084F
:100E000002056E300503020EBD300657EB600C750F
:100E1000822DC002120CEDD002801C30070C7582AE
:100E20002BC002120CEDD002800D30080A75822012
:100E3000C002120CEDD00278788604BC2E0C7582AC
:100E400030C002120CEDD002156FAC6F156FC3E508
:100E50006E9C4003020F01758230C002120CEDD06F
:100E60000280E7AC6F156FC3E56E9C500C75822055
:100E7000C002120CEDD00280EA78778604BC2D0CFB
:100E800075822DC002120CEDD002801C30070C754B
:100E9000822BC002120CEDD002800D30080A758240
:100EA00020C002120CEDD00278788604BC2E527558
:100EB0008230C002120CEDD002156F8044EB600E40
:100EC00075822DC002120CEDD002156F8020300704
:100ED0000E75822BC002120CEDD002156F800F3000
:100EE000080C758220C002120CEDD002156F7878C4
:100EF0008603BB2E0C758230C002120CEDD0021599
:100F00006F757201C20EE5722477F88603BB450344
:100F1000020FBEBB2E348A03C3E464808BF063F0FF
:100F20008095F0500F758230C003120CEDD0031B7A
:100F30008B0280E48B02D20EE5707038200C030225
:100F40000FBE75822E120CED8074300E278A03EBD3
:100F500030E71FC3E464808570F063F08095F05043
:100F60000C758230C003120CEDD00315700B8B0290
:100F700080DD8B02300E0EC3E464808570F063F078
:100F80008095F05021E5722477F886038B82C002A9
:100F9000120CEDD002300E0EE5722477F88603BBFA
:100FA0002E0280021570156FC3E464808570F063B3
:100FB000F08095F04003200E050572020F06C3E491
:100FC00064808570F063F08095F0500A758230126D
:100FD0000CED157080E830050FAA6F156FEA6008F8
:100FE000758220120CED80F122E5707003300C0D3B
:100FF00074072570FAE56FC39AF56F8006E56F24D4
:10100000FAF56F75720078778602BA2B0F20070CFD
:1010100078777620200805757201056F200519AADA
:101020006FC3E464808AF063F08095F0500A7582A3
:1010300020120CED156F80E7C20EE5722477F8865A
:1010400002BA00028069BA451F3001027665C3E426
:1010500064808570F063F08095F0500A75823012DC
:101060000CED157080E8D20EC3E5729402E433FAF9
:101070007014EA700EC3E464808570F063F08095AC
:10108000F04003300E16E5722477F886028A821249
:101090000CEDE57224FD50121570800E7402B572CD
:1010A00009300C0675822E120CED057202103A30D2
:1010B0000519AA6FC3E464808AF063F08095F0504C
:1010C0000A758220120CED156F80E72285826585F6
:1010D0008366E4F56CF56DAA73AB74AC758A828B8C
:1010E000838CF0120816FD74012AF573E43BF57445
:1010F0008C75EDFA7003021672BA2502800302168F
:101100006AC205C206C207C208C209C20AC20BC22D
:101110000CC202C203C204756E00756F007570FFC9
:10112000AB73AC74AD758B828C838DF0120816FA9C
:10113000A3AB82AC838B738C748D75BA25078A82BE
:10114000120CED80928A06BE3000402E8A06EE24F4
:10115000C6402774FFB57013E56F75F00AA4FEEA68
:1011600024D02EF56F70BFD20680BBE57075F00AF3
:10117000A4FEEA24D02EF57080ACBA2E0A74FFB516
:1011800070A4757000809F8A06BE6100400E8A06BA
:10119000EE248540075302DFD2018002C201BA204B
:1011A000028075BA2303021227BA2A0302122CBA4C
:1011B0002B02805FBA2D028055BA4202805FBA438B
:1011C00003021271BA44030213ACBA45030213C6F8
:1011D000BA46030213C2BA47030213CABA4903024A
:1011E00013ACBA4C02803BBA4E030213CEBA4F0383
:1011F0000213B3BA5003021345BA5303021295BA4D
:1012000055030213B8BA58030213BD0213F8D205EE
:10121000021126D207021126D208021126D20A0292
:101220001126D20B021126D20C02112674FFB570C2
:1012300020300A0BE57614F88876866F021126E5D1
:101240007624FEF888768606088607188E6F0211C7
:1012500026300A0BE57614F888768670021126E5AA
:101260007624FEF888768606088607188E700211A6
:1012700026300A0AE57614F888768602800FE5762D
:1012800024FEF888768603088604188B028A821268
:101290000CED0213FDE57624FDF8887686030886BA
:1012A0000408860518188B678C688D698B828C837F
:1012B0008DF01217ECAB82AC838B7174FFB57003A9
:1012C00085717020051DC3E571956F5016E56FC3DC
:1012D0009571F56FAB6F156FEB6008758220120C7E
:1012E000ED80F18567828568838569F0120816FBB9
:1012F000FA6029AB701570C3E464808BF063F080F2
:1013000095F050188A82120CEDAB67AC68AD690B92
:10131000BB00010C8B678C688D6980C720050302B8
:1013200013FDC3E571956F40030213FDE56FC3958F
:1013300071F56FAB6F156FEB70030213FD758220B3
:10134000120CED80EEE57624FDF88876860308869B
:101350000408860518188B678C688D69E569FB3071
:10136000E7047A438013EB546060047A50800AEB00
:1013700030E6047A4980027A588A82C002120CED63
:1013800075823A120CED758230120CED758278126E
:101390000CEDD002BA4902800BBA50028006856873
:1013A00082120D20856782120D208051D209756E40
:1013B0000A804A756E088045756E0A8040756E1009
:1013C000803BD2028037D2038033D204802FE5766F
:1013D00024FDF88876860308860408860518188B8D
:1013E000678C688D698B828C838DF0E56C1209ABFC
:1013F000A3E56D1209AB80058A82120CED2002066E
:10140000200303300470E57624FCF8887686030810
:1014100086040886050886061818188B678C688D60
:10142000698E6AE567E568E569E56A8B828C838D7C
:10143000F0EE1216CD74FFB57003757006300427F8
:10144000747F556AFB8B6BE56BEB2BFB8B6BE56954
:1014500030E7067401456BF56BE56B246840067454
:1014600099256B4002D203300306120FE90210D710
:10147000120D760210D7E56E70030210D77B7C3018
:101480000A2BE57614F88876E6FC3395E0FDFEFF3E
:101490008C678D688E698F6A20095EAC677D007EDF
:1014A000007F008C678D688E698F6A804C300B1FBF
:1014B000E57624FCF8887686040886050886060802
:1014C00086071818188C678D688E698F6A802AE5E0
:1014D0007624FEF88876860408860518ED3395E0B4
:1014E000FEFF8C678D688E698F6A20090CAC67AD32
:1014F000687E007F008E698F6A300C43E56745681F
:101500004569456A60397408B56E0C758230C00350
:10151000120CEDD00380287410B56E23758230C094
:1015200003120CEDD00330010C758278C003120C4D
:10153000EDD003800A758258C003120CEDD0033041
:101540000925AC67AD68AE69E56AFF30E717C3E40B
:101550009CFCE49DFDE49EFEE49FFF8C678D688EFD
:10156000698F6A8002C209757100D20D8B00756B9C
:1015700000C000120D37D000200D0DE56BC4FCE655
:10158000FD4CF61888038002A66B0571B20DE56765
:1015900045684569456A70D68803E56F7003756FC5
:1015A0000120061A200517E57104FCC3956F500E43
:1015B000758220C003120CEDD003156F80E930094D
:1015C0000E75822DC003120CEDD003156F8024E53B
:1015D00071602030070E75822BC003120CEDD00312
:1015E000156F800F30080C758220C003120CEDD0EF
:1015F00003156F20051EAC6F156FC3E5719C502756
:101600003006047C3080027C208C82C003120CEDFA
:10161000D00380E2C3E571956F5009E56FC3957102
:10162000F56F8003756F008B00AB711571EB602255
:10163000B20D200D0A08E6C4540FFB8B6B800786A1
:1016400003740F5BF56B856B82C000120D07D00031
:1016500080D72005030210D7AB6F156FEB70030224
:1016600010D7758220120CED80EE8A82120CED02EA
:1016700010D7856C82856D8322AA82BA0A081099D8
:101680000280FB75990D10990280FB8A9922FCABB0
:10169000F0AA83A982749EF582C2D1EC30E716D2FB
:1016A000D1E9F42401F9EAF43400FAEBF43400FB54
:1016B000ECF43400FC120C2F020BE0AA82AB83A2E4
:1016C000F73392D16002D2F7F582ACF022C0E0F895
:1016D0004582458345F07009F5F0FBFCFDFE0217DD
:1016E0009BE823A2F792E0F8A982AA83D2F7ABF095
:1016F0007C007E07C3749798404074FF2EFE740AE6
:1017000089F0A4F985F082740A8AF0A4FA85F0833E
:10171000740A8BF0A4FB740529F9EA3582FAEB35DB
:1017200083FB740035F0FCC3EC13FCEB13FBEA13F2
:10173000FAE913F908EC70EF80BAE8C3947FF88BEC
:10174000838EF0E4FBFCFDFEFF08C3E933F9EA33C6
:10175000FAE58333F583EB3BD4FBEC3CD4FCED3D65
:10176000D4FDEE3ED4FEEF3FD4FF602D05F07405AE
:101770002BD4FBE43CD4FCE43DD4FDE43ED4FEE4B5
:101780003FD4FF758204C3EF13FFEE13FEED13FD8C
:10179000EC13FCEB13FBD582EDD8AF7877D0E020CB
:1017A000E704762B8002762D087906E7C4540F44AF
:1017B00030F608B90603762E08E7540F4430F608D1
:1017C00019B902E7764508E5F020E704762B800496
:1017D000762DF4040875F00A844430F608E5F044E8
:1017E00030F608E4F690007775F04022AA82AB83C9
:1017F000ACF07D007E008A828B838CF0120816FF8D
:10180000A3AA82AB83EF60070DBD00EA0E80E78DCF
:10181000828E832200000000000000000000000013
:00000001FF
