:10000000020003758176120155E582600302006FDC
:10001000780079007A007B007C007D00EC4D601C4C
:1000200088828983E493A3A882A9838A828B83F040
:10003000A3AA82AB831CBCFFE31D80E07582007520
:1000400083007C007D00EC4D600AE4F0A31CBCFF43
:10005000F51D80F27582007583007C007D00EC4DFB
:10006000600AE4F0A31CBCFFF51D80F212015412DB
:10007000090E80FE1B5B324A005479706520496E80
:1000800074656E64656420446973706C617920697D
:100090006E204C696E65203220283136204368611D
:1000A00072204D6178293A20000A00543A20252E0A
:1000B0003366207300463A20252E3366206B487A3B
:1000C00000433A20252E3366206E4600523A202502
:1000D0002E3366206B4F686D730020202020202077
:1000E00020202020202020202020000D4D6F64653E
:1000F0003A2025640D0A004552524F52203A2053AF
:100100004D414C4C2043004552524F52203A204C16
:10011000415247452043004552524F52203A204C0D
:10012000415247452052000D52286B4F686D2920DF
:100130003D2025660D0A000D46286B487A29203D92
:100140002025660D0A000D43286E4629203D2025F6
:10015000660D0A002275A7007597DE7597AD43FFFF
:100160008075EF0675A71075C12075A70075A900E9
:1001700075A900E5A930E7FB75A90375A903E5A9F1
:1001800030E7FB43A41075E10175E20075E34075AB
:100190009810858E8E758DE6858D8B53890F4389DA
:1001A00020D28ED2997582002275A700C2EF75B257
:1001B0008075BC2075B91E75E80075DF3F75B3000A
:1001C000D2EF22AA828511F005F07401800225E0A9
:1001D000D5F0FBFB75A720BA0002800ABA010280A5
:1001E0000FBA021E8014EBF4FA52F1EB42D48012E3
:1001F000EBF4FA52F2EB42D58008EBF4FA52F3EB4F
:1002000042CC75A700228582BBC2EDD2EC30EDFD59
:1002100085BD8285BE8322120206120D11AA82AB11
:1002200083ACF0FDC002C003C004C005906C8B75A8
:10023000F0537440120D7DAA82AB83ACF0FDE581D2
:1002400024FCF581E4C0E074FCC0E0747FC0E0747D
:1002500046C0E08A828B838CF0ED120F88AA82ABB5
:1002600083ACF0FDE58124FCF5818A828B838CF0E0
:10027000ED22AA82438E407592B87593FF859294C1
:100280008593957591047B00C3EB9A500BE59130F3
:10029000E7FB53917F0B80F075910022AA82AB831C
:1002A0007C007D00C3EC9AED9B502B7E00BE0400C9
:1002B000501D7582FAC002C003C004C005C00612FA
:1002C0000272D006D005D004D003D0020E80DE0C1E
:1002D000BC00D10D80CE225389F0438901C28C220B
:1002E0009001F412029C7474C0E07400C0E0748049
:1002F000C0E0120E8E15811581158122D2A0758263
:1003000028120272C2A022AA828AE0A2E79290A2D8
:10031000E69291A2E59292A2E49293C0021202FCAC
:10032000758228120272D0028AE0A2E39290A2E2C1
:100330009291A2E19292A2E092930202FCAA82D24E
:10034000978A8212030790000202029CAA82C29737
:100350008A8212030790000502029CC2A09000143A
:1003600012029C75823312034C75823312034C7552
:10037000823212034C75822812034C75820C1203D0
:100380004C75820112034C90001402029CAA82ABAD
:1003900083ACF07402B533047DC080027D808D8211
:1003A000C002C003C00412034C90000512029CD08E
:1003B00004D003D0027D007E00ED2AFFEE3BF88CD6
:1003C000018F82888389F0120CF5FF60208F82C034
:1003D00002C003C004C005C00612033DD006D0050C
:1003E000D004D003D0020DBD00CF0E80CC3000244D
:1003F0008D028E03C3EA9410EB64809480501575CF
:100400008220C002C00312033DD003D0020ABA000A
:10041000E30B80E02285823685833785F038E4F56A
:1004200039F53AE53424FFFFE53534FFF879007AF1
:1004300000C3E99FEA648088F063F08095F050592A
:10044000C002C007C000C001120EAFAB82D001D005
:1004500000D007D002BB0A028003BB0D1DE5392581
:1004600036FCE53A3537FDAE388C828D838EF0E46C
:10047000120EC2853982853A8322E92536FCEA3597
:1004800037FDAE388C828D838EF0EB120EC209B927
:1004900000010A89398A3A8098E5392536FAE53A21
:1004A0003537FBAC388A828B838CF0E4120EC28520
:1004B000348285358322AA82AB83ACF0C002C003AC
:1004C000C0047479C0E07400C0E07480C0E0120E13
:1004D0008E158115811581D004D003D002853B345F
:1004E000853C358A828B838CF0C002C003C0041225
:1004F000041574A9C0E07400C0E07480C0E0120E5E
:100500008E158115811581D004D003D00275330179
:10051000D2008A828B838CF002038DAA82AB83ACDB
:10052000F0FDC002C003C004C00574ABC0E074009D
:10053000C0E07480C0E07423C0E07400C0E0744088
:10054000C0E0120F2AE58124F6F581753302D2004E
:1005500090002375F04002038DAA82AB83ACF0FDBE
:10056000C002C003C004C00574B5C0E07400C0E0A0
:100570007480C0E07423C0E07400C0E07440C0E048
:10058000120F2AE58124F6F581753301D20090001F
:100590002375F04002038DAA82AB83ACF0FDC0024C
:1005A000C003C004C00574C1C0E07400C0E0748022
:1005B000C0E07423C0E07400C0E07440C0E0120FDB
:1005C0002AE58124F6F581753302D2009000237567
:1005D000F04002038DAA82AB83ACF0FDC002C003E1
:1005E000C004C00574CCC0E07400C0E07480C0E0FA
:1005F0007423C0E07400C0E07440C0E0120F2AE52C
:100600008124F6F581753301D20090002375F04006
:1006100012038D753302D2009000DA75F080020368
:100620008D120F7BAA82AB83ACF0FDC002C003C069
:1006300004C00590000075F0807447120D7DAA82F9
:10064000AB83ACF0FDE58124FCF581853D82853EE0
:1006500083C002C003C004C005120F7BAE82AF830B
:10066000A8F0F9C006C007C000C00190000075F0F6
:10067000807443120D7DAE82AF83A8F0F9E581242A
:10068000FCF581D005D004D003D002C006C007C05D
:1006900000C0018A828B838CF0ED120E20AA82ABFF
:1006A00083ACF0FDE58124FCF581853F82854083A4
:1006B000C002C003C004C005120F7BAE82AF83A886
:1006C000F0F9D005D004D003D002C006C007C000A6
:1006D000C0018A828B838CF0ED120E20AA82AB833C
:1006E000ACF0FDE58124FCF581C002C003C004C06C
:1006F0000590F4FC75F0327434120D7DAA82AB8340
:10070000ACF0FDE58124FCF5818A828B838CF0EDD1
:1007100022AA82AB83ACF0FDC002C003C004C005B6
:1007200090000075F080743F120F88AA82AB83ACF2
:10073000F0FDE58124FCF5818A828B838CF0ED222B
:10074000AA82AB83ACF0FDC002C003C004C0059018
:1007500051EC75F0B8743F120D7DAA82AB83ACF0FA
:10076000FDE58124FCF581E4C0E074A0C0E0748C58
:10077000C0E07445C0E08A828B838CF0ED120F8854
:10078000AA82AB83ACF0FDE58124FCF581C002C0F8
:1007900003C004C005906B2875F06E744E120D7D79
:1007A000AA82AB83ACF0FDE58124FCF5818A828BC3
:1007B000838CF0ED22AA82AB83ACF0FDC002C003B3
:1007C000C004C005C002C003C004C00590999A755A
:1007D000F0997440120F70AE82AF83A8F0F9E581F2
:1007E00024FCF5817471C0E0743DC0E074C5C0E0C4
:1007F0007442C0E08E828F8388F0E9120F88AE8247
:10080000AF83A8F0F9E58124FCF581C006C007C0DC
:1008100000C00190000075F07A7444120D7DAE8224
:10082000AF83A8F0F9E58124FCF581E4C0E07424ED
:10083000C0E07474C0E07449C0E08E828F8388F099
:10084000E9120F88AE82AF83A8F0F9E58124FCF5A8
:1008500081D005D004D003D002C006C007C000C0BC
:10086000018A828B838CF0ED120F88AA82AB83AC55
:10087000F0FDE58124FCF581E4C0E0C0E0747AC0BD
:10088000E07444C0E08A828B838CF0ED120F88AA5A
:1008900082AB83ACF0FDE58124FCF5818A828B83F9
:1008A0008CF0ED22AA82AB838A048B0520B11890CC
:1008B0000032C002C003C004C00512029CD005D0A3
:1008C00004D003D00280058A828B832220B13A3083
:1008D000B1FDEC4DB40100E433FC7D00C002C00367
:1008E000C004C00574EBC0E07400C0E07480C0E0D8
:1008F000120E8EE58124FBF581D003D002EA4B7005
:100900000490000122900000228A828B8322E4F569
:1009100041F542F553F5541202D71202E012035B7F
:100920007511017582021201C31201A985418285E8
:1009300042831208A4858241858342758200120297
:100940001775820E12021785824385834485F04510
:10095000F5461207B585824785834885F049F54AF3
:10096000758A00758C00C28D7522002081FD308152
:10097000FDD28C308109108D0280F8052280F42090
:100980008109108D0280F8052280F4C28CA822799A
:1009900000858C3D753E00858A3F754000888289C0
:1009A0008312062185824B85834C85F04DF54E12CE
:1009B0000711AE82AF83ACF0FD854B82854C8385F9
:1009C0004DF0E54EC004C005C006C00712074085C3
:1009D000824F85835085F051F552D007D006D0055F
:1009E000D0047401B54108E4B5420474018001E407
:1009F000F8605FC004C005C006C007C000748BC0AB
:100A0000E0746CC0E07453C0E07440C0E085438281
:100A10008544838545F0E546120D4DA982E5812484
:100A2000FCF581D000D007D006D005D004E96022C3
:100A30008547828548838549F0E54AC004C005C0E2
:100A400006C007C0001205D5D000D007D006D005DB
:100A5000D004E54145426003020B85C004C005C0D7
:100A600006C007C000E4C0E0C0E07448C0E07443C2
:100A7000C0E08E828F838CF0ED120D1DA982E5817E
:100A800024FCF581D000D007D006D005D004E96061
:100A90003FC004C005C006C007C000C001E4C0E0FC
:100AA0007450C0E074C3C0E07448C0E08E828F838D
:100AB0008CF0ED120D4DAA82E58124FCF581D00168
:100AC000D000D007D006D005D004EA6003020B8521
:100AD000E4F553F554C004C005C006C007C000C00B
:100AE00001E4C0E07450C0E074C3C0E07448C0E0EA
:100AF0008E828F838CF0ED120D4DAA82E58124FC4D
:100B0000F581D001D000D007D006D005D004EA701E
:100B100024753301D2009000F775F080C004C00541
:100B2000C006C007C00012038DD000D007D006D089
:100B300005D0048025E97022753301D200900107A9
:100B400075F080C004C005C006C007C00012038D48
:100B5000D000D007D006D005D004753302D2009063
:100B600000DA75F080C004C005C006C007C00012DE
:100B7000038D90007D12029CD000D007D006D005D6
:100B8000D004020C09E86079C004C005C006C007A3
:100B9000C000748BC0E0746CC0E07453C0E074405B
:100BA000C0E08543828544838545F0E546120D4DBE
:100BB000AA82E58124FCF581D000D007D006D005BB
:100BC000D004EA703CF553F554753301D20090011E
:100BD0001775F080C004C005C006C007C00012032E
:100BE0008D753302D2009000DA75F08012038D907B
:100BF00000FA12029CD000D007D006D005D00480A5
:100C0000080553E4B553020554C3E553940AE5546B
:100C100064809480500302092C9000C8C004C00571
:100C2000C006C007C00012029CD000D007D006D07A
:100C300005D004E8602DC004C005C006C007C04749
:100C4000C048C049C04A7427C0E07401C0E0748045
:100C5000C0E0120E8EE58124F9F581D007D006D0D0
:100C600005D004E4C0E0C0E0747AC0E07444C0E0A1
:100C70008E828F838CF0ED120F88AA82AB83ACF04A
:100C8000FDE58124FCF581C002C003C004C005C09D
:100C900002C003C004C0057437C0E07401C0E07432
:100CA00080C0E0120E8EE58124F9F581C04FC0505E
:100CB000C051C0527446C0E07401C0E07480C0E00E
:100CC000120E8EE58124F9F581D005D004D003D031
:100CD00002E5414542600302092C8A828B838CF035
:100CE000ED120559854F828550838551F0E55212EA
:100CF000059702092C20F71430F6148883A8822067
:100D0000F507E6A88375830022E280F7E49322E0EA
:100D100022E4AC83AB82FAF9748E0210B0FFA88192
:100D200018181210D8D2D133E6400730E70B75827D
:100D3000012220E70675820022C2D11210BAE970A2
:100D400003F5822230D101B3E433F58222FFA8817A
:100D500018181210D8D2D133E6400730E70B75824D
:100D6000002220E70675820122C2D11210BAE97072
:100D700003F5822220D101B3E433F58222121185DA
:100D8000BC0003021124EF60FA30D502B2D1E58332
:100D9000B4FF0302113AE582B4FF0302113A25833E
:100DA00040072482400B02112424831450030211B3
:100DB0003AF582EA8DF0A4A8F0EA8EF0A428F8E4CF
:100DC00035F0F9EB8DF0A428E935F0F9E433CA8F5A
:100DD000F0A429F9EA35F0FAEBF88EF0A429F9EA43
:100DE00035F0FAE433FBEC8DF0A429F9EA35F0FA9A
:100DF000E43BFBE88FF0A42AFAEB35F0FBE433CCBC
:100E0000FD8EF0A42AFAEB35F0FBE43CFCED8FF00C
:100E1000A42BFBEC35F0FC20E70312115202110366
:100E20001211857900E583B58202800D50031211FD
:100E3000B3E583C395821211CDE5D0C465D020E11E
:100E400017EA2DFAEB3EFBEC3FFC5009740112113E
:100E5000CDEC4480FC021103C3EA9DFAEB9EFBEC4F
:100E60009FFC500FC3E499F9E49AFAE49BFBE49CDD
:100E7000FCB2D1121152021103021B9C85826385C0
:100E8000836485F065851066900E790215EFC008C1
:100E9000858108E50824FBF566E50824FBF88663F0
:100EA000088664088665900E791215EFD008221026
:100EB000980280FBAA998A82C002121B9CD0028AE7
:100EC000822220F71030F6118883A88220F507F6D9
:100ED000A88375830022F280F7F022AA82AB09ACC6
:100EE0000AAD0B8B828C838DF0EA120EC20509E4E9
:100EF000B50902050A2285820985830A85F00B85DA
:100F00000C63850D64850E65850F66900EDB1215EA
:100F1000EFAA82AB83AC09AD0AAE0B8C828D838EB7
:100F2000F0E4120EC28A828B8322C008858108E514
:100F30000824F8F566E50824FBF8860908860A08FF
:100F4000860BE50824F8F8866308866408866590B1
:100F50000EDB1215EFAA82AB83AC09AD0AAE0B8C87
:100F6000828D838EF0E4120EC28A828B83D0082297
:100F7000A8811818C6B2E7C6020E20AC83AB827AED
:100F8000007900748E021BBA12118530D502B2D1DD
:100F9000BF0009BC000302114702113ABC00030262
:100FA0001124E583B4FF0BE582B4FF03021147026D
:100FB0001124E582B4FF0302113AC395835007243C
:100FC0007F400B021124248014500302113AC0E028
:100FD000E4CCCBCAF98D118E128F13EF54F0C4F507
:100FE000147583068514F0EB84F582E9C4F9EAC42C
:100FF000FAEBC4FBEC540FC47803D6FC18EBD6FB19
:1010000018EAD6FA8582F0EDA4A8F0FD8582F0EE0C
:10101000A428FEE435F0F88582F0EFA428FFE4353B
:10102000F0F8E99DF9EA9EFAEB9FFBEC98FCAD1114
:10103000AE12AF1330E7101582E92DF9EA3EFAEB54
:101040003FFBE43CFC80EDC082D58398C3E933F9D3
:10105000EA33FAEB33FBEC33FCC3E99DEA9EEB9FEA
:10106000EC9400B3E413F9D002D0E0C44AFAD00300
:10107000D0E0C44BFBD004D0E0F5F0540FC44CFCDE
:10108000D082158230F40FD3EC13FCEB13FBEA1380
:10109000FAE913F90582E930E70A74012AFAE43B18
:1010A000FBE43CFC02111BFCABF0AA83A982749EFA
:1010B000C2D1F5821211520211037901AA82E68F80
:1010C00082B5821318E6B5F00E18E6B5830918E666
:1010D0008A82B58202790022B4800FE5F0700AE5B9
:1010E000837006E58270027F00EFB6801518B600A7
:1010F0001018B6000B18B60006080808760022087B
:10110000080822B98003EA13B34010EA2401FAE484
:101110003BFBE43CFC50047C800582BC000EBB0021
:101120000BBA0008E4F5F0F583F58222A2D1E5823E
:10113000138CF092F78B838A8222E4F583F5827513
:10114000F080F4A2D11322E4F583F58275F0C07427
:101150007F227804EC7011E58224F8500AF582E4CD
:10116000C9CACBFCD8EF22EC7820058220E713D542
:10117000820122C3E933F9EA33FAEB33FBEC33FCA7
:10118000D8EA158222AA82AB83A2F73392D16002F9
:10119000D2F7F582ACF0E58124F9F8E6FD08E6FE29
:1011A0000886F008E6A2F73392D56002D2F7F583FD
:1011B000AFF022E582C583F582A2D133A2D592D1C8
:1011C0001392D5ECCFFCEBCEFBEACDFA226040F8CF
:1011D0002582500274FFF582E824F8501ECCCBCA59
:1011E000F9E4CC24F85014CBCAF9E4CB24F8500B22
:1011F000CAF9E4CA24F8500379002224086010F8E0
:10120000C3EC13FCEB13FBEA13FAE913F9D8F12250
:10121000AA827421C0E07412C0E0C055C0568A8210
:1012200022055CE4B55C02055D22AA8274302AFACC
:1012300024C6500A74072AFA3001034302208A8226
:10124000021210E582FAC4540FF582C00212122A6B
:10125000D002740F5AF58202122AAA57AB58AC5921
:10126000AD5AAE5B756220EE2EFEED235401FF42B7
:1012700006EA2AFAEB33FBEC33FCED33FDC3EE95C3
:101280005E4008EEC3955EFE430201D562D98A57DF
:101290008B588C598D5A8E5B227873E624D075F06A
:1012A0000AA4FA7874E624D02AFA78728603BB2D51
:1012B00004C3E49AFA755E01C3E464808AF063F0C3
:1012C0008095F050297562038A0374F62562401CEC
:1012D000055EE562142467F8E5622467F98704A6D1
:1012E00004772E1BEBFA6004056280DE8B02EA3085
:1012F000E70D786886037869A6037868762E0AE594
:1013000060600AE56004FB255EF55E8005300C0236
:10131000055E78678603E4BB2D0104FB7006200799
:1013200003300802055E3005030213E0300657EB78
:10133000600C75822DC002121210D002801C300782
:101340000C75822BC002121210D002800D30080AD8
:10135000758220C002121210D00278688604BC2E5A
:101360000C758230C002121210D002155FAC5F15EE
:101370005FC3E55E9C4003021424758230C00212F4
:101380001210D00280E7AC5F155FC3E55E9C500C85
:10139000758220C002121210D00280EA786786049B
:1013A000BC2D0C75822DC002121210D002801C3090
:1013B000070C75822BC002121210D002800D30086B
:1013C0000A758220C002121210D00278688604BC0E
:1013D0002E52758230C002121210D002155F804466
:1013E000EB600E75822DC002121210D002155F80C4
:1013F0002030070E75822BC002121210D002155F2A
:10140000800F30080C758220C002121210D0021515
:101410005F78688603BB2E0C758230C002121210F2
:10142000D002155F756201C20EE5622467F886037B
:10143000BB45030214E1BB2E348A03C3E464808BF2
:10144000F063F08095F0500F758230C003121210D7
:10145000D0031B8B0280E48B02D20EE56070382033
:101460000C030214E175822E1212108074300E27C4
:101470008A03EB30E71FC3E464808560F063F0808B
:1014800095F0500C758230C003121210D003156015
:101490000B8B0280DD8B02300E0EC3E4648085600E
:1014A000F063F08095F05021E5622467F886038BA5
:1014B00082C002121210D002300E0EE5622467F8CC
:1014C0008603BB2E0280021560155FC3E46480852D
:1014D00060F063F08095F04003200E050562021471
:1014E00029C3E464808560F063F08095F0500A754C
:1014F0008230121210156080E830050FAA5F155F68
:10150000EA600875822012121080F122E5607003F3
:10151000300C0D74072560FAE55FC39AF55F80060D
:10152000E55F24FAF55F75620078678602BA2B0FD3
:1015300020070C78677620200805756201055F207A
:101540000519AA5FC3E464808AF063F08095F050C7
:101550000A758220121210155F80E7C20EE5622420
:1015600067F88602BA00028069BA451F3001027628
:1015700065C3E464808560F063F08095F0500A757F
:101580008230121210156080E8D20EC3E562940218
:10159000E433FA7014EA700EC3E464808560F0638B
:1015A000F08095F04003300E16E5622467F886025D
:1015B0008A82121210E56224FD50121560800E74AA
:1015C00002B56209300C0675822E121210056202F5
:1015D000155D300519AA5FC3E464808AF063F0806A
:1015E00095F0500A758220121210155F80E722854F
:1015F0008255858356E4F55CF55DAA63AB64AC6502
:101600008A828B838CF0120CF5FD74012AF563E459
:101610003BF5648C65EDFA7003021B95BA250280D8
:1016200003021B8DC205C206C207C208C209C20A54
:10163000C20BC20CC202C203C204755E00755F0019
:101640007560FFAB63AC64AD658B828C838DF012EB
:101650000CF5FAA3AB82AC838B638C648D65BA25E1
:10166000078A8212121080928A06BE3000402E8AAB
:1016700006EE24C6402774FFB56013E55F75F00AD7
:10168000A4FEEA24D02EF55F70BFD20680BBE560D1
:1016900075F00AA4FEEA24D02EF56080ACBA2E0ABA
:1016A00074FFB560A4756000809F8A06BE6100402B
:1016B0000E8A06EE248540075302DFD2018002C263
:1016C00001BA20028075BA230302174ABA2A03021C
:1016D000174FBA2B02805FBA2D028055BA420280A2
:1016E0005FBA4303021794BA44030218CFBA450302
:1016F0000218E9BA46030218E5BA47030218EDBA20
:1017000049030218CFBA4C02803BBA4E030218F1CB
:10171000BA4F030218D6BA5003021868BA5303022C
:1017200017B8BA55030218DBBA58030218E00219B9
:101730001BD205021649D207021649D208021649E1
:10174000D20A021649D20B021649D20C021649746B
:10175000FFB56020300A0BE56614F88866865F02E4
:101760001649E56624FEF888668606088607188E00
:101770005F021649300A0BE56614F8886686600237
:101780001649E56624FEF888668606088607188EE0
:1017900060021649300A0AE56614F88866860280F7
:1017A0000FE56624FEF888668603088604188B0217
:1017B0008A82121210021920E56624FDF8886686D6
:1017C0000308860408860518188B578C588D598B8A
:1017D000828C838DF0121CFDAB82AC838B6174FF15
:1017E000B5600385616020051DC3E561955F5016F6
:1017F000E55FC39561F55FAB5F155FEB60087582D0
:101800002012121080F18557828558838559F01275
:101810000CF5FBFA6029AB601560C3E464808BF0C3
:1018200063F08095F050188A82121210AB57AC58B2
:10183000AD590BBB00010C8B578C588D5980C720BC
:101840000503021920C3E561955F4003021920E5F5
:101850005FC39561F55FAB5F155FEB700302192005
:1018600075822012121080EEE56624FDF8886686E7
:101870000308860408860518188B578C588D59E57F
:1018800059FB30E7047A438013EB546060047A50CC
:10189000800AEB30E6047A4980027A588A82C002D4
:1018A00012121075823A12121075823012121075CF
:1018B0008278121210D002BA4902800BBA5002800C
:1018C000068558821212438557821212438051D2E4
:1018D00009755E0A804A755E088045755E0A80401B
:1018E000755E10803BD2028037D2038033D20480F1
:1018F0002FE56624FDF888668603088604088605B9
:1019000018188B578C588D598B828C838DF0E55C21
:10191000120EC2A3E55D120EC280058A8212121059
:10192000200206200303300470E56624FCF8886674
:1019300086030886040886050886061818188B573B
:101940008C588D598E5AE557E558E559E55A8B82E2
:101950008C838DF0EE121BDE74FFB560037560069C
:10196000300427747F555AFB8B5BE55BEB2BFB8BBD
:101970005BE55930E7067401455BF55BE55B246880
:1019800040067499255B4002D20330030612150C01
:101990000215FA1212990215FAE55E70030215FAA1
:1019A0007B6C300A2BE56614F88866E6FC3395E01C
:1019B000FDFEFF8C578D588E598F5A20095EAC570B
:1019C0007D007E007F008C578D588E598F5A804C39
:1019D000300B1FE56624FCF8886686040886050837
:1019E00086060886071818188C578D588E598F5AF6
:1019F000802AE56624FEF88866860408860518EDC8
:101A00003395E0FEFF8C578D588E598F5A20090C64
:101A1000AC57AD587E007F008E598F5A300C43E58D
:101A20005745584559455A60397408B55E0C75825A
:101A300030C003121210D00380287410B55E2375D5
:101A40008230C003121210D00330010C758278C0AE
:101A500003121210D003800A758258C003121210AC
:101A6000D003300925AC57AD58AE59E55AFF30E7E1
:101A700017C3E49CFCE49DFDE49EFEE49FFF8C57AD
:101A80008D588E598F5A8002C209756100D20D8B14
:101A900000755B00C00012125AD000200D0DE55BEE
:101AA000C4FCE6FD4CF61888038002A65B0561B213
:101AB0000DE55745584559455A70D68803E55F707E
:101AC00003755F0120061A200517E56104FCC39524
:101AD0005F500E758220C003121210D003155F8074
:101AE000E930090E75822DC003121210D003155F64
:101AF0008024E561602030070E75822BC00312122E
:101B000010D003155F800F30080C758220C00312BF
:101B10001210D003155F20051EAC5F155FC3E56191
:101B20009C50273006047C3080027C208C82C003CD
:101B3000121210D00380E2C3E561955F5009E55FA2
:101B4000C39561F55F8003755F008B00AB61156124
:101B5000EB6022B20D200D0A08E6C4540FFB8B5B2C
:101B600080078603740F5BF55B855B82C0001212F1
:101B70002AD00080D72005030215FAAB5F155FEB72
:101B800070030215FA75822012121080EE8A8212FA
:101B900012100215FA855C82855D8322AA82BA0A38
:101BA0000810990280FB75990D10990280FB8A99A3
:101BB00022FCABF0AA83A982749EF582C2D1EC30DC
:101BC000E716D2D1E9F42401F9EAF43400FAEBF48F
:101BD0003400FBECF43400FC121152021103C0E09B
:101BE000F84582458345F07009F5F0FBFCFDFE02E7
:101BF0001CACE823A2F792E0F8A982AA83D2F7AB43
:101C0000F07C007E07C3749798404074FF2EFE74EA
:101C10000A89F0A4F985F082740A8AF0A4FA85F0A2
:101C200083740A8BF0A4FB740529F9EA3582FAEB78
:101C30003583FB740035F0FCC3EC13FCEB13FBEABB
:101C400013FAE913F908EC70EF80BAE8C3947FF84F
:101C50008B838EF0E4FBFCFDFEFF08C3E933F9EA59
:101C600033FAE58333F583EB3BD4FBEC3CD4FCED5A
:101C70003DD4FDEE3ED4FEEF3FD4FF602D05F07461
:101C8000052BD4FBE43CD4FCE43DD4FDE43ED4FE7F
:101C9000E43FD4FF758204C3EF13FFEE13FEED1390
:101CA000FDEC13FCEB13FBD582EDD8AF7867D0E0E9
:101CB00020E704762B8002762D087906E7C4540FBE
:101CC0004430F608B90603762E08E7540F4430F680
:101CD0000819B902E7764508E5F020E704762B807D
:101CE00004762DF4040875F00A844430F608E5F013
:101CF0004430F608E4F690006775F04022AA82AB03
:101D000083ACF07D007E008A828B838CF0120CF510
:101D1000FFA3AA82AB83EF60070DBD00EA0E80E748
:101D20008D828E8322000000000000000000000071
:00000001FF
