:10000000020003758188120118E582600302006F07
:10001000780079007A007B007C007D00EC4D601C4C
:1000200088828983E493A3A882A9838A828B83F040
:10003000A3AA82AB831CBCFFE31D80E07582007520
:1000400083007C007D00EC4D600AE4F0A31CBCFF43
:10005000F51D80F27582007583007C007D00EC4DFB
:10006000600AE4F0A31CBCFFF51D80F21201171218
:10007000065A80FE1B5B324A005479706520496E37
:1000800074656E64656420446973706C617920697D
:100090006E204C696E65203220283136204368611D
:1000A00072204D6178293A20000A00543A20252E0A
:1000B0003366207300463A20252E3366206B487A3B
:1000C00000433A20252E3366206E46004552524F9B
:1000D00052203A204C4F572043004552524F522055
:1000E0003A20484947482043002020202020202053
:1000F000202020202020202020000A46286B487A3B
:1001000029203D2025660D0A000D43286E46292032
:100110003D2025660D0A002275A7007597DE7597AC
:10012000AD43FF8075EF0275A71075C12075A7005C
:1001300075A90075A900E5A930E7FB75A90375A9A4
:1001400003E5A930E7FB43A41075E10175E20075F2
:10015000E340759810858E8E758DE6858D8B53895D
:100160000F438920D28ED29975820022AA82438EB3
:10017000407592B87593FF85929485939575910417
:100180007B00C3EB9A500BE59130E7FB53917F0B5B
:1001900080F075910022AA82AB83BA0004BB0001F3
:1001A000227582F9C002C00312016C7582F9120136
:1001B0006C7582F912016C7582FA12016CD003D051
:1001C000021ABAFF011B80D25389F0438901C28C05
:1001D000229001F41201967474C0E07400C0E074BF
:1001E00080C0E0120A4D15811581158122D2A075BB
:1001F000822812016CC2A022AA828AE0A2E7929011
:10020000A2E69291A2E59292A2E49293C002120118
:10021000ED75822812016CD0028AE0A2E39290A2CE
:10022000E29291A2E19292A2E092930201EDAA825F
:10023000D2978A821201F8900002020196AA82C225
:10024000978A821201F8900005020196C2A09000E0
:100250001412019675823312023D75823312023DEB
:1002600075823212023D75822812023D75820C128F
:10027000023D75820112023D900014020196AA828D
:10028000AB83ACF07402B523047DC080027D808D09
:1002900082C002C003C00412023D90000512019604
:1002A000D004D003D0027D007E00ED2AFFEE3BF8A3
:1002B0008C018F82888389F01208C0FF60208F82B2
:1002C000C002C003C004C005C00612022ED006D072
:1002D00005D004D003D0020DBD00CF0E80CC30007D
:1002E000248D028E03C3EA9410EB64809480501531
:1002F000758220C002C00312022ED003D0020ABAB7
:1003000000E30B80E02285822685832785F028E4A0
:10031000F529F52AE52424FFFFE52534FFF87900C7
:100320007A00C3E99FEA648088F063F08095F0501A
:1003300059C002C007C000C001120A6EAB82D001D2
:10034000D000D007D002BB0A028003BB0D1DE529F7
:100350002526FCE52A3527FDAE288C828D838EF07C
:10036000E4120A81852982852A8322E92526FCEA6E
:100370003527FDAE288C828D838EF0EB120A810921
:10038000B900010A89298A2A8098E5292526FAE5F3
:100390002A3527FBAC288A828B838CF0E4120A81F1
:1003A00085248285258322AA82AB83ACF0C002C05B
:1003B00003C0047479C0E07400C0E07480C0E0122F
:1003C0000A4D158115811581D004D003D002852BEB
:1003D00024852C258A828B838CF0C002C003C00444
:1003E00012030674A9C0E07400C0E07480C0E0127B
:1003F0000A4D158115811581D004D003D0027523D3
:1004000001D2008A828B838CF002027EAA82AB83A7
:10041000ACF0FDC002C003C004C00574ABC0E07402
:1004200000C0E07480C0E0742DC0E07400C0E074CF
:1004300040C0E0120AE9E58124F6F581752302D275
:100440000090002D75F04002027EAA82AB83ACF0D2
:10045000FDC002C003C004C00574B5C0E07400C094
:10046000E07480C0E0743DC0E07400C0E07440C03F
:10047000E0120AE9E58124F6F581752301D20090A6
:10048000003D75F04002027EAA82AB83ACF0FDC055
:1004900002C003C004C00574C1C0E07400C0E074B1
:1004A00080C0E0744DC0E07400C0E07440C0E01251
:1004B0000AE9E58124F6F581752302D20090004D0A
:1004C00075F04002027E120B2FAA82AB83ACF0FDC6
:1004D000C002C003C004C00590000075F0807447DE
:1004E00012093CAA82AB83ACF0FDE58124FCF581C6
:1004F000855D82855E83C002C003C004C005120B07
:100500002FAE82AF83A8F0F9C006C007C000C001BB
:1005100090000075F080744312093CAE82AF83A84E
:10052000F0F9E58124FCF581D005D004D003D00298
:10053000C006C007C000C0018A828B838CF0ED1218
:1005400009DFAA82AB83ACF0FDE58124FCF581854F
:100550005F82856083C002C003C004C005120B2FF8
:10056000AE82AF83A8F0F9D005D004D003D002C08A
:1005700006C007C000C0018A828B838CF0ED12098F
:10058000DFAA82AB83ACF0FDE58124FCF581C002DB
:10059000C003C004C00590F4FC75F0327434120935
:1005A0003CAA82AB83ACF0FDE58124FCF5818A8214
:1005B0008B838CF0ED22AA82AB83ACF0FDC002C02D
:1005C00003C004C00590000075F080743F120B3C1E
:1005D000AA82AB83ACF0FDE58124FCF5818A828B95
:1005E000838CF0ED22AA82AB83ACF0FDC002C00385
:1005F000C004C0059051EC75F0B8743F12093CAAD4
:1006000082AB83ACF0FDE58124FCF581E4C0E074AD
:10061000A0C0E0748CC0E07445C0E08A828B838CFB
:10062000F0ED120B3CAA82AB83ACF0FDE58124FC1B
:10063000F581C002C003C004C005906B2875F06E40
:10064000744E12093CAA82AB83ACF0FDE58124FC18
:10065000F5818A828B838CF0ED22E4F565F56612D4
:1006600001C81201D112024C758A00758C00C28D2E
:1006700075220020B3FD30B3FDD28C30B309108D4C
:100680000280F8052280F420B309108D0280F8055D
:100690002280F4C28CAC227D00858C5D755E008565
:1006A0008A5F7560008C828D831204C6AC82AD8334
:1006B000AEF0FFC004C005C006C0071205B6A88290
:1006C000A983AAF0FBD007D006D005D0048C828D78
:1006D000838EF0EFC002C003C000C0011205E585A3
:1006E000826185836285F063F564D001D000D00318
:1006F000D002C002C003C000C001E4C0E0C0E0748A
:1007000048C0E07443C0E0888289838AF0EB120815
:10071000DCAC82E58124FCF581D001D000D003D08F
:1007200002EC603BC002C003C004C000C001E4C0D2
:10073000E07450C0E074C3C0E07448C0E0888289AF
:10074000838AF0EB12090CAD82E58124FCF581D09F
:1007500001D000D004D003D002ED6003020803E40E
:10076000F565F566C002C003C004C000C001E4C066
:10077000E07450C0E074C3C0E07448C0E08882896F
:10078000838AF0EB12090CAD82E58124FCF581D05F
:1007900001D000D004D003D002ED7020752301D227
:1007A000009000CC75F080C002C003C000C00112F0
:1007B000027ED001D000D003D0028021EC701E75E3
:1007C0002301D2009000DA75F080C002C003C0009F
:1007D000C00112027ED001D000D003D002752302E6
:1007E000D2009000E975F080C002C003C000C001D3
:1007F00012027E9000FA120196D001D000D003D0F0
:100800000280080565E4B565020566C3E5659403E5
:10081000E5666480948050030206689000FAC00286
:10082000C003C000C001120196D001D000D003D097
:1008300002E4C0E0C0E0747AC0E07444C0E08882A2
:1008400089838AF0EB120B3CAA82AB83ACF0FDE506
:100850008124FCF581C002C003C004C005C002C0F1
:1008600003C004C00574FAC0E07400C0E07480C026
:10087000E0120A4DE58124F9F581D005D004D003BA
:10088000D0028A828B838CF0ED12044A9000FA1217
:100890000196C061C062C063C0647409C0E07401A5
:1008A000C0E07480C0E0120A4DE58124F9F581852D
:1008B00061828562838563F0E564120488020668BC
:1008C00020F71430F6148883A88220F507E6A88361
:1008D00075830022E280F7E49322E022FFA88118CA
:1008E00018120C79D2D133E6400730E70B7582013C
:1008F0002220E70675820022C2D1120C5BE9700348
:10090000F5822230D101B3E433F58222FFA88118A9
:1009100018120C79D2D133E6400730E70B7582000C
:100920002220E70675820122C2D1120C5BE9700316
:10093000F5822220D101B3E433F58222120D26BCC8
:100940000003020CC5EF60FA30D502B2D1E583B4E2
:10095000FF03020CDBE582B4FF03020CDB258340BE
:10096000072482400B020CC52483145003020CDBC5
:10097000F582EA8DF0A4A8F0EA8EF0A428F8E43518
:10098000F0F9EB8DF0A428E935F0F9E433CA8FF0E3
:10099000A429F9EA35F0FAEBF88EF0A429F9EA3542
:1009A000F0FAE433FBEC8DF0A429F9EA35F0FAE42F
:1009B0003BFBE88FF0A42AFAEB35F0FBE433CCFDE7
:1009C0008EF0A42AFAEB35F0FBE43CFCED8FF0A4AA
:1009D0002BFBEC35F0FC20E703120CF3020CA41205
:1009E0000D267900E583B58202800D5003120D5467
:1009F000E583C39582120D6EE5D0C465D020E11762
:100A0000EA2DFAEB3EFBEC3FFC50097401120D6E2F
:100A1000EC4480FC020CA4C3EA9DFAEB9EFBEC9F25
:100A2000FC500FC3E499F9E49AFAE49BFBE49CFCC4
:100A3000B2D1120CF3020CA402173D858275858396
:100A40007685F077851078900A38021190C0088575
:100A50008108E50824FBF578E50824FBF88675088D
:100A60008676088677900A38121190D0082210985E
:100A70000280FBAA998A82C00212173DD0028A82A4
:100A80002220F71030F6118883A88220F507F6A8F7
:100A90008375830022F280F7F022AA82AB09AC0AA8
:100AA000AD0B8B828C838DF0EA120A810509E4B5C7
:100AB0000902050A2285820985830A85F00B850CC7
:100AC00075850D76850E77850F78900A9A121190AC
:100AD000AA82AB83AC09AD0AAE0B8C828D838EF0FB
:100AE000E4120A818A828B8322C008858108E50886
:100AF00024F8F578E50824FBF8860908860A0886B4
:100B00000BE50824F8F88675088676088677900A3B
:100B10009A121190AA82AB83AC09AD0AAE0B8C82FB
:100B20008D838EF0E4120A818A828B83D00822ACF6
:100B300083AB827A007900748E02175B120D263027
:100B4000D502B2D1BF0009BC0003020CE8020CDBE5
:100B5000BC0003020CC5E583B4FF0BE582B4FF03C0
:100B6000020CE8020CC5E582B4FF03020CDBC3955E
:100B7000835007247F400B020CC5248014500302CD
:100B80000CDBC0E0E4CCCBCAF98D118E128F13EFD1
:100B900054F0C4F5147583068514F0EB84F582E9EE
:100BA000C4F9EAC4FAEBC4FBEC540FC47803D6FCD6
:100BB00018EBD6FB18EAD6FA8582F0EDA4A8F0FD72
:100BC0008582F0EEA428FEE435F0F88582F0EFA4EB
:100BD00028FFE435F0F8E99DF9EA9EFAEB9FFBEC7B
:100BE00098FCAD11AE12AF1330E7101582E92DF964
:100BF000EA3EFAEB3FFBE43CFC80EDC082D58398F3
:100C0000C3E933F9EA33FAEB33FBEC33FCC3E99D78
:100C1000EA9EEB9FEC9400B3E413F9D002D0E0C459
:100C20004AFAD003D0E0C44BFBD004D0E0F5F05436
:100C30000FC44CFCD082158230F40FD3EC13FCEBC4
:100C400013FBEA13FAE913F90582E930E70A7401A4
:100C50002AFAE43BFBE43CFC020CBC7901AA82E6E4
:100C60008F82B5821318E6B5F00E18E6B583091821
:100C7000E68A82B58202790022B4800FE5F0700A1C
:100C8000E5837006E58270027F00EFB6801518B626
:100C9000001018B6000B18B60006080808760022E7
:100CA00008080822B98003EA13B34010EA2401FAC5
:100CB000E43BFBE43CFC50047C800582BC000EBBA2
:100CC000000BBA0008E4F5F0F583F58222A2D1E525
:100CD00082138CF092F78B838A8222E4F583F5826B
:100CE00075F080F4A2D11322E4F583F58275F0C08B
:100CF000747F227804EC7011E58224F8500AF582A2
:100D0000E4C9CACBFCD8EF22EC7820058220E71397
:100D1000D5820122C3E933F9EA33FAEB33FBEC3332
:100D2000FCD8EA158222AA82AB83A2F73392D16063
:100D300002D2F7F582ACF0E58124F9F8E6FD08E689
:100D4000FE0886F008E6A2F73392D56002D2F7F5E6
:100D500083AFF022E582C583F582A2D133A2D5927A
:100D6000D11392D5ECCFFCEBCEFBEACDFA2260405A
:100D7000F82582500274FFF582E824F8501ECCCB8F
:100D8000CAF9E4CC24F85014CBCAF9E4CB24F850C7
:100D90000BCAF9E4CA24F850037900222408601031
:100DA000F8C3EC13FCEB13FBEA13FAE913F9D8F1DF
:100DB00022AA8274C2C0E0740DC0E0C067C0688A15
:100DC0008222056EE4B56E02056F22AA8274302A73
:100DD000FA24C6500A74072AFA3001034302208A13
:100DE00082020DB1E582FAC4540FF582C002120DE1
:100DF000CBD002740F5AF582020DCBAA69AB6AAC54
:100E00006BAD6CAE6D757420EE2EFEED235401FFBC
:100E10004206EA2AFAEB33FBEC33FCED33FDC3EE7A
:100E200095704008EEC39570FE430201D574D98ACF
:100E3000698B6A8C6B8D6C8E6D227885E624D075FB
:100E4000F00AA4FA7886E624D02AFA78848603BBCE
:100E50002D04C3E49AFA757001C3E464808AF063D8
:100E6000F08095F050297574038A0374F625744058
:100E70001C0570E574142479F8E5742479F9870465
:100E8000A604772E1BEBFA6004057480DE8B02EA61
:100E900030E70D787A8603787BA603787A762E0A77
:100EA000E572600AE57204FB2570F5708005300C70
:100EB00002057078798603E4BB2D0104FB700620DF
:100EC00007033008020570300503020F8130065712
:100ED000EB600C75822DC002120DB1D002801C3067
:100EE000070C75822BC002120DB1D002800D3008A4
:100EF0000A758220C002120DB1D002787A8604BC35
:100F00002E0C758230C002120DB1D0021571AC7179
:100F10001571C3E5709C4003020FC5758230C00295
:100F2000120DB1D00280E7AC711571C3E5709C5011
:100F30000C758220C002120DB1D00280EA78798649
:100F400004BC2D0C75822DC002120DB1D002801C84
:100F500030070C75822BC002120DB1D002800D300B
:100F6000080A758220C002120DB1D002787A860478
:100F7000BC2E52758230C002120DB1D002157180A4
:100F800044EB600E75822DC002120DB1D0021571B6
:100F9000802030070E75822BC002120DB1D00215D1
:100FA00071800F30080C758220C002120DB1D00282
:100FB0001571787A8603BB2E0C758230C002120D33
:100FC000B1D0021571757401C20EE5742479F886EA
:100FD00003BB4503021082BB2E348A03C3E4648042
:100FE0008BF063F08095F0500F758230C003120DC6
:100FF000B1D0031B8B0280E48B02D20EE5727038F5
:10100000200C0302108275822E120DB18074300EF6
:10101000278A03EB30E71FC3E464808572F063F036
:101020008095F0500C758230C003120DB1D00315BD
:10103000720B8B0280DD8B02300E0EC3E464808560
:1010400072F063F08095F05021E5742479F88603FE
:101050008B82C002120DB1D002300E0EE5742479DD
:10106000F88603BB2E02800215721571C3E46480FA
:101070008572F063F08095F04003200E0505740240
:101080000FCAC3E464808572F063F08095F0500A63
:10109000758230120DB1157280E830050FAA7115F6
:1010A00071EA6008758220120DB180F122E572703C
:1010B00003300C0D74072572FAE571C39AF571803F
:1010C00006E57124FAF57175740078798602BA2BF9
:1010D0000F20070C787976202008057574010571BA
:1010E000200519AA71C3E464808AF063F08095F04A
:1010F000500A758220120DB1157180E7C20EE57499
:101100002479F88602BA00028069BA451F300102CC
:101110007665C3E464808572F063F08095F0500AD0
:10112000758230120DB1157280E8D20EC3E5749449
:1011300002E433FA7014EA700EC3E464808572F03E
:1011400063F08095F04003300E16E5742479F8863C
:10115000028A82120DB1E57424FD50121572800EC0
:101160007402B57409300C0675822E120DB1057427
:101170000210FE300519AA71C3E464808AF063F09E
:101180008095F0500A758220120DB1157180E7220A
:10119000858267858368E4F56EF56FAA75AB76ACDA
:1011A000778A828B838CF01208C0FD74012AF57552
:1011B000E43BF5768C77EDFA7003021736BA250218
:1011C000800302172EC205C206C207C208C209C2A6
:1011D0000AC20BC20CC202C203C204757000757150
:1011E000007572FFAB75AC76AD778B828C838DF01A
:1011F0001208C0FAA3AB82AC838B758C768D77BA5C
:1012000025078A82120DB180928A06BE3000402ED8
:101210008A06EE24C6402774FFB57213E57175F097
:101220000AA4FEEA24D02EF57170BFD20680BBE579
:101230007275F00AA4FEEA24D02EF57280ACBA2EA4
:101240000A74FFB572A4757200809F8A06BE6100A1
:10125000400E8A06EE248540075302DFD201800249
:10126000C201BA20028075BA23030212EBBA2A0324
:101270000212F0BA2B02805FBA2D028055BA4202E8
:10128000805FBA4303021335BA4403021470BA45AF
:101290000302148ABA4603021486BA470302148E64
:1012A000BA4903021470BA4C02803BBA4E030214CE
:1012B00092BA4F03021477BA5003021409BA5303C7
:1012C000021359BA550302147CBA5803021481025E
:1012D00014BCD2050211EAD2070211EAD2080211A7
:1012E000EAD20A0211EAD20B0211EAD20C0211EA86
:1012F00074FFB57220300A0BE57814F8887886718F
:101300000211EAE57824FEF8887886060886071830
:101310008E710211EA300A0BE57814F8887886722B
:101320000211EAE57824FEF8887886060886071810
:101330008E720211EA300A0AE57814F8887886027B
:10134000800FE57824FEF888788603088604188BD9
:10135000028A82120DB10214C1E57824FDF8887862
:10136000860308860408860518188B698C6A8D6BBD
:101370008B828C838DF012189EAB82AC838B73743E
:10138000FFB5720385737220051DC3E57395715017
:1013900016E571C39573F571AB711571EB60087546
:1013A0008220120DB180F1856982856A83856BF098
:1013B0001208C0FBFA6029AB721572C3E464808B1B
:1013C000F063F08095F050188A82120DB1AB69ACD1
:1013D0006AAD6B0BBB00010C8B698C6A8D6B80C78F
:1013E0002005030214C1C3E573957140030214C1C3
:1013F000E571C39573F571AB711571EB7003021450
:10140000C1758220120DB180EEE57824FDF8887850
:10141000860308860408860518188B698C6A8D6B0C
:10142000E56BFB30E7047A438013EB546060047A89
:1014300050800AEB30E6047A4980027A588A82C0EA
:1014400002120DB175823A120DB1758230120DB1D2
:10145000758278120DB1D002BA4902800BBA5002DF
:101460008006856A82120DE4856982120DE480513E
:10147000D20975700A804A757008804575700A80B7
:1014800040757010803BD2028037D2038033D20483
:10149000802FE57824FDF88878860308860408867E
:1014A0000518188B698C6A8D6B8B828C838DF0E5A7
:1014B0006E120A81A3E56F120A8180058A82120DDD
:1014C000B1200206200303300470E57824FCF8887C
:1014D0007886030886040886050886061818188B7F
:1014E000698C6A8D6B8E6CE569E56AE56BE56C8BE2
:1014F000828C838DF0EE12177F74FFB572037572C4
:1015000006300427747F556CFB8B6DE56DEB2BFB70
:101510008B6DE56B30E7067401456DF56DE56D2467
:101520006840067499256D4002D2033003061210FC
:10153000AD02119B120E3A02119BE570700302116D
:101540009B7B7E300A2BE57814F88878E6FC33958F
:10155000E0FDFEFF8C698D6A8E6B8F6C20095EAC9E
:10156000697D007E007F008C698D6A8E6B8F6C8038
:101570004C300B1FE57824FCF88878860408860533
:101580000886060886071818188C698D6A8E6B8F76
:101590006C802AE57824FEF8887886040886051889
:1015A000ED3395E0FEFF8C698D6A8E6B8F6C2009A0
:1015B0000CAC69AD6A7E007F008E6B8F6C300C4383
:1015C000E569456A456B456C60397408B5700C7502
:1015D0008230C003120DB1D00380287410B570237F
:1015E000758230C003120DB1D00330010C758278C2
:1015F000C003120DB1D003800A758258C003120DCA
:10160000B1D003300925AC69AD6AAE6BE56CFF3033
:10161000E717C3E49CFCE49DFDE49EFEE49FFF8C81
:10162000698D6A8E6B8F6C8002C209757300D20D52
:101630008B00756D00C000120DFBD000200D0DE574
:101640006DC4FCE6FD4CF61888038002A66D057398
:10165000B20DE569456A456B456C70D68803E57146
:10166000700375710120061A200517E57304FCC389
:101670009571500E758220C003120DB1D003157103
:1016800080E930090E75822DC003120DB1D003150B
:10169000718024E573602030070E75822BC0031221
:1016A0000DB1D0031571800F30080C758220C00376
:1016B000120DB1D003157120051EAC711571C3E573
:1016C000739C50273006047C3080027C208C82C0C2
:1016D00003120DB1D00380E2C3E57395715009E5A3
:1016E00071C39573F57180037571008B00AB731531
:1016F00073EB6022B20D200D0A08E6C4540FFB8B79
:101700006D80078603740F5BF56D856D82C00012D6
:101710000DCBD00080D720050302119BAB71157152
:10172000EB700302119B758220120DB180EE8A824C
:10173000120DB102119B856E82856F8322AA82BA37
:101740000A0810990280FB75990D10990280FB8A96
:101750009922FCABF0AA83A982749EF582C2D1ECD7
:1017600030E716D2D1E9F42401F9EAF43400FAEBB7
:10177000F43400FBECF43400FC120CF3020CA4C0B3
:10178000E0F84582458345F07009F5F0FBFCFDFE6D
:1017900002184DE823A2F792E0F8A982AA83D2F7B3
:1017A000ABF07C007E07C3749798404074FF2EFE18
:1017B000740A89F0A4F985F082740A8AF0A4FA8583
:1017C000F083740A8BF0A4FB740529F9EA3582FAD8
:1017D000EB3583FB740035F0FCC3EC13FCEB13FB1F
:1017E000EA13FAE913F908EC70EF80BAE8C3947FC2
:1017F000F88B838EF0E4FBFCFDFEFF08C3E933F9B0
:10180000EA33FAE58333F583EB3BD4FBEC3CD4FCC1
:10181000ED3DD4FDEE3ED4FEEF3FD4FF602D05F04C
:1018200074052BD4FBE43CD4FCE43DD4FDE43ED46D
:10183000FEE43FD4FF758204C3EF13FFEE13FEED09
:1018400013FDEC13FCEB13FBD582EDD8AF7879D008
:10185000E020E704762B8002762D087906E7C45451
:101860000F4430F608B90603762E08E7540F4430CB
:10187000F60819B902E7764508E5F020E704762B6B
:101880008004762DF4040875F00A844430F608E5E7
:10189000F04430F608E4F690007975F04022AA8210
:1018A000AB83ACF07D007E008A828B838CF01208C3
:1018B000C0FFA3AA82AB83EF60070DBD00EA0E80D4
:1018C000E78D828E832200000000000000000000EF
:00000001FF
