:1000000002000375818A1201E1E582600302006F3C
:10001000780079007A007B007C007D00EC4D601C4C
:1000200088828983E493A3A882A9838A828B83F040
:10003000A3AA82AB831CBCFFE31D80E07582007520
:1000400083007C007D00EC4D600AE4F0A31CBCFF43
:10005000F51D80F27582007583007C007D00EC4DFB
:10006000600AE4F0A31CBCFFF51D80F21201E0124F
:10007000072380FE1B5B324A005479706520496E6D
:1000800074656E64656420446973706C617920697D
:100090006E204C696E65203220283136204368611D
:1000A00072204D6178293A20000A00543A20252E0A
:1000B0003366207300463A20252E3366206B487A3B
:1000C00000433A20252E3366206E46000D45464DEE
:1000D0003820506572696F64206D65617375726553
:1000E0006D656E742061742070696E2050302E3101
:1000F000207573696E672054696D657220302E0A11
:1001000046696C653A2025730A436F6D70696C65AA
:10011000643A2025732C2025730A0D0A00433A5CAB
:100120004D756E74616B696D5F46696C65735C5388
:1001300063686F6F6C5C5363686F6F6C5F576F724F
:100140006B5C456E67696E656572696E675F42617B
:100150006368656C6F72735C323032335C454C455A
:10016000435F3239315C4C61625F345C454C4543DE
:100170003239315F4C6162345C4C6162342E630011
:1001800046656220323620323032340032303A3224
:10019000393A3538004552524F52203A204C4F5789
:1001A0002043004552524F52203A204849474820A8
:1001B000430020202020202020202020202020203C
:1001C0002020000A46286B487A29203D2025660D0C
:1001D0000A000D43286E4629203D2025660D0A00A1
:1001E0002275A7007597DE7597AD43FF8075EF0206
:1001F00075A71075C12075A70075A90075A900E540
:10020000A930E7FB75A90375A903E5A930E7FB430E
:10021000A41075E10175E20075E340759810858EB4
:100220008E758DE6858D8B53890F438920D28ED2B2
:100230009975820022AA82438E407592B87593FF09
:100240008592948593957591047B00C3EB9A500B2E
:10025000E59130E7FB53917F0B80F075910022AA66
:1002600082AB83BA0004BB0001227582F9C002C0D0
:10027000031202357582F91202357582F9120235C0
:100280007582FA120235D003D0021ABAFF011B8020
:10029000D25389F0438901C28C229001F412025F8B
:1002A0007474C0E07400C0E07480C0E0120B50159C
:1002B000811581158122D2A0758228120235C2A033
:1002C00022AA828AE0A2E79290A2E69291A2E59207
:1002D00092A2E49293C0021202B6758228120235ED
:1002E000D0028AE0A2E39290A2E29291A2E19292DD
:1002F000A2E092930202B6AA82D2978A821202C127
:1003000090000202025FAA82C2978A821202C19002
:10031000000502025FC2A090001412025F758233D2
:1003200012030675823312030675823212030675B4
:10033000822812030675820C1203067582011203CD
:100340000690001402025FAA82AB83ACF07402B57F
:1003500023047DC080027D808D82C002C003C00462
:1003600012030690000512025FD004D003D0027D74
:10037000007E00ED2AFFEE3BF88C018F8288838996
:10038000F01209C3FF60208F82C002C003C004C006
:1003900005C0061202F7D006D005D004D003D00263
:1003A0000DBD00CF0E80CC3000248D028E03C3EA39
:1003B0009410EB648094805015758220C002C003B5
:1003C0001202F7D003D0020ABA00E30B80E02285C4
:1003D000822685832785F028E4F529F52AE524245B
:1003E000FFFFE52534FFF879007A00C3E99FEA644E
:1003F0008088F063F08095F05059C002C007C000BB
:10040000C001120B71AB82D001D000D007D002BB6B
:100410000A028003BB0D1DE5292526FCE52A3527A8
:10042000FDAE288C828D838EF0E4120B84852982A8
:10043000852A8322E92526FCEA3527FDAE288C8211
:100440008D838EF0EB120B8409B900010A89298A89
:100450002A8098E5292526FAE52A3527FBAC288A43
:10046000828B838CF0E4120B848524828525832281
:10047000AA82AB83ACF0C002C003C0047479C0E0B0
:100480007400C0E07480C0E0120B50158115811516
:1004900081D004D003D002852B24852C258A828B21
:1004A000838CF0C002C003C0041203CF74A9C0E063
:1004B0007400C0E07480C0E0120B501581158115E6
:1004C00081D004D003D002752301D2008A828B83AD
:1004D0008CF0020347AA82AB83ACF0FDC002C003DC
:1004E000C004C00574ABC0E07400C0E07480C0E01C
:1004F000742DC0E07400C0E07440C0E0120BECE565
:100500008124F6F581752302D20090002D75F0400C
:10051000020347AA82AB83ACF0FDC002C003C00453
:10052000C00574B5C0E07400C0E07480C0E0743DE4
:10053000C0E07400C0E07440C0E0120BECE5812420
:10054000F6F581752301D20090003D75F04002035D
:1005500047AA82AB83ACF0FDC002C003C004C00553
:1005600074C1C0E07400C0E07480C0E0744DC0E0AD
:100570007400C0E07440C0E0120BECE58124F6F595
:1005800081752302D20090004D75F040020347129E
:100590000C32AA82AB83ACF0FDC002C003C004C021
:1005A0000590000075F0807447120A3FAA82AB8361
:1005B000ACF0FDE58124FCF581855D82855E83C01C
:1005C00002C003C004C005120C32AE82AF83A8F093
:1005D000F9C006C007C000C00190000075F080742B
:1005E00043120A3FAE82AF83A8F0F9E58124FCF5FF
:1005F00081D005D004D003D002C006C007C000C01F
:10060000018A828B838CF0ED120AE2AA82AB83AC62
:10061000F0FDE58124FCF581855F82856083C00261
:10062000C003C004C005120C32AE82AF83A8F0F93B
:10063000D005D004D003D002C006C007C000C0015E
:100640008A828B838CF0ED120AE2AA82AB83ACF033
:10065000FDE58124FCF581C002C003C004C0059003
:10066000F4FC75F0327434120A3FAA82AB83ACF00A
:10067000FDE58124FCF5818A828B838CF0ED22AA32
:1006800082AB83ACF0FDC002C003C004C005900083
:100690000075F080743F120C3FAA82AB83ACF0FD72
:1006A000E58124FCF5818A828B838CF0ED22AA827D
:1006B000AB83ACF0FDC002C003C004C0059051EC98
:1006C00075F0B8743F120A3FAA82AB83ACF0FDE527
:1006D0008124FCF581E4C0E074A0C0E0748CC0E02B
:1006E0007445C0E08A828B838CF0ED120C3FAA82A5
:1006F000AB83ACF0FDE58124FCF581C002C003C0F2
:1007000004C005906B2875F06E744E120A3FAA82E1
:10071000AB83ACF0FDE58124FCF5818A828B838C70
:10072000F0ED227A007B00C002C003120291120297
:100730009A120315748CC0E07401C0E07480C0E0AC
:100740007480C0E07401C0E07480C0E0741DC0E03B
:100750007401C0E07480C0E074CCC0E07400C0E0FC
:100760007480C0E0120B50E58124F4F581D003D0F1
:1007700002758A00758C00C28D7522002081FD30C3
:1007800081FDD28C308109108D0280F8052280F421
:10079000208109108D0280F8052280F4C28CAC22E1
:1007A0007D00858C5D755E00858A5F7560008C823A
:1007B0008D83C002C00312058F85826185836285A7
:1007C000F063F56412067FA882A983ACF0FD856111
:1007D000828562838563F0E564C004C005C000C003
:1007E000011206AE85826585836685F067F568D05F
:1007F00001D000D005D004D003D0020ABA00010B0A
:10080000C002C003C004C005C000C001E4C0E07461
:10081000F6C0E07451C0E07448C0E0888289838CDF
:10082000F0ED1209DFAE82E58124FCF581D001D024
:1008300000D005D004D003D002EE6043C002C00354
:10084000C004C005C006C000C001E4C0E07424C0FC
:10085000E07474C0E0744AC0E0888289838CF0ED53
:10086000120A0FAF82E58124FCF581D001D000D0BF
:1008700006D005D004D003D002EF60030209160AA7
:10088000BA00010BC3EA940AEB648094805003021F
:1008900007717A007B00C002C003C006E4C0E074A8
:1008A00024C0E07474C0E0744AC0E0888289838CFC
:1008B000F0ED120A0FAF82E58124FCF581D006D05D
:1008C00003D002EF7018752301D20090019575F0E6
:1008D00080C002C003120347D003D0028019EE701B
:1008E00016752301D2009001A375F080C002C003E9
:1008F000120347D003D002752302D2009001B275D3
:10090000F080C002C0031203479000FA12025FD0C9
:1009100003D0020207719000FAC002C003C004C0F5
:1009200005C000C00112025FD001D000D005D00484
:10093000E4C0E0C0E0747AC0E07444C0E08882891A
:10094000838CF0ED120C3FAC82AD83AEF0FFE581FD
:1009500024FCF581C004C005C006C007C004C00562
:10096000C006C00774C3C0E07401C0E07480C0E07A
:10097000120B50E58124F9F581D007D006D005D0BF
:10098000048C828D838EF0EF1205139000FA120210
:100990005FC065C066C067C06874D2C0E07401C043
:1009A000E07480C0E0120B50E58124F9F581856583
:1009B000828566838567F0E568120551D003D00211
:1009C00002077120F71430F6148883A88220F507F7
:1009D000E6A88375830022E280F7E49322E022FFF9
:1009E000A8811818120D7CD2D133E6400730E70BEE
:1009F0007582012220E70675820022C2D1120D5EA7
:100A0000E97003F5822230D101B3E433F58222FF8D
:100A1000A8811818120D7CD2D133E6400730E70BBD
:100A20007582002220E70675820122C2D1120D5E76
:100A3000E97003F5822220D101B3E433F58222125A
:100A40000E29BC0003020DC8EF60FA30D502B2D106
:100A5000E583B4FF03020DDEE582B4FF03020DDE81
:100A6000258340072482400B020DC82483145003C1
:100A7000020DDEF582EA8DF0A4A8F0EA8EF0A4283B
:100A8000F8E435F0F9EB8DF0A428E935F0F9E4331A
:100A9000CA8FF0A429F9EA35F0FAEBF88EF0A42910
:100AA000F9EA35F0FAE433FBEC8DF0A429F9EA35E4
:100AB000F0FAE43BFBE88FF0A42AFAEB35F0FBE414
:100AC00033CCFD8EF0A42AFAEB35F0FBE43CFCEDD0
:100AD0008FF0A42BFBEC35F0FC20E703120DF6029F
:100AE0000DA7120E297900E583B58202800D50030F
:100AF000120E57E583C39582120E71E5D0C465D0FE
:100B000020E117EA2DFAEB3EFBEC3FFC50097401A3
:100B1000120E71EC4480FC020DA7C3EA9DFAEB9E15
:100B2000FBEC9FFC500FC3E499F9E49AFAE49BFBB9
:100B3000E49CFCB2D1120DF6020DA702184085828A
:100B40007785837885F07985107A900B3B02129334
:100B5000C008858108E50824FBF57AE50824FBF840
:100B60008677088678088679900B3B121293D00816
:100B70002210980280FBAA998A82C002121840D0E3
:100B8000028A822220F71030F6118883A88220F58D
:100B900007F6A88375830022F280F7F022AA82ABC1
:100BA00009AC0AAD0B8B828C838DF0EA120B8405A5
:100BB00009E4B50902050A2285820985830A85F0C0
:100BC0000B850C77850D78850E79850F7A900B9DB6
:100BD000121293AA82AB83AC09AD0AAE0B8C828D44
:100BE000838EF0E4120B848A828B8322C008858175
:100BF00008E50824F8F57AE50824FBF88609088654
:100C00000A08860BE50824F8F886770886780886AF
:100C100079900B9D121293AA82AB83AC09AD0AAEF8
:100C20000B8C828D838EF0E4120B848A828B83D0AE
:100C30000822AC83AB827A007900748E02185E12AF
:100C40000E2930D502B2D1BF0009BC0003020DEB62
:100C5000020DDEBC0003020DC8E583B4FF0BE58284
:100C6000B4FF03020DEB020DC8E582B4FF03020DD1
:100C7000DEC395835007247F400B020DC8248014E7
:100C80005003020DDEC0E0E4CCCBCAF98D118E1208
:100C90008F13EF54F0C4F5147583068514F0EB84BC
:100CA000F582E9C4F9EAC4FAEBC4FBEC540FC4784A
:100CB00003D6FC18EBD6FB18EAD6FA8582F0EDA431
:100CC000A8F0FD8582F0EEA428FEE435F0F88582D8
:100CD000F0EFA428FFE435F0F8E99DF9EA9EFAEB7D
:100CE0009FFBEC98FCAD11AE12AF1330E7101582EC
:100CF000E92DF9EA3EFAEB3FFBE43CFC80EDC082D3
:100D0000D58398C3E933F9EA33FAEB33FBEC33FCD0
:100D1000C3E99DEA9EEB9FEC9400B3E413F9D00283
:100D2000D0E0C44AFAD003D0E0C44BFBD004D0E0FA
:100D3000F5F0540FC44CFCD082158230F40FD3EC84
:100D400013FCEB13FBEA13FAE913F90582E930E728
:100D50000A74012AFAE43BFBE43CFC020DBF790172
:100D6000AA82E68F82B5821318E6B5F00E18E6B5B2
:100D7000830918E68A82B58202790022B4800FE5E1
:100D8000F0700AE5837006E58270027F00EFB6809E
:100D90001518B6001018B6000B18B600060808089B
:100DA00076002208080822B98003EA13B34010EA4B
:100DB0002401FAE43BFBE43CFC50047C800582BC4B
:100DC000000EBB000BBA0008E4F5F0F583F58222B3
:100DD000A2D1E582138CF092F78B838A8222E4F50C
:100DE00083F58275F080F4A2D11322E4F583F582B5
:100DF00075F0C0747F227804EC7011E58224F850FD
:100E00000AF582E4C9CACBFCD8EF22EC782005822F
:100E100020E713D5820122C3E933F9EA33FAEB3331
:100E2000FBEC33FCD8EA158222AA82AB83A2F7330B
:100E300092D16002D2F7F582ACF0E58124F9F8E6B0
:100E4000FD08E6FE0886F008E6A2F73392D56002B8
:100E5000D2F7F583AFF022E582C583F582A2D133C4
:100E6000A2D592D11392D5ECCFFCEBCEFBEACDFA12
:100E7000226040F82582500274FFF582E824F85081
:100E80001ECCCBCAF9E4CC24F85014CBCAF9E4CB7D
:100E900024F8500BCAF9E4CA24F85003790022243C
:100EA000086010F8C3EC13FCEB13FBEA13FAE91328
:100EB000F9D8F122AA8274C5C0E0740EC0E0C069FE
:100EC000C06A8A82220570E4B57002057122AA8286
:100ED00074302AFA24C6500A74072AFA30010343F0
:100EE00002208A82020EB4E582FAC4540FF582C051
:100EF00002120ECED002740F5AF582020ECEAA6BE9
:100F0000AB6CAC6DAD6EAE6F757620EE2EFEED2344
:100F10005401FF4206EA2AFAEB33FBEC33FCED33D3
:100F2000FDC3EE95724008EEC39572FE430201D5F3
:100F300076D98A6B8B6C8C6D8D6E8E6F227887E67E
:100F400024D075F00AA4FA7888E624D02AFA7886A4
:100F50008603BB2D04C3E49AFA757201C3E464806E
:100F60008AF063F08095F050297576038A0374F651
:100F70002576401C0572E57614247BF8E576247B03
:100F8000F98704A604772E1BEBFA6004057680DE51
:100F90008B02EA30E70D787C8603787DA603787CA7
:100FA000762E0AE574600AE57404FB2572F57280FA
:100FB00005300C020572787B8603E4BB2D0104FB2F
:100FC0007006200703300802057230050302108402
:100FD000300657EB600C75822DC002120EB4D002A1
:100FE000801C30070C75822BC002120EB4D0028018
:100FF0000D30080A758220C002120EB4D002787C2F
:101000008604BC2E0C758230C002120EB4D00215BC
:1010100073AC731573C3E5729C40030210C87582EC
:1010200030C002120EB4D00280E7AC731573C3E572
:10103000729C500C758220C002120EB4D00280EA5D
:10104000787B8604BC2D0C75822DC002120EB4D0A4
:1010500002801C30070C75822BC002120EB4D00225
:10106000800D30080A758220C002120EB4D00278BA
:101070007C8604BC2E52758230C002120EB4D0029F
:1010800015738044EB600E75822DC002120EB4D031
:10109000021573802030070E75822BC002120EB429
:1010A000D0021573800F30080C758220C002120E1A
:1010B000B4D0021573787C8603BB2E0C758230C0C9
:1010C00002120EB4D0021573757601C20EE57624B5
:1010D0007BF88603BB4503021185BB2E348A03C30C
:1010E000E464808BF063F08095F0500F758230C01F
:1010F00003120EB4D0031B8B0280E48B02D20EE5E8
:10110000747038200C0302118575822E120EB48083
:1011100074300E278A03EB30E71FC3E464808574C4
:10112000F063F08095F0500C758230C003120EB45D
:10113000D00315740B8B0280DD8B02300E0EC3E4DE
:1011400064808574F063F08095F05021E576247B0F
:10115000F886038B82C002120EB4D002300E0EE568
:1011600076247BF88603BB2E02800215741573C3A8
:10117000E464808574F063F08095F04003200E05F0
:1011800005760210CDC3E464808574F063F0809529
:10119000F0500A758230120EB4157480E830050FD5
:1011A000AA731573EA6008758220120EB480F122CA
:1011B000E5747003300C0D74072574FAE573C39A57
:1011C000F5738006E57324FAF573757600787B86EF
:1011D00002BA2B0F20070C787B7620200805757645
:1011E000010573200519AA73C3E464808AF063F0D3
:1011F0008095F0500A758220120EB4157380E7C2F4
:101200000EE576247BF88602BA00028069BA451F93
:101210003001027665C3E464808574F063F08095E4
:10122000F0500A758230120EB4157480E8D20EC3E5
:10123000E5769402E433FA7014EA700EC3E4648035
:101240008574F063F08095F04003300E16E5762447
:101250007BF886028A82120EB4E57624FD501215C0
:1012600074800E7402B57609300C0675822E120E4B
:10127000B40576021201300519AA73C3E464808AAA
:10128000F063F08095F0500A758220120EB4157349
:1012900080E72285826985836AE4F570F571AA7713
:1012A000AB78AC798A828B838CF01209C3FD740110
:1012B0002AF577E43BF5788C79EDFA70030218395A
:1012C000BA25028003021831C205C206C207C2084D
:1012D000C209C20AC20BC20CC202C203C2047572A6
:1012E000007573007574FFAB77AC78AD798B828C29
:1012F000838DF01209C3FAA3AB82AC838B778C7811
:101300008D79BA25078A82120EB480928A06BE3081
:1013100000402E8A06EE24C6402774FFB57413E5FC
:101320007375F00AA4FEEA24D02EF57370BFD206BE
:1013300080BBE57475F00AA4FEEA24D02EF5748013
:10134000ACBA2E0A74FFB574A4757400809F8A0627
:10135000BE6100400E8A06EE248540075302DFD2AC
:10136000018002C201BA20028075BA23030213EE83
:10137000BA2A030213F3BA2B02805FBA2D028055FA
:10138000BA4202805FBA4303021438BA440302151A
:1013900073BA450302158DBA4603021589BA47038D
:1013A000021591BA4903021573BA4C02803BBA4E3A
:1013B00003021595BA4F0302157ABA500302150CB1
:1013C000BA530302145CBA550302157FBA580302DC
:1013D00015840215BFD2050212EDD2070212EDD21A
:1013E000080212EDD20A0212EDD20B0212EDD20C5B
:1013F0000212ED74FFB57420300A0BE57A14F888F8
:101400007A86730212EDE57A24FEF8887A86060859
:101410008607188E730212ED300A0BE57A14F888ED
:101420007A86740212EDE57A24FEF8887A86060838
:101430008607188E740212ED300A0AE57A14F888CD
:101440007A8602800FE57A24FEF8887A8603088679
:1014500004188B028A82120EB40215C4E57A24FDA8
:10146000F8887A860308860408860518188B6B8C22
:101470006C8D6D8B828C838DF01219A1AB82AC8345
:101480008B7574FFB5740385757420051DC3E575F0
:1014900095735016E573C39575F573AB731573EBC0
:1014A0006008758220120EB480F1856B82856C8392
:1014B000856DF01209C3FBFA6029AB741574C3E49F
:1014C00064808BF063F08095F050188A82120EB41D
:1014D000AB6BAC6CAD6D0BBB00010C8B6B8C6C8D76
:1014E0006D80C72005030215C4C3E57595734003DD
:1014F0000215C4E573C39575F573AB731573EB7083
:10150000030215C4758220120EB480EEE57A24FD24
:10151000F8887A860308860408860518188B6B8C71
:101520006C8D6DE56DFB30E7047A438013EB5460FE
:1015300060047A50800AEB30E6047A4980027A58D7
:101540008A82C002120EB475823A120EB4758230CD
:10155000120EB4758278120EB4D002BA4902800B12
:10156000BA50028006856C82120EE7856B82120EDD
:10157000E78051D20975720A804A757208804575F4
:10158000720A8040757210803BD2028037D203808D
:1015900033D204802FE57A24FDF8887A8603088602
:1015A0000408860518188B6B8C6C8D6D8B828C8370
:1015B0008DF0E570120B84A3E571120B8480058A0F
:1015C00082120EB4200206200303300470E57A2450
:1015D000FCF8887A860308860408860508860618BB
:1015E00018188B6B8C6C8D6D8E6EE56BE56CE56DF4
:1015F000E56E8B828C838DF0EE12188274FFB574C9
:1016000003757406300427747F556EFB8B6FE56F8E
:10161000EB2BFB8B6FE56D30E7067401456FF56FC3
:10162000E56F246840067499256F4002D2033003A9
:10163000061211B002129E120F3D02129EE5727048
:101640000302129E7B80300A2BE57A14F8887AE632
:10165000FC3395E0FDFEFF8C6B8D6C8E6D8F6E20E4
:10166000095EAC6B7D007E007F008C6B8D6C8E6D97
:101670008F6E804C300B1FE57A24FCF8887A860444
:101680000886050886060886071818188C6B8D6C66
:101690008E6D8F6E802AE57A24FEF8887A8604089B
:1016A000860518ED3395E0FEFF8C6B8D6C8E6D8F8B
:1016B0006E20090CAC6BAD6C7E007F008E6D8F6E62
:1016C000300C43E56B456C456D456E60397408B56B
:1016D000720C758230C003120EB4D00380287410CF
:1016E000B57223758230C003120EB4D00330010CE2
:1016F000758278C003120EB4D003800A758258C078
:1017000003120EB4D003300925AC6BAD6CAE6DE5A1
:101710006EFF30E717C3E49CFCE49DFDE49EFEE40D
:101720009FFF8C6B8D6C8E6D8F6E8002C2097575FC
:1017300000D20D8B00756F00C000120EFED000208D
:101740000D0DE56FC4FCE6FD4CF61888038002A67B
:101750006F0575B20DE56B456C456D456E70D688AD
:1017600003E573700375730120061A200517E575EC
:1017700004FCC39573500E758220C003120EB4D0C2
:1017800003157380E930090E75822DC003120EB463
:10179000D00315738024E575602030070E75822B09
:1017A000C003120EB4D0031573800F30080C75827D
:1017B00020C003120EB4D003157320051EAC7315A0
:1017C00073C3E5759C50273006047C3080027C2072
:1017D0008C82C003120EB4D00380E2C3E57595730A
:1017E0005009E573C39575F57380037573008B001D
:1017F000AB751575EB6022B20D200D0A08E6C454D6
:101800000FFB8B6F80078603740F5BF56F856F820C
:10181000C000120ECED00080D720050302129EAB6E
:10182000731573EB700302129E758220120EB48042
:10183000EE8A82120EB402129E8570828571832216
:10184000AA82BA0A0810990280FB75990D109902B4
:1018500080FB8A9922FCABF0AA83A982749EF58250
:10186000C2D1EC30E716D2D1E9F42401F9EAF4341C
:1018700000FAEBF43400FBECF43400FC120DF60239
:101880000DA7C0E0F84582458345F07009F5F0FBEF
:10189000FCFDFE021950E823A2F792E0F8A982AA03
:1018A00083D2F7ABF07C007E07C3749798404074F6
:1018B000FF2EFE740A89F0A4F985F082740A8AF07A
:1018C000A4FA85F083740A8BF0A4FB740529F9EA65
:1018D0003582FAEB3583FB740035F0FCC3EC13FC66
:1018E000EB13FBEA13FAE913F908EC70EF80BAE89E
:1018F000C3947FF88B838EF0E4FBFCFDFEFF08C3EE
:10190000E933F9EA33FAE58333F583EB3BD4FBECB7
:101910003CD4FCED3DD4FDEE3ED4FEEF3FD4FF6061
:101920002D05F074052BD4FBE43CD4FCE43DD4FD40
:10193000E43ED4FEE43FD4FF758204C3EF13FFEE10
:1019400013FEED13FDEC13FCEB13FBD582EDD8AFCA
:10195000787BD0E020E704762B8002762D0879068C
:10196000E7C4540F4430F608B90603762E08E7544E
:101970000F4430F60819B902E7764508E5F020E78C
:1019800004762B8004762DF4040875F00A84443024
:10199000F608E5F04430F608E4F690007B75F04078
:1019A00022AA82AB83ACF07D007E008A828B838C7E
:1019B000F01209C3FFA3AA82AB83EF60070DBD003D
:1019C000EA0E80E78D828E83220000000000000076
:00000001FF
