:100000000200037581721201AFE582600302006F86
:10001000780079007A007B007C007D00EC4D601C4C
:1000200088828983E493A3A882A9838A828B83F040
:10003000A3AA82AB831CBCFFE31D80E07582007520
:1000400083007C007D00EC4D600AE4F0A31CBCFF43
:10005000F51D80F27582007583007C007D00EC4DFB
:10006000600AE4F0A31CBCFFF51D80F21201AE1281
:10007000054980FE1B5B324A005479706520496E49
:1000800074656E64656420446973706C617920697D
:100090006E204C696E65203220283136204368611D
:1000A00072204D6178293A20000A00504552494F8C
:1000B000443A202569004C434420342D4269742081
:1000C000546573740048656C6C6F2C20576F726CAC
:1000D00064210045464D3820506572696F64206D7B
:1000E0006561737572656D656E74206174207069E9
:1000F0006E2050302E31207573696E672054696D03
:10010000657220302E0A46696C653A2025730A43D1
:100110006F6D70696C65643A2025732C2025730A15
:100120000A00433A5C4D756E74616B696D5F466998
:100130006C65735C5363686F6F6C5C5363686F6F5F
:100140006C5F576F726B5C456E67696E656572694F
:100150006E675F42616368656C6F72735C323032E8
:10016000335C454C45435F3239315C4C61625F34EE
:100170005C454C45433239315F4C6162345C436FBE
:1001800064655C4C6162342E6300466562203232E5
:1001900020323032340031303A35333A3237000DC4
:1001A00054203D202566206D7320202020002275DC
:1001B000A7007597DE7597AD43FF8075EF0275A7B1
:1001C0001075C12075A70075A90075A900E5A930B3
:1001D000E7FB75A90375A903E5A930E7FB43A41064
:1001E00075E10175E20075E340759810858E8E7596
:1001F0008DE6858D8B53890F438920D28ED29975D8
:10020000820022AA82438E407592B87593FF859230
:10021000948593957591047B00C3EB9A500BE591FF
:1002200030E7FB53917F0B80F075910022AA82ABDF
:1002300083BA0004BB0001227582F9C002C0031218
:1002400002037582F91202037582F91202037582A4
:10025000FA120203D003D0021ABAFF011B80D25354
:1002600089F0438901C28C229001F412022D74742A
:10027000C0E07400C0E07480C0E0120799158115D9
:1002800081158122D2A5758228120203C2A522AA55
:10029000828AE0A2E792A1A2E692A2A2E592A3A29C
:1002A000E492A4C002120284758228120203D002D2
:1002B0008AE0A2E392A1A2E292A2A2E192A3A2E02A
:1002C00092A4020284AA82D2A68A8212028F90008D
:1002D0000202022DAA82C2A68A8212028F90000513
:1002E00002022DC2A590001412022D758233120253
:1002F000D47582331202D47582321202D4758228E8
:100300001202D475820C1202D47582011202D490AA
:10031000001402022DAA82AB83ACF07402B5230450
:100320007DC080027D808D82C002C003C0041202A5
:10033000D490000512022DD004D003D0027D007E9F
:1003400000ED2AFFEE3BF88C018F82888389F01242
:100350000674FF60208F82C002C003C004C005C0C5
:10036000061202C5D006D005D004D003D0020DBDC0
:1003700000CF0E80CC3000248D028E03C3EA94108F
:10038000EB648094805015758220C002C003120275
:10039000C5D003D0020ABA00E30B80E02285822692
:1003A00085832785F028E4F529F52AE52424FFFF35
:1003B000E52534FFF879007A00C3E99FEA64808874
:1003C000F063F08095F05059C002C007C000C00132
:1003D0001207BAAB82D001D000D007D002BB0A020C
:1003E0008003BB0D1DE5292526FCE52A3527FDAE3A
:1003F000288C828D838EF0E41207CD852982852A90
:100400008322E92526FCEA3527FDAE288C828D83E0
:100410008EF0EB1207CD09B900010A89298A2A80DA
:1004200098E5292526FAE52A3527FBAC288A828B10
:10043000838CF0E41207CD85248285258322AA824D
:10044000AB83ACF0C002C003C0047479C0E0740098
:10045000C0E07480C0E0120799158115811581D024
:1004600004D003D002852B24852C258A828B838C93
:10047000F0C002C003C00412039D74A9C0E0740060
:10048000C0E07480C0E0120799158115811581D0F4
:1004900004D003D002752301D2008A828B838CF0B2
:1004A000020315120690AA82AB83C002C00374AB8C
:1004B000C0E07400C0E07480C0E0742DC0E074003F
:1004C000C0E07440C0E0120835E58124F8F581757C
:1004D0002302D20090002D75F04002031585821191
:1004E000858312900012120767AA82AB83853D11A3
:1004F000853E1290000AC002C003120767AC82ADAD
:1005000083D003D002EC2AFAED3BFBE53F2AF582CB
:10051000E5403BF58312087BAA82AB83ACF0FDC0BB
:1005200002C003C004C00590F4FC75F032743412AC
:1005300006C4AA82AB83ACF0FDE58124FCF5818A78
:10054000828B838CF0ED02069012025F1202681219
:1005500002E3752301D2009000B675F080120315F6
:10056000752302D2009000C575F0801203157496B1
:10057000C0E07401C0E07480C0E0748AC0E074011F
:10058000C0E07480C0E07422C0E07401C0E07480F8
:10059000C0E074D3C0E07400C0E07480C0E0120713
:1005A00099E58124F4F581758A00758C00C28D75FA
:1005B00022002081FD3081FDD28C308109108D0216
:1005C00080F8052280F4208109108D0280F8052230
:1005D00080F4C28CAA227B00858C3D753E00858A02
:1005E0003F7540008A828B831204DD12087BAA8249
:1005F000AB83ACF0FD9003E8C002C003C004C005AB
:1006000012022DD005D004D003D002C002C003C016
:1006100004C005C002C003C004C00590000075F00E
:100620007A74441206C4AE82AF83A8F0F9E581243F
:10063000FCF581C006C007C000C001749FC0E07413
:1006400001C0E07480C0E0120799E58124F9F581CA
:10065000752B10E4F52C90004175F04012043ED04B
:1006600005D004D003D0028A828B838CF0ED120473
:10067000A30205A720F71430F6148883A88220F57A
:1006800007E6A88375830022E280F7E49322E02244
:10069000120888700AE582458345F0700122E43033
:1006A000D112F4700BE5F0F47006E58330E7012217
:1006B00090800022700AE5F07006E58320E70122B1
:1006C000907FFF22120965BC0003020904EF60FA63
:1006D00030D502B2D1E583B4FF0302091AE582B432
:1006E000FF0302091A258340072482400B020904F4
:1006F000248314500302091AF582EA8DF0A4A8F0AD
:10070000EA8EF0A428F8E435F0F9EB8DF0A428E99E
:1007100035F0F9E433CA8FF0A429F9EA35F0FAEBA1
:10072000F88EF0A429F9EA35F0FAE433FBEC8DF009
:10073000A429F9EA35F0FAE43BFBE88FF0A42AFAA1
:10074000EB35F0FBE433CCFD8EF0A42AFAEB35F068
:10075000FBE43CFCED8FF0A42BFBEC35F0FC20E738
:10076000031209320208E3E5828511F0A4C582C0B4
:10077000F08512F0A4D0F025F0C5838511F0A425F2
:1007800083F5832202131F85825F85836085F06174
:10079000851062900784020D72C008858108E50803
:1007A00024FBF562E50824FBF8865F08866008866E
:1007B00061900784120D72D0082210980280FBAA63
:1007C000998A82C00212131FD0028A822220F71057
:1007D00030F6118883A88220F507F6A88375830078
:1007E00022F280F7F022AA82AB09AC0AAD0B8B8211
:1007F0008C838DF0EA1207CD0509E4B50902050ADC
:100800002285820985830A85F00B850C5F850D6042
:10081000850E61850F629007E6120D72AA82AB8386
:10082000AC09AD0AAE0B8C828D838EF0E41207CD3D
:100830008A828B8322C008858108E50824F8F56246
:10084000E50824FBF8860908860A08860BE50824D3
:10085000F8F8865F0886600886619007E6120D72D8
:10086000AA82AB83AC09AD0AAE0B8C828D838EF06D
:10087000E41207CD8A828B83D00822AC83AB827AC4
:10088000007900748E02133D121361C3749E958229
:100890004039790012137330D126E9F42401F5822E
:1008A000EAF43400F583EBF43400F5F0ECF43400B2
:1008B000700AE582458345F0700122E430E70F229B
:1008C000EC20E71489828A838BF02230D10AE4F588
:1008D00082F583F5F074802274FFF582F583F5F0DC
:1008E000747F22B98003EA13B34010EA2401FAE4CA
:1008F0003BFBE43CFC50047C800582BC000EBB004A
:100900000BBA0008E4F5F0F583F58222A2D1E58266
:10091000138CF092F78B838A8222E4F583F582753B
:10092000F080F4A2D11322E4F583F58275F0C0744F
:100930007F227804EC7011E58224F8500AF582E4F5
:10094000C9CACBFCD8EF22EC7820058220E713D56A
:10095000820122C3E933F9EA33FAEB33FBEC33FCCF
:10096000D8EA158222AA82AB83A2F73392D1600221
:10097000D2F7F582ACF0E58124F9F8E6FD08E6FE51
:100980000886F008E6A2F73392D56002D2F7F58325
:10099000AFF022AA8274A4C0E07409C0E0C051C0C4
:1009A000528A82220558E4B55802055922AA827457
:1009B000302AFA24C6500A74072AFA300103430287
:1009C000208A82020993E582FAC4540FF582C0029C
:1009D0001209ADD002740F5AF5820209ADAA53ABC9
:1009E00054AC55AD56AE57755E20EE2EFEED235439
:1009F00001FF4206EA2AFAEB33FBEC33FCED33FD50
:100A0000C3EE955A4008EEC3955AFE430201D55EE7
:100A1000D98A538B548C558D568E5722786FE62485
:100A2000D075F00AA4FA7870E624D02AFA786E8697
:100A300003BB2D04C3E49AFA755A01C3E464808AA7
:100A4000F063F08095F05029755E038A0374F625F3
:100A50005E401C055AE55E142463F8E55E2463F9E4
:100A60008704A604772E1BEBFA6004055E80DE8BFC
:100A700002EA30E70D786486037865A60378647629
:100A80002E0AE55C600AE55C04FB255AF55A8005F0
:100A9000300C02055A78638603E4BB2D0104FB7019
:100AA00006200703300802055A300503020B6330A5
:100AB0000657EB600C75822DC002120993D002809C
:100AC0001C30070C75822BC002120993D002800DD6
:100AD00030080A758220C002120993D00278648619
:100AE00004BC2E0C758230C002120993D002155B33
:100AF000AC5B155BC3E55A9C4003020BA7758230C3
:100B0000C002120993D00280E7AC5B155BC3E55AC3
:100B10009C500C758220C002120993D00280EA78A2
:100B2000638604BC2D0C75822DC002120993D0027D
:100B3000801C30070C75822BC002120993D00280F2
:100B40000D30080A758220C002120993D002786421
:100B50008604BC2E52758230C002120993D0021551
:100B60005B8044EB600E75822DC002120993D002A7
:100B7000155B802030070E75822BC002120993D0BE
:100B800002155B800F30080C758220C00212099399
:100B9000D002155B78648603BB2E0C758230C002D0
:100BA000120993D002155B755E01C20EE55E2463E7
:100BB000F88603BB4503020C64BB2E348A03C3E4EE
:100BC00064808BF063F08095F0500F758230C00325
:100BD000120993D0031B8B0280E48B02D20EE55CDA
:100BE0007038200C03020C6475822E1209938074F5
:100BF000300E278A03EB30E71FC3E46480855CF086
:100C000063F08095F0500C758230C003120993D0C8
:100C100003155C0B8B0280DD8B02300E0EC3E46487
:100C200080855CF063F08095F05021E55E2463F8E8
:100C300086038B82C002120993D002300E0EE55E4D
:100C40002463F88603BB2E028002155C155BC3E4A7
:100C50006480855CF063F08095F04003200E05050C
:100C60005E020BACC3E46480855CF063F08095F0B9
:100C7000500A758230120993155C80E830050FAA7E
:100C80005B155BEA600875822012099380F122E50A
:100C90005C7003300C0D7407255CFAE55BC39AF5B4
:100CA0005B8006E55B24FAF55B755E00786386027F
:100CB000BA2B0F20070C78637620200805755E019B
:100CC000055B200519AA5BC3E464808AF063F080A9
:100CD00095F0500A758220120993155B80E7C20EC9
:100CE000E55E2463F88602BA00028069BA451F30C7
:100CF00001027665C3E46480855CF063F08095F062
:100D0000500A758230120993155C80E8D20EC3E553
:100D10005E9402E433FA7014EA700EC3E4648085D2
:100D20005CF063F08095F04003300E16E55E2463BE
:100D3000F886028A82120993E55E24FD5012155C42
:100D4000800E7402B55E09300C0675822E1209936E
:100D5000055E020CE0300519AA5BC3E464808AF0EA
:100D600063F08095F0500A758220120993155B801C
:100D7000E722858251858352E4F558F559AA5FAB85
:100D800060AC618A828B838CF0120674FD74012A38
:100D9000F55FE43BF5608C61EDFA7003021318BA5D
:100DA00025028003021310C205C206C207C208C290
:100DB00009C20AC20BC20CC202C203C204755A00A5
:100DC000755B00755CFFAB5FAC60AD618B828C8343
:100DD0008DF0120674FAA3AB82AC838B5F8C608DAE
:100DE00061BA25078A8212099380928A06BE300072
:100DF000402E8A06EE24C6402774FFB55C13E55BDF
:100E000075F00AA4FEEA24D02EF55B70BFD20680EE
:100E1000BBE55C75F00AA4FEEA24D02EF55C80AC3C
:100E2000BA2E0A74FFB55CA4755C00809F8A06BE6A
:100E30006100400E8A06EE248540075302DFD2018E
:100E40008002C201BA20028075BA2303020ECDBA15
:100E50002A03020ED2BA2B02805FBA2D028055BA45
:100E60004202805FBA4303020F17BA4403021052D2
:100E7000BA450302106CBA4603021068BA4703026F
:100E80001070BA4903021052BA4C02803BBA4E03AA
:100E9000021074BA4F03021059BA5003020FEBBA92
:100EA0005303020F3BBA550302105EBA58030210F7
:100EB0006302109ED205020DCCD207020DCCD208DF
:100EC000020DCCD20A020DCCD20B020DCCD20C02F8
:100ED0000DCC74FFB55C20300A0BE56214F8886213
:100EE000865B020DCCE56224FEF8886286060886E1
:100EF00007188E5B020DCC300A0BE56214F888628D
:100F0000865C020DCCE56224FEF8886286060886BF
:100F100007188E5C020DCC300A0AE56214F888626C
:100F20008602800FE56224FEF88862860308860444
:100F3000188B028A821209930210A3E56224FDF83D
:100F40008862860308860408860518188B538C541B
:100F50008D558B828C838DF01214D5AB82AC838B34
:100F60005D74FFB55C03855D5C20051DC3E55D9583
:100F70005B5016E55BC3955DF55BAB5B155BEB60AA
:100F80000875822012099380F185538285548385E8
:100F900055F0120674FBFA6029AB5C155CC3E4647F
:100FA000808BF063F08095F050188A82120993AB21
:100FB00053AC54AD550BBB00010C8B538C548D5569
:100FC00080C72005030210A3C3E55D955B400302C3
:100FD00010A3E55BC3955DF55BAB5B155BEB700345
:100FE0000210A375822012099380EEE56224FDF8B9
:100FF0008862860308860408860518188B538C546B
:101000008D55E555FB30E7047A438013EB5460605F
:10101000047A50800AEB30E6047A4980027A588AD2
:1010200082C00212099375823A12099375823012B6
:101030000993758278120993D002BA4902800BBADB
:10104000500280068554821209C68553821209C651
:101050008051D209755A0A804A755A088045755AD6
:101060000A8040755A10803BD2028037D203803309
:10107000D204802FE56224FDF88862860308860486
:1010800008860518188B538C548D558B828C838D54
:10109000F0E5581207CDA3E5591207CD80058A82E5
:1010A000120993200206200303300470E56224FC39
:1010B000F8886286030886040886050886061818DC
:1010C000188B538C548D558E56E553E554E555E5F4
:1010D000568B828C838DF0EE1213B674FFB55C03D1
:1010E000755C06300427747F5556FB8B57E557EB2C
:1010F0002BFB8B57E55530E70674014557F557E54F
:101100005724684006749925574002D203300306DD
:10111000120C8F020D7D120A1C020D7DE55A700320
:10112000020D7D7B68300A2BE56214F88862E6FCCC
:101130003395E0FDFEFF8C538D548E558F5620095C
:101140005EAC537D007E007F008C538D548E558F96
:1011500056804C300B1FE56224FCF8886286040838
:1011600086050886060886071818188C538D548E35
:10117000558F56802AE56224FEF888628604088628
:101180000518ED3395E0FEFF8C538D548E558F5628
:1011900020090CAC53AD547E007F008E558F563025
:1011A0000C43E55345544555455660397408B55AC6
:1011B0000C758230C003120993D00380287410B5D7
:1011C0005A23758230C003120993D00330010C7585
:1011D0008278C003120993D003800A758258C00335
:1011E000120993D003300925AC53AD54AE55E556E2
:1011F000FF30E717C3E49CFCE49DFDE49EFEE49F02
:10120000FF8C538D548E558F568002C209755D0038
:10121000D20D8B00755700C0001209DDD000200DE3
:101220000DE557C4FCE6FD4CF61888038002A6576E
:10123000055DB20DE55345544555455670D68803B6
:10124000E55B7003755B0120061A200517E55D0458
:10125000FCC3955B500E758220C003120993D00326
:10126000155B80E930090E75822DC003120993D0F9
:1012700003155B8024E55D602030070E75822BC06E
:1012800003120993D003155B800F30080C75822080
:10129000C003120993D003155B20051EAC5B155BE0
:1012A000C3E55D9C50273006047C3080027C208C96
:1012B00082C003120993D00380E2C3E55D955B50C1
:1012C00009E55BC3955DF55B8003755B008B00AB47
:1012D0005D155DEB6022B20D200D0A08E6C4540FC7
:1012E000FB8B5780078603740F5BF557855782C0C9
:1012F000001209ADD00080D7200503020D7DAB5B45
:10130000155BEB7003020D7D75822012099380EE50
:101310008A82120993020D7D85588285598322AAFB
:1013200082BA0A0810990280FB75990D1099028003
:10133000FB8A9922FCABF0AA83A982749EF582C233
:10134000D1EC30E716D2D1E9F42401F9EAF4340003
:10135000FAEBF43400FBECF43400FC12093202081E
:10136000E3AA82AB83A2F73392D16002D2F7F5826F
:10137000ACF0226040F82582500274FFF582E82428
:10138000F8501ECCCBCAF9E4CC24F85014CBCAF9DF
:10139000E4CB24F8500BCAF9E4CA24F850037900CE
:1013A0002224086010F8C3EC13FCEB13FBEA13FAD9
:1013B000E913F9D8F122C0E0F84582458345F07081
:1013C00009F5F0FBFCFDFE021484E823A2F792E08D
:1013D000F8A982AA83D2F7ABF07C007E07C374978A
:1013E00098404074FF2EFE740A89F0A4F985F082BB
:1013F000740A8AF0A4FA85F083740A8BF0A4FB7453
:101400000529F9EA3582FAEB3583FB740035F0FCE7
:10141000C3EC13FCEB13FBEA13FAE913F908EC70C5
:10142000EF80BAE8C3947FF88B838EF0E4FBFCFD79
:10143000FEFF08C3E933F9EA33FAE58333F583EBBA
:101440003BD4FBEC3CD4FCED3DD4FDEE3ED4FEEFB2
:101450003FD4FF602D05F074052BD4FBE43CD4FC95
:10146000E43DD4FDE43ED4FEE43FD4FF758204C3E2
:10147000EF13FFEE13FEED13FDEC13FCEB13FBD5A6
:1014800082EDD8AF7863D0E020E704762B80027637
:101490002D087906E7C4540F4430F608B9060376E0
:1014A0002E08E7540F4430F60819B902E7764508CC
:1014B000E5F020E704762B8004762DF4040875F01F
:1014C0000A844430F608E5F04430F608E4F690006B
:1014D0006375F04022AA82AB83ACF07D007E008A67
:1014E000828B838CF0120674FFA3AA82AB83EF6019
:1014F000070DBD00EA0E80E78D828E83220000007A
:00000001FF
