:10000000020003758131120154E582600302006F22
:10001000780079007A007B007C007D00EC4D601C4C
:1000200088828983E493A3A882A9838A828B83F040
:10003000A3AA82AB831CBCFFE31D80E07582007520
:1000400083007C007D00EC4D600AE4F0A31CBCFF43
:10005000F51D80F27582007583007C007D00EC4DFB
:10006000600AE4F0A31CBCFFF51D80F212015312DC
:10007000020D80FE1B5B324A0045464D382050651C
:1000800072696F64206D6561737572656D656E74FC
:100090002061742070696E2050302E312075736994
:1000A0006E672054696D657220302E0A46696C6552
:1000B0003A2025730A436F6D70696C65643A202598
:1000C000732C2025730A0A00433A5C4D756E7461E7
:1000D0006B696D5F46696C65735C5363686F6F6CC9
:1000E0005C5363686F6F6C5F576F726B5C456E67D4
:1000F000696E656572696E675F42616368656C6FA2
:1001000072735C323032335C454C45435F32393177
:100110005C4C61625F345C454C45433239315F4C25
:100120006162345C506572696F6445464D382E6378
:100130000046656220323620323032340031363AA1
:1001400031373A3438000D543D2566206D73202038
:100150002020002275A7007597DE7597AD43FF80BC
:1001600075EF0275A71075C12075A70075A90075F8
:10017000A900E5A930E7FB75A90375A903E5A93036
:10018000E7FB43A41075E10175E20075E340759843
:1001900010858E8E758DE6858D8B53890F43892052
:1001A000D28ED29975820022AA82438E407592B86F
:1001B0007593FF8592948593957591047B00C3EBAD
:1001C0009A500BE59130E7FB53917F0B80F07591CE
:1001D0000022AA82AB83BA0004BB0001227582F917
:1001E000C002C0031201A87582F91201A87582F934
:1001F0001201A87582FA1201A8D003D0021ABAFF20
:10020000011B80D25389F0438901C28C221202045F
:100210009001F41201D27474C0E07400C0E07480E4
:10022000C0E01203CA158115811581743DC0E074C8
:1002300001C0E07480C0E07431C0E07401C0E074BB
:1002400080C0E074C8C0E07400C0E07480C0E07496
:1002500079C0E07400C0E07480C0E01203CAE58198
:1002600024F4F581758A00758C00C28D7509002013
:1002700081FD3081FDD28C308109108D0280F8051E
:100280000980F4208109108D0280F8050980F4C2EC
:100290008CAB8C7A0074102AFAE43BFBAC8A7D00AC
:1002A000EC2AF582ED3BF5831203EBAA82AB83AC1B
:1002B000F0FDC002C003C004C00590F4FC75F0322C
:1002C0007434120312AA82AB83ACF0FDE58124FCE6
:1002D000F581C002C003C004C00590000075F07A2B
:1002E0007444120312AA82AB83ACF0FDE58124FCB6
:1002F000F581C002C003C004C0057446C0E07401AB
:10030000C0E07480C0E01203CAE58124F9F58102DF
:10031000026412047ABC0003020419EF60FA30D5BB
:1003200002B2D1E583B4FF0302042FE582B4FF03D8
:1003300002042F258340072482400B0204192483E2
:1003400014500302042FF582EA8DF0A4A8F0EA8E7F
:10035000F0A428F8E435F0F9EB8DF0A428E935F0A5
:10036000F9E433CA8FF0A429F9EA35F0FAEBF88EF4
:10037000F0A429F9EA35F0FAE433FBEC8DF0A42976
:10038000F9EA35F0FAE43BFBE88FF0A42AFAEB3502
:10039000F0FBE433CCFD8EF0A42AFAEB35F0FBE45D
:1003A0003CFCED8FF0A42BFBEC35F0FC20E70312B6
:1003B00004470203F8020E3485821985831A85F0FA
:1003C0001B850A1C9003B5020887C008858108E5D3
:1003D0000824FBF51CE50824FBF8861908861A0892
:1003E000861B9003B5120887D00822AC83AB827AB3
:1003F000007900748E020E52B98003EA13B34010E4
:10040000EA2401FAE43BFBE43CFC50047C800582D6
:10041000BC000EBB000BBA0008E4F5F0F583F582D2
:1004200022A2D1E582138CF092F78B838A8222E498
:10043000F583F58275F080F4A2D11322E4F583F5FB
:100440008275F0C0747F227804EC7011E58224F884
:10045000500AF582E4C9CACBFCD8EF22EC7820051B
:100460008220E713D5820122C3E933F9EA33FAEB9C
:1004700033FBEC33FCD8EA158222AA82AB83A2F7C5
:100480003392D16002D2F7F582ACF0E58124F9F81D
:10049000E6FD08E6FE0886F008E6A2F73392D5608E
:1004A00002D2F7F583AFF022AA8274B9C0E07404D7
:1004B000C0E0C00BC00C8A82220512E4B51202050E
:1004C0001322AA8274302AFA24C6500A74072AFA20
:1004D0003000034302208A820204A8E582FAC45451
:1004E0000FF582C0021204C2D002740F5AF58202C4
:1004F00004C2AA0DAB0EAC0FAD10AE11751820EEF4
:100500002EFEED235401FF4206EA2AFAEB33FBEC00
:1005100033FCED33FDC3EE95144008EEC39514FE95
:10052000430201D518D98A0D8B0E8C0F8D108E11B8
:1005300022782EE624D075F00AA4FA782FE624D08B
:100540002AFA782D8603BB2D04C3E49AFA751401A8
:10055000C3E464808AF063F08095F0502975180335
:100560008A0374F62518401C0514E518142422F893
:10057000E5182422F98704A604772E1BEBFA600401
:10058000051880DE8B02EA30E70D78238603782495
:10059000A6037823762E0AE516600AE51604FB25E5
:1005A00014F5148005300B02051478228603E4BB91
:1005B0002D0104FB700620060330070205143004E9
:1005C00003020678300557EB600C75822DC00212CD
:1005D00004A8D002801C30060C75822BC0021204C5
:1005E000A8D002800D30070A758220C0021204A82C
:1005F000D00278238604BC2E0C758230C00212040F
:10060000A8D0021515AC151515C3E5149C400302BE
:1006100006BC758230C0021204A8D00280E7AC1577
:100620001515C3E5149C500C758220C0021204A855
:10063000D00280EA78228604BC2D0C75822DC0027F
:100640001204A8D002801C30060C75822BC0021246
:1006500004A8D002800D30070A758220C00212045F
:10066000A8D00278238604BC2E52758230C00212B4
:1006700004A8D00215158044EB600E75822DC002CF
:100680001204A8D0021515802030060E75822BC0EA
:10069000021204A8D0021515800F30070C758220B5
:1006A000C0021204A8D002151578238603BB2E0CB5
:1006B000758230C0021204A8D0021515751801C247
:1006C0000DE5182422F88603BB4503020779BB2EEB
:1006D000348A03C3E464808BF063F08095F0500F9C
:1006E000758230C0031204A8D0031B8B0280E48BF8
:1006F00002D20DE5167038200B0302077975822EA1
:100700001204A88074300D278A03EB30E71FC3E47E
:1007100064808516F063F08095F0500C758230C0CF
:10072000031204A8D00315160B8B0280DD8B023058
:100730000D0EC3E464808516F063F08095F05021BF
:10074000E5182422F886038B82C0021204A8D00286
:10075000300D0EE5182422F88603BB2E0280021508
:10076000161515C3E464808516F063F08095F0409B
:1007700003200D0505180206C1C3E464808516F048
:1007800063F08095F0500A7582301204A815168027
:10079000E830040FAA151515EA60087582201204C6
:1007A000A880F122E5167003300B0D74072516FAA8
:1007B000E515C39AF5158006E51524FAF5157518A3
:1007C0000078228602BA2B0F20060C782276202091
:1007D00007057518010515200419AA15C3E46480DE
:1007E0008AF063F08095F0500A7582201204A815F3
:1007F0001580E7C20DE5182422F88602BA000280AF
:1008000069BA451F3000027665C3E464808516F03E
:1008100063F08095F0500A7582301204A815168096
:10082000E8D20DC3E5189402E433FA7014EA700EAE
:10083000C3E464808516F063F08095F04003300DCA
:1008400016E5182422F886028A821204A8E51824E4
:10085000FD50121516800E7402B51809300B06757E
:10086000822E1204A805180207F5300419AA15C330
:10087000E464808AF063F08095F0500A758220125B
:1008800004A8151580E72285820B85830CE4F512F8
:10089000F513AA19AB1AAC1B8A828B838CF0120E4B
:1008A00076FD74012AF519E43BF51A8C1BEDFA70FC
:1008B00003020E2DBA25028003020E25C204C205D2
:1008C000C206C207C208C209C20AC20BC201C202E2
:1008D000C2037514007515007516FFAB19AC1AAD7F
:1008E0001B8B828C838DF0120E76FAA3AB82AC83C5
:1008F0008B198C1A8D1BBA25078A821204A8809244
:100900008A06BE3000402E8A06EE24C6402774FFB9
:10091000B51613E51575F00AA4FEEA24D02EF515D8
:1009200070BFD20580BBE51675F00AA4FEEA24D09C
:100930002EF51680ACBA2E0A74FFB516A4751600F3
:10094000809F8A06BE6100400E8A06EE248540071D
:100950005302DFD2008002C200BA20028075BA239F
:10096000030209E2BA2A030209E7BA2B02805FBA3E
:100970002D028055BA4202805FBA4303020A2CBAA4
:100980004403020B67BA4503020B81BA4603020B0C
:100990007DBA4703020B85BA4903020B67BA4C02C2
:1009A000803BBA4E03020B89BA4F03020B6EBA505A
:1009B00003020B00BA5303020A50BA5503020B7329
:1009C000BA5803020B78020BB3D2040208E1D20634
:1009D0000208E1D2070208E1D2090208E1D20A02C4
:1009E00008E1D20B0208E174FFB5162030090BE5CF
:1009F0001C14F8881C86150208E1E51C24FEF88802
:100A00001C8606088607188E150208E130090BE5DA
:100A10001C14F8881C86160208E1E51C24FEF888E0
:100A20001C8606088607188E160208E130090AE5BA
:100A30001C14F8881C8602800FE51C24FEF8881C14
:100A40008603088604188B028A821204A8020BB857
:100A5000E51C24FDF8881C86030886040886051812
:100A6000188B0D8C0E8D0F8B828C838DF0120FCA1C
:100A7000AB82AC838B1774FFB51603851716200461
:100A80001DC3E51795155016E515C39517F515AB5C
:100A9000151515EB60087582201204A880F1850DEC
:100AA00082850E83850FF0120E76FBFA6029AB1655
:100AB0001516C3E464808BF063F08095F050188ABB
:100AC000821204A8AB0DAC0EAD0F0BBB00010C8B5A
:100AD0000D8C0E8D0F80C7200403020BB8C3E517E1
:100AE00095154003020BB8E515C39517F515AB1521
:100AF0001515EB7003020BB87582201204A880EE66
:100B0000E51C24FDF8881C86030886040886051861
:100B1000188B0D8C0E8D0FE50FFB30E7047A4380A8
:100B200013EB546060047A50800AEB30E6047A4993
:100B300080027A588A82C0021204A875823A12048E
:100B4000A87582301204A87582781204A8D002BA5F
:100B50004902800BBA50028006850E821204DB85A2
:100B60000D821204DB8051D20875140A804A751474
:100B700008804575140A8040751410803BD20180AE
:100B800037D2028033D203802FE51C24FDF8881C65
:100B9000860308860408860518188B0D8C0E8D0FA9
:100BA0008B828C838DF0E512120FB1A3E513120F27
:100BB000B180058A821204A82001062002033003B6
:100BC00070E51C24FCF8881C86030886040886054A
:100BD0000886061818188B0D8C0E8D0F8E10E50DDB
:100BE000E50EE50FE5108B828C838DF0EE120E92F0
:100BF00074FFB51603751606300327747F5510FB76
:100C00008B11E511EB2BFB8B11E50F30E70674011F
:100C10004511F511E511246840067499251140022B
:100C2000D2023002061207A402089212053102080D
:100C300092E51470030208927B2730092BE51C14FF
:100C4000F8881CE6FC3395E0FDFEFF8C0D8D0E8EC2
:100C50000F8F1020085EAC0D7D007E007F008C0D94
:100C60008D0E8E0F8F10804C300A1FE51C24FCF86F
:100C7000881C860408860508860608860718181842
:100C80008C0D8D0E8E0F8F10802AE51C24FEF888A7
:100C90001C860408860518ED3395E0FEFF8C0D8D4B
:100CA0000E8E0F8F1020080CAC0DAD0E7E007F0055
:100CB0008E0F8F10300B43E50D450E450F4510602C
:100CC000397408B5140C758230C0031204A8D0031F
:100CD00080287410B51423758230C0031204A8D084
:100CE0000330000C758278C0031204A8D003800A78
:100CF000758258C0031204A8D003300825AC0DAD8E
:100D00000EAE0FE510FF30E717C3E49CFCE49DFD39
:100D1000E49EFEE49FFF8C0D8D0E8E0F8F108002DF
:100D2000C208751700D20C8B00751100C0001204A8
:100D3000F2D000200C0DE511C4FCE6FD4CF618883D
:100D4000038002A6110517B20CE50D450E450F45AF
:100D50001070D68803E515700375150120051A205B
:100D60000417E51704FCC39515500E758220C003C7
:100D70001204A8D003151580E930080E75822DC025
:100D8000031204A8D00315158024E517602030064F
:100D90000E75822BC0031204A8D0031515800F30E6
:100DA000070C758220C0031204A8D0031515200477
:100DB0001EAC151515C3E5179C50273005047C3073
:100DC00080027C208C82C0031204A8D00380E2C37E
:100DD000E51795155009E515C39517F515800375A9
:100DE00015008B00AB171517EB6022B20C200C0A14
:100DF00008E6C4540FFB8B1180078603740F5BF564
:100E000011851182C0001204C2D00080D7200403D3
:100E1000020892AB151515EB70030208927582203B
:100E20001204A880EE8A821204A802089285128217
:100E300085138322AA82BA0A0810990280FB759949
:100E40000D10990280FB8A9922FCABF0AA83A9823B
:100E5000749EF582C2D1EC30E716D2D1E9F42401B8
:100E6000F9EAF43400FAEBF43400FBECF43400FC5F
:100E70001204470203F820F71430F6148883A8827E
:100E800020F507E6A88375830022E280F7E4932229
:100E9000E022C0E0F84582458345F07009F5F0FB9B
:100EA000FCFDFE020F60E823A2F792E0F8A982AAF7
:100EB00083D2F7ABF07C007E07C3749798404074F0
:100EC000FF2EFE740A89F0A4F985F082740A8AF074
:100ED000A4FA85F083740A8BF0A4FB740529F9EA5F
:100EE0003582FAEB3583FB740035F0FCC3EC13FC60
:100EF000EB13FBEA13FAE913F908EC70EF80BAE898
:100F0000C3947FF88B838EF0E4FBFCFDFEFF08C3E7
:100F1000E933F9EA33FAE58333F583EB3BD4FBECB1
:100F20003CD4FCED3DD4FDEE3ED4FEEF3FD4FF605B
:100F30002D05F074052BD4FBE43CD4FCE43DD4FD3A
:100F4000E43ED4FEE43FD4FF758204C3EF13FFEE0A
:100F500013FEED13FDEC13FCEB13FBD582EDD8AFC4
:100F60007822D0E020E704762B8002762D087906DF
:100F7000E7C4540F4430F608B90603762E08E75448
:100F80000F4430F60819B902E7764508E5F020E786
:100F900004762B8004762DF4040875F00A8444301E
:100FA000F608E5F04430F608E4F690002275F040CB
:100FB0002220F71030F6118883A88220F507F6A8C2
:100FC0008375830022F280F7F022AA82AB83ACF013
:100FD0007D007E008A828B838CF0120E76FFA3AA9E
:100FE00082AB83EF60070DBD00EA0E80E78D828E35
:100FF000832200000000000000000000000000004C
:00000001FF
