:1000000002000375816E1201AFE582600302006F8A
:10001000780079007A007B007C007D00EC4D601C4C
:1000200088828983E493A3A882A9838A828B83F040
:10003000A3AA82AB831CBCFFE31D80E07582007520
:1000400083007C007D00EC4D600AE4F0A31CBCFF43
:10005000F51D80F27582007583007C007D00EC4DFB
:10006000600AE4F0A31CBCFFF51D80F21201AE1281
:1000700004DD80FE1B5B324A005479706520496EB6
:1000800074656E64656420446973706C617920697D
:100090006E204C696E65203220283136204368611D
:1000A00072204D6178293A20000A00504552494F8C
:1000B000443A202569004C434420342D4269742081
:1000C000546573740048656C6C6F2C20576F726CAC
:1000D00064210045464D3820506572696F64206D7B
:1000E0006561737572656D656E74206174207069E9
:1000F0006E2050302E31207573696E672054696D03
:10010000657220302E0A46696C653A2025730A43D1
:100110006F6D70696C65643A2025732C2025730A15
:100120000A00433A5C4D756E74616B696D5F466998
:100130006C65735C5363686F6F6C5C5363686F6F5F
:100140006C5F576F726B5C456E67696E656572694F
:100150006E675F42616368656C6F72735C323032E8
:10016000335C454C45435F3239315C4C61625F34EE
:100170005C454C45433239315F4C6162345C436FBE
:1001800064655C4C6162342E6300466562203230E7
:1001900020323032340032323A32353A3536000DC0
:1001A00054203D202566206D7320202020002275DC
:1001B000A7007597DE7597AD43FF8075EF0275A7B1
:1001C0001075C12075A70075A90075A900E5A930B3
:1001D000E7FB75A90375A903E5A930E7FB43A41064
:1001E00075E10175E20075E340759810858E8E7596
:1001F0008DE6858D8B53890F438920D28ED29975D8
:10020000820022AA82438E407592B87593FF859230
:10021000948593957591047B00C3EB9A500BE591FF
:1002200030E7FB53917F0B80F075910022AA82ABDF
:1002300083BA0004BB0001227582F9C002C0031218
:1002400002037582F91202037582F91202037582A4
:10025000FA120203D003D0021ABAFF011B80D25354
:1002600089F0438901C28C229001F412022D74742A
:10027000C0E07400C0E07480C0E012073A15811538
:1002800081158122D2A5758228120203C2A522AA55
:10029000828AE0A2E792A1A2E692A2A2E592A3A29C
:1002A000E492A4C002120284758228120203D002D2
:1002B0008AE0A2E392A1A2E292A2A2E192A3A2E02A
:1002C00092A4020284AA82D2A68A8212028F90008D
:1002D0000202022DAA82C2A68A8212028F90000513
:1002E00002022DC2A590001412022D758233120253
:1002F000D47582331202D47582321202D4758228E8
:100300001202D475820C1202D47582011202D490AA
:10031000001402022DAA82AB83ACF07402B5230450
:100320007DC080027D808D82C002C003C0041202A5
:10033000D490000512022DD004D003D0027D007E9F
:1003400000ED2AFFEE3BF88C018F82888389F01242
:100350000632FF60208F82C002C003C004C005C007
:10036000061202C5D006D005D004D003D0020DBDC0
:1003700000CF0E80CC3000248D028E03C3EA94108F
:10038000EB648094805015758220C002C003120275
:10039000C5D003D0020ABA00E30B80E02285822692
:1003A00085832785F028E4F529F52AE52424FFFF35
:1003B000E52534FFF879007A00C3E99FEA64808874
:1003C000F063F08095F05059C002C007C000C00132
:1003D00012075BAB82D001D000D007D002BB0A026B
:1003E0008003BB0D1DE5292526FCE52A3527FDAE3A
:1003F000288C828D838EF0E412076E852982852AEF
:100400008322E92526FCEA3527FDAE288C828D83E0
:100410008EF0EB12076E09B900010A89298A2A8039
:1004200098E5292526FAE52A3527FBAC288A828B10
:10043000838CF0E412076E85248285258322AA82AC
:10044000AB83ACF0C002C003C0047479C0E0740098
:10045000C0E07480C0E012073A158115811581D083
:1004600004D003D002852B24852C258A828B838C93
:10047000F0C002C003C00412039D74A9C0E0740060
:10048000C0E07480C0E012073A158115811581D053
:1004900004D003D002752301D2008A828B838CF0B2
:1004A00002031512064EAA82AB83C002C00374ABCE
:1004B000C0E07400C0E07480C0E0742DC0E074003F
:1004C000C0E07440C0E01207D6E58124F8F58175DC
:1004D0002302D20090002D75F04002031512025F36
:1004E0001202681202E3752301D2009000B675F083
:1004F00080120315752302D2009000C575F080129A
:1005000003157496C0E07401C0E07480C0E0748A82
:10051000C0E07401C0E07480C0E07422C0E07401E7
:10052000C0E07480C0E074D3C0E07400C0E07480A8
:10053000C0E012073AE58124F4F581758A00758CD4
:1005400000C28D7522002081FD3081FDD28C30816A
:1005500009108D0280F8052280F4208109108D0297
:1005600080F8052280F4C28CE52275F012A4FAAB63
:10057000F0E58C75F00AA42AFAEB35F0FBAC8A7D25
:1005800000EC2AF582ED3BF58312081CAA82AB83AE
:10059000ACF0FDC002C003C004C00590F4FC75F0CF
:1005A000327434120682AA82AB83ACF0FDE581245A
:1005B000FCF5819003E8C002C003C004C00512022C
:1005C0002DD005D004D003D002C002C003C004C0A7
:1005D00005C002C003C004C00590000075F07A7425
:1005E00044120682AE82AF83A8F0F9E58124FCF5BF
:1005F00081C006C007C000C001749FC0E07401C084
:10060000E07480C0E012073AE58124F9F581752B8A
:1006100010E4F52C90003D75F04012043ED005D05A
:1006200004D003D0028A828B838CF0ED1204A302E3
:10063000053B20F71430F6148883A88220F507E6DE
:10064000A88375830022E280F7E49322E022120857
:1006500029700AE582458345F0700122E430D11209
:10066000F4700BE5F0F47006E58330E7012290802A
:100670000022700AE5F07006E58320E70122907FF2
:10068000FF22120906BC00030208A5EF60FA30D56C
:1006900002B2D1E583B4FF030208BBE582B4FF03D5
:1006A0000208BB258340072482400B0208A524834F
:1006B0001450030208BBF582EA8DF0A4A8F0EA8E7C
:1006C000F0A428F8E435F0F9EB8DF0A428E935F032
:1006D000F9E433CA8FF0A429F9EA35F0FAEBF88E81
:1006E000F0A429F9EA35F0FAE433FBEC8DF0A42903
:1006F000F9EA35F0FAE43BFBE88FF0A42AFAEB358F
:10070000F0FBE433CCFD8EF0A42AFAEB35F0FBE4E9
:100710003CFCED8FF0A42BFBEC35F0FC20E7031242
:1007200008D30208840212C085825B85835C85F051
:100730005D85105E900725020D13C008858108E5D0
:100740000824FBF55EE50824FBF8865B08865C0858
:10075000865D900725120D13D0082210980280FBA9
:10076000AA998A82C0021212C0D0028A822220F77D
:100770001030F6118883A88220F507F6A8837583C8
:100780000022F280F7F022AA82AB09AC0AAD0B8BF3
:10079000828C838DF0EA12076E0509E4B509020523
:1007A0000A2285820985830A85F00B850C5B850DFD
:1007B0005C850E5D850F5E900787120D13AA82ABD4
:1007C00083AC09AD0AAE0B8C828D838EF0E41207E8
:1007D0006E8A828B8322C008858108E50824F8F59B
:1007E0005EE50824FBF8860908860A08860BE508FA
:1007F00024F8F8865B08865C08865D900787120DF2
:1008000013AA82AB83AC09AD0AAE0B8C828D838EAA
:10081000F0E412076E8A828B83D00822AC83AB820D
:100820007A007900748E0212DE121302C3749E9550
:10083000824039790012131430D126E9F42401F5ED
:1008400082EAF43400F583EBF43400F5F0ECF43490
:1008500000700AE582458345F0700122E430E70F1D
:1008600022EC20E71489828A838BF02230D10AE4BB
:10087000F582F583F5F074802274FFF582F583F537
:10088000F0747F22B98003EA13B34010EA2401FA1E
:10089000E43BFBE43CFC50047C800582BC000EBBC6
:1008A000000BBA0008E4F5F0F583F58222A2D1E549
:1008B00082138CF092F78B838A8222E4F583F5828F
:1008C00075F080F4A2D11322E4F583F58275F0C0AF
:1008D000747F227804EC7011E58224F8500AF582C6
:1008E000E4C9CACBFCD8EF22EC7820058220E713BC
:1008F000D5820122C3E933F9EA33FAEB33FBEC3357
:10090000FCD8EA158222AA82AB83A2F73392D16087
:1009100002D2F7F582ACF0E58124F9F8E6FD08E6AD
:10092000FE0886F008E6A2F73392D56002D2F7F50A
:1009300083AFF022AA827445C0E07409C0E0C04DC4
:10094000C04E8A82220554E4B55402055522AA827B
:1009500074302AFA24C6500A74072AFA3001034375
:1009600002208A82020934E582FAC4540FF582C05B
:100970000212094ED002740F5AF58202094EAA4F94
:10098000AB50AC51AD52AE53755A20EE2EFEED2356
:100990005401FF4206EA2AFAEB33FBEC33FCED3359
:1009A000FDC3EE95564008EEC39556FE430201D5B1
:1009B0005AD98A4F8B508C518D528E5322786BE6C8
:1009C00024D075F00AA4FA786CE624D02AFA786A62
:1009D0008603BB2D04C3E49AFA755601C3E4648010
:1009E0008AF063F08095F05029755A038A0374F6F3
:1009F000255A401C0556E55A14245FF8E55A245F31
:100A0000F98704A604772E1BEBFA6004055A80DEF2
:100A10008B02EA30E70D786086037861A603786080
:100A2000762E0AE558600AE55804FB2556F55680EF
:100A300005300C020556785F8603E4BB2D0104FBEC
:100A400070062007033008020556300503020B0428
:100A5000300657EB600C75822DC002120934D002AB
:100A6000801C30070C75822BC002120934D0028022
:100A70000D30080A758220C002120934D002786055
:100A80008604BC2E0C758230C002120934D00215C7
:100A900057AC571557C3E5569C4003020B48758267
:100AA00030C002120934D00280E7AC571557C3E5B5
:100AB000569C500C758220C002120934D00280EA84
:100AC000785F8604BC2D0C75822DC002120934D0CB
:100AD00002801C30070C75822BC002120934D00230
:100AE000800D30080A758220C002120934D00278C5
:100AF000608604BC2E52758230C002120934D002C6
:100B000015578044EB600E75822DC002120934D057
:100B1000021557802030070E75822BC0021209344F
:100B2000D0021557800F30080C758220C0021209C0
:100B300034D002155778608603BB2E0C758230C006
:100B400002120934D0021557755A01C20EE55A2413
:100B50005FF88603BB4503020C05BB2E348A03C332
:100B6000E464808BF063F08095F0500F758230C0A4
:100B700003120934D0031B8B0280E48B02D20EE5F2
:100B8000587038200C03020C0575822E120934802F
:100B900074300E278A03EB30E71FC3E46480855866
:100BA000F063F08095F0500C758230C00312093468
:100BB000D00315580B8B0280DD8B02300E0EC3E480
:100BC00064808558F063F08095F05021E55A245FE9
:100BD000F886038B82C002120934D002300E0EE573
:100BE0005A245FF88603BB2E02800215581557C39E
:100BF000E464808558F063F08095F04003200E0592
:100C0000055A020B4DC3E464808558F063F080956B
:100C1000F0500A758230120934155880E830050FFB
:100C2000AA571557EA600875822012093480F1220C
:100C3000E5587003300C0D74072558FAE557C39A30
:100C4000F5578006E55724FAF557755A00785F8600
:100C500002BA2B0F20070C785F7620200805755A02
:100C6000010557200519AA57C3E464808AF063F090
:100C70008095F0500A758220120934155780E7C21A
:100C80000EE55A245FF88602BA00028069BA451F51
:100C90003001027665C3E464808558F063F0809586
:100CA000F0500A758230120934155880E8D20EC30C
:100CB000E55A9402E433FA7014EA700EC3E46480D7
:100CC0008558F063F08095F04003300E16E55A2405
:100CD0005FF886028A82120934E55A24FD50121503
:100CE00058800E7402B55A09300C0675822E12090E
:100CF00034055A020C81300519AA57C3E464808A6E
:100D0000F063F08095F0500A75822012093415576F
:100D100080E72285824D85834EE4F554F555AA5B24
:100D2000AB5CAC5D8A828B838CF0120632FD740161
:100D30002AF55BE43BF55C8C5DEDFA70030212B9B9
:100D4000BA250280030212B1C205C206C207C20858
:100D5000C209C20AC20BC20CC202C203C204755647
:100D6000007557007558FFAB5BAC5CAD5D8B828C3A
:100D7000838DF0120632FAA3AB82AC838B5B8C5C62
:100D80008D5DBA25078A8212093480928A06BE30A8
:100D900000402E8A06EE24C6402774FFB55813E59E
:100DA0005775F00AA4FEEA24D02EF55770BFD2067C
:100DB00080BBE55875F00AA4FEEA24D02EF55880D1
:100DC000ACBA2E0A74FFB558A4755800809F8A06E5
:100DD000BE6100400E8A06EE248540075302DFD232
:100DE000018002C201BA20028075BA2303020E6E8E
:100DF000BA2A03020E73BA2B02805FBA2D02805505
:100E0000BA4202805FBA4303020EB8BA4403020F2B
:100E1000F3BA450302100DBA4603021009BA47039C
:100E2000021011BA4903020FF3BA4C02803BBA4ECA
:100E300003021015BA4F03020FFABA5003020F8CC7
:100E4000BA5303020EDCBA5503020FFFBA5803026D
:100E5000100402103FD205020D6DD207020D6DD2B3
:100E600008020D6DD20A020D6DD20B020D6DD20C6F
:100E7000020D6D74FFB55820300A0BE55E14F8883A
:100E80005E8657020D6DE55E24FEF8885E860608D4
:100E90008607188E57020D6D300A0BE55E14F88830
:100EA0005E8658020D6DE55E24FEF8885E860608B3
:100EB0008607188E58020D6D300A0AE55E14F88810
:100EC0005E8602800FE55E24FEF8885E8603088653
:100ED00004188B028A82120934021044E55E24FD54
:100EE000F8885E860308860408860518188B4F8CE0
:100EF000508D518B828C838DF0121476AB82AC8333
:100F00008B5974FFB5580385595820051DC3E55901
:100F100095575016E557C39559F557AB571557EBED
:100F2000600875822012093480F1854F82855083D4
:100F30008551F0120632FBFA6029AB581558C3E40C
:100F400064808BF063F08095F050188A8212093427
:100F5000AB4FAC50AD510BBB00010C8B4F8C508D87
:100F60005180C7200503021044C3E559955740033B
:100F7000021044E557C39559F557AB571557EB7019
:100F80000302104475822012093480EEE55E24FDD0
:100F9000F8885E860308860408860518188B4F8C2F
:100FA000508D51E551FB30E7047A438013EB5460D8
:100FB00060047A50800AEB30E6047A4980027A585D
:100FC0008A82C00212093475823A1209347582305D
:100FD000120934758278120934D002BA4902800BA2
:100FE000BA50028006855082120967854F82120925
:100FF000678051D20975560A804A75560880457532
:10100000560A8040755610803BD2028037D203804A
:1010100033D204802FE55E24FDF8885E86030886BF
:101020000408860518188B4F8C508D518B828C8349
:101030008DF0E55412076EA3E55512076E80058A00
:1010400082120934200206200303300470E55E2476
:10105000FCF8885E8603088604088605088606185C
:1010600018188B4F8C508D518E52E54FE550E5513D
:10107000E5528B828C838DF0EE12135774FFB558B6
:1010800003755806300427747F5552FB8B53E55384
:10109000EB2BFB8B53E55130E70674014553F553B9
:1010A000E55324684006749925534002D203300367
:1010B00006120C30020D1E1209BD020D1EE55670FF
:1010C00003020D1E7B64300A2BE55E14F8885EE691
:1010D000FC3395E0FDFEFF8C4F8D508E518F5220DA
:1010E000095EAC4F7D007E007F008C4F8D508E518D
:1010F0008F52804C300B1FE55E24FCF8885E86041E
:101100000886050886060886071818188C4F8D5023
:101110008E518F52802AE55E24FEF8885E86040890
:10112000860518ED3395E0FEFF8C4F8D508E518F64
:101130005220090CAC4FAD507E007F008E518F5273
:10114000300C43E54F45504551455260397408B560
:10115000560C758230C003120934D00380287410F5
:10116000B55623758230C003120934D00330010C08
:10117000758278C003120934D003800A758258C082
:1011800003120934D003300925AC4FAD50AE51E500
:1011900052FF30E717C3E49CFCE49DFDE49EFEE4AF
:1011A0009FFF8C4F8D508E518F528002C20975590E
:1011B00000D20D8B00755300C00012097ED00020B4
:1011C0000D0DE553C4FCE6FD4CF61888038002A61D
:1011D000530559B20DE54F45504551455270D688DB
:1011E00003E557700375570120061A200517E559C6
:1011F00004FCC39557500E758220C003120934D0E9
:1012000003155780E930090E75822DC00312093489
:10121000D00315578024E559602030070E75822BC6
:10122000C003120934D0031557800F30080C7582A3
:1012300020C003120934D003155720051EAC5715E2
:1012400057C3E5599C50273006047C3080027C202F
:101250008C82C003120934D00380E2C3E55995574C
:101260005009E557C39559F55780037557008B0012
:10127000AB591559EB6022B20D200D0A08E6C45493
:101280000FFB8B5380078603740F5BF553855382E6
:10129000C00012094ED00080D7200503020D1EABFE
:1012A000571557EB7003020D1E758220120934800A
:1012B000EE8A82120934020D1E85548285558322DE
:1012C000AA82BA0A0810990280FB75990D1099023A
:1012D00080FB8A9922FCABF0AA83A982749EF582D6
:1012E000C2D1EC30E716D2D1E9F42401F9EAF434A2
:1012F00000FAEBF43400FBECF43400FC1208D302E7
:101300000884AA82AB83A2F73392D16002D2F7F5A8
:1013100082ACF0226040F82582500274FFF582E82A
:1013200024F8501ECCCBCAF9E4CC24F85014CBCA14
:10133000F9E4CB24F8500BCAF9E4CA24F850037935
:10134000002224086010F8C3EC13FCEB13FBEA1333
:10135000FAE913F9D8F122C0E0F84582458345F057
:101360007009F5F0FBFCFDFE021425E823A2F792BC
:10137000E0F8A982AA83D2F7ABF07C007E07C374A1
:101380009798404074FF2EFE740A89F0A4F985F006
:1013900082740A8AF0A4FA85F083740A8BF0A4FBA5
:1013A000740529F9EA3582FAEB3583FB740035F0D0
:1013B000FCC3EC13FCEB13FBEA13FAE913F908EC9A
:1013C00070EF80BAE8C3947FF88B838EF0E4FBFC67
:1013D000FDFEFF08C3E933F9EA33FAE58333F58309
:1013E000EB3BD4FBEC3CD4FCED3DD4FDEE3ED4FE17
:1013F000EF3FD4FF602D05F074052BD4FBE43CD403
:10140000FCE43DD4FDE43ED4FEE43FD4FF75820409
:10141000C3EF13FFEE13FEED13FDEC13FCEB13FB18
:10142000D582EDD8AF785FD0E020E704762B80023C
:10143000762D087906E7C4540F4430F608B9060340
:10144000762E08E7540F4430F60819B902E77645BE
:1014500008E5F020E704762B8004762DF404087567
:10146000F00A844430F608E5F04430F608E4F690DB
:10147000005F75F04022AA82AB83ACF07D007E0055
:101480008A828B838CF0120632FFA3AA82AB83EF91
:1014900060070DBD00EA0E80E78D828E832200007A
:00000001FF
