:10000000020003758135120155E582600302006F1D
:10001000780079007A007B007C007D00EC4D601C4C
:1000200088828983E493A3A882A9838A828B83F040
:10003000A3AA82AB831CBCFFE31D80E07582007520
:1000400083007C827D00EC4D600AE4F0A31CBCFFC1
:10005000F51D80F27582007583007C007D00EC4DFB
:10006000600AE4F0A31CBCFFF51D80F212015412DB
:100070000AB680FE1B5B324A005479706520496ED7
:1000800074656E64656420446973706C617920697D
:100090006E204C696E65203220283136204368611D
:1000A00072204D6178293A20000A00543A20252E0A
:1000B0003366207300463A20252E3366206B487A3B
:1000C00000433A20252E3366206E4600523A202502
:1000D0002E3366206B4F686D730020202020202077
:1000E00020202020202020202020000D4D6F64653E
:1000F0003A2025640D0A004552524F52203A2053AF
:100100004D414C4C2043004552524F52203A204C16
:10011000415247452043004552524F52203A204C0D
:10012000415247452052000D52286B4F686D2920DF
:100130003D2025660D0A000D46286B487A29203D92
:100140002025660D0A000D43286E4629203D2025F6
:10015000660D0A002275A7007597DE7597AD43FFFF
:100160008075EF0675A71075C12075A70075A900E9
:1001700075A900E5A930E7FB75A90375A903E5A9F1
:1001800030E7FB43A41075E10175E20075E34075AB
:100190009810858E8E758DE6858D8B53890F4389DA
:1001A00020D28ED2997582002275A700C2EF75B257
:1001B0008075BC2075B91E75E80075DF3F75B3000A
:1001C000D2EF22E582900012F0900011E0FA8AF05E
:1001D00005F07401800225E0D5F0FBFA75A72090A8
:1001E0000012E0FB600ABB0102800FBB021E8014FC
:1001F000EAF4FB52F1EA42D48012EAF4FB52F2EA4A
:1002000042D58008EAF4FB52F3EA42CC75A70022FB
:100210005389F0438901C28C229001F41202E974DF
:1002200074C0E07400C0E07480C0E01210C2158198
:100230001581158122E582900013F0900013E0F5FE
:10024000BBC2EDD2EC30EDFD85BD8285BE8322E5DB
:1002500082900014F0900014E0F582120235120F23
:1002600015AA82AB83ACF0FDC002C003C004C00578
:10027000906C8B75F0537440120F81AA82AB83ACE3
:10028000F0FDE58124FCF581E4C0E074FCC0E0747D
:100290007FC0E07446C0E08A828B838CF0ED12123E
:1002A00020AA82AB83ACF0FDE58124FCF5818A8233
:1002B0008B838CF0ED22E582900015F0438E407523
:1002C00092B87593FF8592948593957591049000EB
:1002D00015E0FA7B00C3EB9A500BE59130E7FB5336
:1002E000917F0B80F075910022AA83E58290001621
:1002F000F0A3EAF0900016E0FAA3E0FB7C007D009A
:10030000C3EC9AED9B502B7E00BE0400501D7582FD
:10031000FAC002C003C004C005C0061202B6D0066F
:10032000D005D004D003D0020E80DE0CBC00D10D6D
:1003300080CE22D2A07582281202B6C2A022E58207
:10034000900018F0900018E0FA8AE0A2E79290A2DC
:10035000E69291A2E59292A2E49293C00212033334
:100360007582281202B6D0028AE0A2E39290A2E23D
:100370009291A2E19292A2E09293020333E58290DD
:100380000019F0D297900019E0F58212033E900018
:10039000020202E9E58290001AF0C29790001AE08A
:1003A000F58212033E9000050202E9C2A0900014FB
:1003B0001202E97582331203947582331203947525
:1003C000823212039475822812039475820C1203F0
:1003D000947582011203949000140202E9AAF0AB12
:1003E00083E58290001CF0A3EBF0A3EAF090001BE1
:1003F000E0FABA02047AC080027A808A82120394F8
:100400009000051202E990001CE0FAA3E0FBA3E0D3
:10041000FC7D007E00ED2AFFEE3BF88C018F828888
:100420008389F0120EF9FF60208F82C002C003C0E2
:1004300004C005C00612037DD006D005D004D00349
:10044000D0020DBD00CF0E80CC3000248D028E0373
:10045000C3EA9410EB648094805015758220C0022A
:10046000C00312037DD003D0020ABA00E30B80E080
:1004700022AAF0AB83E582900021F0A3EBF0A3EA7F
:10048000F0900024E4F0A3F0900021E0FAA3E0FB58
:10049000A3E0FC90001FE0FDA3E0FEED24FFF50EBD
:1004A000EE34FFF50FE4F509F50AC3E509950EE50D
:1004B0000A6480850FF063F08095F0400302054ADE
:1004C000C002C003C004C005C0061210ECA982D04F
:1004D00006D005D004D003D002B90A028003B90DBA
:1004E00038900021E0F50BA3E0F50CA3E0F50D90AA
:1004F0000024E0F50EA3E0F50FE50E250BF50BE566
:100500000F350CF50C850B82850C83850DF0E412FC
:1005100010FF850E82850F8322C005C006E5092ADB
:10052000FDE50A3BFE8C078D828E838FF0E9121069
:10053000FF0509E4B50902050A900024E509F0A3C6
:10054000E50AF0D006D0050204AA900021E0FAA343
:10055000E0FBA3E0FCE5092AFAE50A3BFB8A828B73
:10056000838CF0E41210FF8D828E8322AAF0AB837D
:10057000E582900028F0A3EBF0A3EAF07479C0E0E4
:100580007400C0E07480C0E01210C215811581159E
:1005900081900028E0FAA3E0FBA3E0FC900026E0B5
:1005A000FDA3E0FE90001FEDF0A3EEF08A828B83A6
:1005B0008CF012047174A9C0E07400C0E07480C0B3
:1005C000E01210C2158115811581900028E0FAA370
:1005D000E0FBA3E0FC90001B7401F0D2008A828B48
:1005E000838CF00203DDAA82AB83ACF0FD90002B7C
:1005F000EAF0A3EBF0A3ECF0A3EDF090002BE0C049
:10060000E0A3E0C0E0A3E0C0E0A3E0C0E074ABC0C2
:10061000E07400C0E07480C0E07401C0E07400C009
:10062000E0E4C0E01211AFE58124F6F58190001BF3
:100630007402F0D20090000175F0000203DDAA827E
:10064000AB83ACF0FD90002FEAF0A3EBF0A3ECF04D
:10065000A3EDF090002FE0C0E0A3E0C0E0A3E0C075
:10066000E0A3E0C0E074B5C0E07400C0E07480C0F6
:10067000E07401C0E07400C0E0E4C0E01211AFE536
:100680008124F6F58190001B7401F0D200900001E6
:1006900075F0000203DDAA82AB83ACF0FD9000335D
:1006A000EAF0A3EBF0A3ECF0A3EDF0900033E0C090
:1006B000E0A3E0C0E0A3E0C0E0A3E0C0E074C1C0FC
:1006C000E07400C0E07480C0E07401C0E07400C059
:1006D000E0E4C0E01211AFE58124F6F58190001B43
:1006E0007402F0D20090000175F0000203DDAA82CE
:1006F000AB83ACF0FD900037EAF0A3EBF0A3ECF095
:10070000A3EDF0900037E0C0E0A3E0C0E0A3E0C0BC
:10071000E0A3E0C0E074CCC0E07400C0E07480C02E
:10072000E07401C0E07400C0E0E4C0E01211AFE585
:100730008124F6F58190001B7401F0D20090000135
:1007400075F0001203DD90001B7402F0D2009000DF
:10075000DA75F0800203DDAA83E58290003FF0A302
:10076000EAF090003FE0FAA3E0FB8A828B8312124A
:1007700013AA82AB83ACF0FDC002C003C004C00565
:1007800090000075F0807447120F81AA82AB83AC91
:10079000F0FDE58124FCF58190003BE0FEA3E0FF45
:1007A0008E828F83C002C003C004C005121213AE34
:1007B00082AF83A8F0F9C006C007C000C001900056
:1007C0000075F0807443120F81AE82AF83A8F0F9F8
:1007D000E58124FCF581D005D004D003D002C00609
:1007E000C007C000C0018A828B838CF0ED121024F8
:1007F000AA82AB83ACF0FDE58124FCF58190003D3D
:10080000E0FEA3E0FF8E828F83C002C003C004C05D
:1008100005121213AE82AF83A8F0F9D005D004D030
:1008200003D002C006C007C000C0018A828B838C3F
:10083000F0ED121024AA82AB83ACF0FDE58124FC1C
:10084000F581C002C003C004C00590F4FC75F0320D
:100850007434120F81AA82AB83ACF0FDE58124FCD5
:10086000F5818A828B838CF0ED22AA82AB83ACF077
:10087000FD900041EAF0A3EBF0A3ECF0A3EDF090C3
:100880000041E0C0E0A3E0C0E0A3E0C0E0A3E0C01E
:10089000E090000075F080743F121220AA82AB83B2
:1008A000ACF0FDE58124FCF5818A828B838CF0ED30
:1008B00022AA82AB83ACF0FD900045EAF0A3EBF0F6
:1008C000A3ECF0A3EDF0900045E0C0E0A3E0C0E0B1
:1008D000A3E0C0E0A3E0C0E09051EC75F0B8743F35
:1008E000120F81AA82AB83ACF0FDE58124FCF58177
:1008F000E4C0E074A0C0E0748CC0E07445C0E08A3D
:10090000828B838CF0ED121220AA82AB83ACF0FDB7
:10091000E58124FCF581C002C003C004C005906BD2
:100920002875F06E744E120F81AA82AB83ACF0FD75
:10093000E58124FCF5818A828B838CF0ED22AA82EA
:10094000AB83ACF0FD900049EAF0A3EBF0A3ECF030
:10095000A3EDF0900049E0FAA3E0FBA3E0FCA3E0E4
:10096000FDC002C003C004C005C002C003C004C073
:100970000590999A75F0997440121208AE82AF836F
:10098000A8F0F9E58124FCF5817471C0E0743DC0E4
:10099000E074C5C0E07442C0E08E828F8388F0E9C5
:1009A000121220AE82AF83A8F0F9E58124FCF58114
:1009B000C006C007C000C00190000075F07A744402
:1009C000120F81AE82AF83A8F0F9E58124FCF58196
:1009D000E4C0E07424C0E07474C0E07449C0E08EE8
:1009E000828F8388F0E9121220AE82AF83A8F0F9DB
:1009F000E58124FCF581D005D004D003D002C006E7
:100A0000C007C000C0018A828B838CF0ED121220D7
:100A1000AA82AB83ACF0FDE58124FCF581E4C0E063
:100A2000C0E0747AC0E07444C0E08A828B838CF0AA
:100A3000ED121220AA82AB83ACF0FDE58124FCF517
:100A4000818A828B838CF0ED22AA83E58290004D0F
:100A5000F0A3EAF090004DE0FAA3E0FB20B1109083
:100A60000032C002C0031202E9D003D00280058A1E
:100A7000828B832220B13A30B1FDEA4BB40100E40D
:100A800033FC7D00C002C003C004C00574EBC0E0AD
:100A90007400C0E07480C0E01210C2E58124FBF550
:100AA00081D003D002EA4B70049000012290000034
:100AB000228A828B832290004FE4F0A3F0900051B1
:100AC000E4F0A3F01202101202191203AB9000110D
:100AD0007401F07582021201C31201A990004FE067
:100AE000FAA3E0FB8A828B83120A49AA82AB839025
:100AF000004FEAF0A3EBF0758200C002C0031202BF
:100B00004F75820E12024FAC82AD83AEF0FFC0046F
:100B1000C005C006C00712093E8582108583118575
:100B2000F012F513D007D006D005D004D003D002C0
:100B3000758A00758C00C28D900000E4F02081FD64
:100B40003081FDD28C30810E108D0280F890000033
:100B5000E02401F080EF20810E108D0280F89000DB
:100B600000E02401F080EFC004C005C006C007C249
:100B70008C900000E0F8790090003BE58CF0A3E455
:100B8000F090003DE58AF0A3E4F088828983C002FA
:100B9000C003C006C007120757A882A983ACF0FDA6
:100BA000D007D006888289838CF0EDC004C005C0D0
:100BB00006C007C000C00112086A8582148583152B
:100BC00085F016F517D001D000D007D006D005D09B
:100BD00004888289838CF0EDC004C005C006C0077C
:100BE0001208B185821885831985F01AF51BD00784
:100BF000D006D005D004D003D002E4BA0104BB0073
:100C00000104F51CD007D006D005D004E51C6063B4
:100C1000C002C003C004C005C006C007748BC0E09A
:100C2000746CC0E07453C0E07440C0E08C828D836B
:100C30008EF0EF120F51A882E58124FCF581D007D8
:100C4000D006D005D004D003D002E86026851082FB
:100C50008511838512F0E513C002C003C004C005EE
:100C6000C006C0071206EED007D006D005D004D0CB
:100C700003D002EA4B6003020D93C002C003C0041C
:100C8000C005C006C007E4C0E0C0E07448C0E0741E
:100C900043C0E08514828515838516F0E517120F91
:100CA00021A882E58124FCF581D007D006D005D0AB
:100CB00004D003D002E86047C002C003C004C005EE
:100CC000C006C007C000E4C0E07450C0E074C3C0F8
:100CD000E07448C0E08514828515838516F0E51719
:100CE000120F51A982E58124FCF581D000D007D0F4
:100CF00006D005D004D003D002E96003020D939022
:100D00000051E4F0A3F0C002C003C000E4C0E074EE
:100D100050C0E074C3C0E07448C0E08514828515FB
:100D2000838516F0E517120F51A982E58124FCF5A1
:100D300081D000D003D002E9701B90001B7401F039
:100D4000D2009000F775F080C002C0031203DDD01E
:100D500003D002801CE8701990001B7401F0D200CF
:100D600090010775F080C002C0031203DDD003D0EC
:100D70000290001B7402F0D2009000DA75F080C07F
:100D800002C0031203DD90007D1202E9D003D002FD
:100D9000020E10E51C6066C002C003748BC0E074D4
:100DA0006CC0E07453C0E07440C0E08C828D838ED0
:100DB000F0EF120F51AC82E58124FCF581D003D015
:100DC00002EC7039900051E4F0A3F090001B740124
:100DD000F0D20090011775F080C002C0031203DD4D
:100DE00090001B7402F0D2009000DA75F0801203BC
:100DF000DD9000FA1202E9D003D002801390005176
:100E0000E0FCA3E0FD90005174012CF0E43DA3F060
:100E1000900051E0FCA3E0FDC3EC940AED648094E3
:100E2000805003020ADC9000C8C002C0031202E92D
:100E3000D003D002E51C6025C002C003C010C01161
:100E4000C012C0137427C0E07401C0E07480C0E019
:100E50001210C2E58124F9F581D003D002C002C08E
:100E600003E4C0E0C0E0747AC0E07444C0E08514DC
:100E7000828515838516F0E517121220AC82AD83AA
:100E8000AEF0FFE58124FCF581C004C005C006C0BA
:100E900007C004C005C006C0077437C0E07401C0B5
:100EA000E07480C0E01210C2E58124F9F581C01819
:100EB000C019C01AC01B7446C0E07401C0E0748041
:100EC000C0E01210C2E58124F9F581D007D006D028
:100ED00005D004D003D002EA4B6003020ADC8C8206
:100EE0008D838EF0EF12063E851882851983851A50
:100EF000F0E51B120696020ADC20F71430F614887F
:100F000083A88220F507E6A88375830022E280F794
:100F1000E49322E022E4AC83AB82FAF9748E0213EC
:100F200048FFA8811818121370D2D133E640073059
:100F3000E70B7582012220E70675820022C2D112DA
:100F40001352E97003F5822230D101B3E433F58204
:100F500022FFA8811818121370D2D133E64007304F
:100F6000E70B7582002220E70675820122C2D112AA
:100F70001352E97003F5822220D101B3E433F582E4
:100F80002212141DBC00030213BCEF60FA30D5021C
:100F9000B2D1E583B4FF030213D2E582B4FF0302AA
:100FA00013D2258340072482400B0213BC248314F0
:100FB00050030213D2F582EA8DF0A4A8F0EA8EF075
:100FC000A428F8E435F0F9EB8DF0A428E935F0F920
:100FD000E433CA8FF0A429F9EA35F0FAEBF88EF081
:100FE000A429F9EA35F0FAE433FBEC8DF0A429F9F1
:100FF000EA35F0FAE43BFBE88FF0A42AFAEB35F08F
:10100000FBE433CCFD8EF0A42AFAEB35F0FBE43C94
:10101000FCED8FF0A42BFBEC35F0FC20E703121362
:10102000EA02139B12141D7900E583B58202800D3C
:10103000500312144BE583C39582121465E5D0C4A6
:1010400065D020E117EA2DFAEB3EFBEC3FFC50099E
:101050007401121465EC4480FC02139BC3EA9DFAF0
:10106000EB9EFBEC9FFC500FC3E499F9E49AFAE481
:101070009BFBE49CFCB2D11213EA02139BE5829025
:101080000053F0900053E0F582022176AAF0AB8382
:10109000E582900055F0A3EBF0A3EAF0900055E054
:1010A000FAA3E0FBA3E0FC900054E0FD900076EA98
:1010B000F0A3EBF0A3ECF0900079EDF090107D023E
:1010C00019B4C008858108E50824FBFAE50824FB6B
:1010D000F8900076E6F008A3E6F008A3E6F09000AA
:1010E00079EAF090107D1219B4D00822109802808D
:1010F000FBAA998A82C002122176D0028A8222201B
:10110000F71030F6118883A88220F507F6A88375BA
:10111000830022F280F7F022E58290005CF09000DC
:1011200059E0FAA3E0FBA3E0FC90005CE08A828B2C
:10113000838CF01210FF90005974012AF0E43BA355
:10114000F0A3ECF022AAF0AB83E582900061F0A35B
:10115000EBF0A3EAF0900061E0FAA3E0FBA3E0FC6F
:10116000900059EAF0A3EBF0A3ECF090005DE0FAF8
:10117000A3E0FBA3E0FC900060E0FD900076EAF0C5
:10118000A3EBF0A3ECF0900079EDF0901118121998
:10119000B4AA82AB83900059E0FCA3E0FDA3E0FE7B
:1011A0008C828D838EF0E41210FF8A828B8322C0A2
:1011B00008858108E50824F8FAE50824FBF8900082
:1011C00059E6F008A3E6F008A3E6F0E50824F8F8ED
:1011D000900076E6F008A3E6F008A3E6F090007928
:1011E000EAF09011181219B4AA82AB83900059E06A
:1011F000FCA3E0FDA3E0FE8C828D838EF0E4121050
:10120000FF8A828B83D00822A8811818C6B2E7C64D
:10121000021024AC83AB827A007900748E02219D87
:1012200012141D30D502B2D1BF0009BC0003021355
:10123000DF0213D2BC00030213BCE583B4FF0BE54D
:1012400082B4FF030213DF0213BCE582B4FF030282
:1012500013D2C395835007247F400B0213BC248014
:101260001450030213D2C0E0E4CCCBCAF98D228E15
:10127000238F24EF54F0C4F5257583068525F0EB04
:1012800084F582E9C4F9EAC4FAEBC4FBEC540FC458
:101290007803D6FC18EBD6FB18EAD6FA8582F0ED77
:1012A000A4A8F0FD8582F0EEA428FEE435F0F885D0
:1012B00082F0EFA428FFE435F0F8E99DF9EA9EFA00
:1012C000EB9FFBEC98FCAD22AE23AF2430E710156A
:1012D00082E92DF9EA3EFAEB3FFBE43CFC80EDC0ED
:1012E00082D58398C3E933F9EA33FAEB33FBEC3365
:1012F000FCC3E99DEA9EEB9FEC9400B3E413F9D0A4
:1013000002D0E0C44AFAD003D0E0C44BFBD004D0F2
:10131000E0F5F0540FC44CFCD082158230F40FD3AA
:10132000EC13FCEB13FBEA13FAE913F90582E9303D
:10133000E70A74012AFAE43BFBE43CFC0213B3FC29
:10134000ABF0AA83A982749EC2D1F5821213EA027D
:10135000139B7901AA82E68F82B5821318E6B5F055
:101360000E18E6B5830918E68A82B5820279002252
:10137000B4800FE5F0700AE5837006E58270027FA5
:1013800000EFB6801518B6001018B6000B18B6009E
:101390000608080876002208080822B98003EA1324
:1013A000B34010EA2401FAE43BFBE43CFC50047C2B
:1013B000800582BC000EBB000BBA0008E4F5F0F516
:1013C00083F58222A2D1E582138CF092F78B838A77
:1013D0008222E4F583F58275F080F4A2D11322E431
:1013E000F583F58275F0C0747F227804EC7011E506
:1013F0008224F8500AF582E4C9CACBFCD8EF22EC6B
:101400007820058220E713D5820122C3E933F9EA67
:1014100033FAEB33FBEC33FCD8EA158222AA82AB19
:1014200083A2F73392D16002D2F7F582ACF0E58166
:1014300024F9F8E6FD08E6FE0886F008E6A2F73390
:1014400092D56002D2F7F583AFF022E582C583F52D
:1014500082A2D133A2D592D11392D5ECCFFCEBCEA0
:10146000FBEACDFA226040F82582500274FFF58233
:10147000E824F8501ECCCBCAF9E4CC24F85014CBA5
:10148000CAF9E4CB24F8500BCAF9E4CA24F8500393
:1014900079002224086010F8C3EC13FCEB13FBEA7C
:1014A00013FAE913F9D8F122E582900072F0900066
:1014B00072E0FA74C8C0E07414C0E0900064E0C048
:1014C000E0A3E0C0E08A822290006BE02401F0A358
:1014D000E03400F022E582900073F0900073E0FAAF
:1014E00074302AFA24C6500A74072AFA30010343DA
:1014F00002208A820214A8E582900074F0900074A1
:10150000E0FAC4540FF582C0021214D5D00253027F
:101510000F8A820214D5900066E0FAA3E0FBA3E0F4
:10152000FCA3E0FD90006AE0FE9000717420F0EEF4
:101530002EFEED2354014206EA2AFAEB33FBEC338C
:10154000FCED33FD90006DE0FFC3EE9F4007EEC35E
:101550009FFE430201900071E014900071F0900032
:1015600071E0FF70CA900066EAF0A3EBF0A3ECF024
:10157000A3EDF090006AEEF0227832E624D075F008
:101580000AA4FA7833E624D02AFA900075F078316C
:101590008603BB2D07900075C3E49AF090006D742C
:1015A00001F0900075E0FAC3E464808AF063F08093
:1015B00095F0503C9000717403F0900071E0FBBB1B
:1015C0000A00502790006DE02401F0EB142426F867
:1015D000EB2426F98704A604772E1A900075EAF00A
:1015E000EA6008900071EB04F080CF900075EAF09B
:1015F000900075E0FA30E712782786037828A60372
:101600007827762E900075EA04F090006FE0FA607B
:101610000E0A90006DE0FB90006DEA2BF0800A301E
:101620000C0790006DE02401F078268602E4BA2DC4
:101630000104FA700620070330080790006DE024CB
:1016400001F03005030216F4300653EA6008758293
:101650002D1214A8801430070875822B1214A8804C
:10166000093008067582201214A878278603BB2E3D
:101670000F7582301214A890006EE01490006EF086
:1016800090006EE0FB1490006EF090006DE0FCC3E3
:101690009B40030217447582301214A880E2900028
:1016A0006EE0FB1490006EF090006DE0FCC39B5068
:1016B000087582201214A880E578268603BB2D08C1
:1016C00075822D1214A8801430070875822B12140D
:1016D000A880093008067582201214A8782786038E
:1016E000BB2E617582301214A890006EE014900039
:1016F0006EF08050EA601175822D1214A890006E71
:10170000E01490006EF0802630071175822B1214C1
:10171000A890006EE01490006EF0801230080F75F3
:1017200082201214A890006EE01490006EF07827CA
:101730008602BA2E0F7582301214A890006EE01443
:1017400090006EF09000717401F0C20E900071E094
:101750002426F88602BA4503021842BA2E419000A8
:1017600075E0FAC3E464808AF063F08095F050126B
:10177000758230C0021214A8D0021A900075EAF0E7
:1017800080E1900075EAF0D20E90006FE0FA704DA3
:10179000200C0302184275822E1214A8021842303F
:1017A0000E3B900075E0FAEA30E72D90006FE0FB09
:1017B000C3E464808BF063F08095F0501375823041
:1017C000C0021214A8D00290006FE01490006FF0D5
:1017D0000A900075EAF080CF900075EAF0300E12A2
:1017E00090006FE0FAC3E464808AF063F08095F0C3
:1017F0005028900071E02426F886028A821214A8EC
:10180000300E17900071E02426F88602BA2E02806E
:101810000990006FE01490006FF090006EE014905B
:10182000006EF090006FE0FAC3E464808AF063F029
:101830008095F04003200E0A900071E02401F00230
:10184000174C90006FE0FAC3E464808AF063F08084
:1018500095F050117582301214A890006FE014902A
:10186000006FF080DD30051590006EE0FA149000F6
:101870006EF0EA60087582201214A880EB229000B6
:101880006FE0FA7003300C1174072AFA90006EE0D2
:10189000FB90006EC39AF0800B90006EE0FA24FA81
:1018A00090006EF0900071E4F078268602BA2B1753
:1018B0002007147826762020080D9000717401F01E
:1018C00090006EE02401F020052390006EE0FAC342
:1018D000E464808AF063F08095F0501175822012E4
:1018E00014A890006EE01490006EF080DDC20E909F
:1018F0000071E02426F88602BA000302198DBA4569
:101900002A300102766590006FE0FAC3E464808AB1
:10191000F063F08095F050117582301214A8900099
:101920006FE01490006FF080DDD20E900071E0FA4D
:10193000BA0200E433FA7018EA701290006FE0FA0D
:10194000C3E464808AF063F08095F04003300E2297
:10195000900071E02426F886028A821214A8900072
:1019600071E0FA24FD501C90006FE01490006FF0BD
:101970008011900071E0FABA0209300C0675822ECF
:101980001214A8900071E02401F00218EF30052332
:1019900090006EE0FAC3E464808AF063F08095F012
:1019A00050117582201214A890006EE01490006E01
:1019B000F080DD22AA83E58290007AF0A3EAF0901D
:1019C000007AE0FAA3E0FB900064EAF0A3EBF09069
:1019D000006BE4F0A3F0900076E0FAA3E0FBA3E054
:1019E000FC8A828B838CF0120EF9FD9000767401D4
:1019F0002AF0E43BA3F0A3ECF0ED700302216ABDF2
:101A000025028003022162C205C206C207C208C2C3
:101A100009C20AC20BC20CC202C203C20490006D0A
:101A2000E4F090006EF090006F74FFF0900076E0AC
:101A3000FAA3E0FBA3E0FC8A828B838CF0120EF900
:101A4000FEA3AA82AB83900076EAF0A3EBF0A3ECAE
:101A5000F090007CEEF0BE25088E821214A80219C8
:101A6000D68E07BF300040468E07EF24C6403F9019
:101A7000006FE0FFBFFF27C002C003C00490006EEC
:101A8000E075F00AA4FAEE24D090006E2AF09000DF
:101A90006EE0D004D003D002709DD2068099EF751D
:101AA000F00AA4FFEE24D090006F2FF08089900000
:101AB0007CE0FEBE2E1590006FE0FFBFFF028003AA
:101AC000021A3790006FE4F0021A378E07BF6100E8
:101AD00040128E07EF2485400B90007C74DF5EF08F
:101AE000D2018002C20190007CE0FEBE200280751F
:101AF000BE2303021B74BE2A03021B79BE2B028085
:101B00005FBE2D028055BE4202805FBE4303021BB2
:101B1000F7BE4403021DA8BE4503021DCEBE460308
:101B2000021DCABE4703021DD2BE4903021DA8BE44
:101B30004C02803BBE4E03021DD6BE4F03021DB2B7
:101B4000BE5003021D1BBE5303021C2EBE550302D2
:101B50001DBABE5803021DC2021E15D205021A3755
:101B6000D207021A37D208021A37D20A021A37D21B
:101B70000B021A37D20C021A3790006FE0FFBFFF3A
:101B80003B300A13900079E0FF14F8900079F09050
:101B9000006EE6F0021A37C002C003C0049000795C
:101BA000E024FEF8900079F086070886021890007D
:101BB0006EEFF0D004D003D002021A37300A13902F
:101BC0000079E0FF14F8900079F090006FE6F002E1
:101BD0001A37C002C003C004900079E024FEF890D8
:101BE0000079F086070886021890006FEFF0D004A5
:101BF000D003D002021A37300A12900079E0FA14AA
:101C0000F8900079F090007CE6F08016900079E082
:101C100024FEF8900079F086020886031890007C74
:101C2000EAF090007CE0F5821214A8021E1A9000DF
:101C300079E024FDF8900079F08602088603088692
:101C4000041818900066EAF0A3EBF0A3ECF08A8287
:101C50008B838CF01222E0AA82900070EAF0900050
:101C60006FE0FBBBFF0590006FEAF02005269000B7
:101C70006EE0FBC3EA9B501C90006EEBC39AF090A1
:101C8000006EE0FA1490006EF0EA6008758220128F
:101C900014A880EB900066E0FAA3E0FBA3E0FC8AC6
:101CA000828B838CF0120EF9FA603990006FE0FBA2
:101CB0001490006FF0C3E464808BF063F08095F0C3
:101CC00050228A821214A8900066E0FAA3E0FBA3D7
:101CD000E0FC0ABA00010B900066EAF0A3EBF0A367
:101CE000ECF080B0200503021E1A900070E0FA901C
:101CF000006EE0FBC3EA9B4003021E1A90006EEBED
:101D0000C39AF090006EE0FA1490006EF0EA70034F
:101D1000021E1A7582201214A880E8900079E0242F
:101D2000FDF8900079F086020886030886041818EA
:101D3000900066EAF0A3EBF0A3ECF0900068E0FA04
:101D400030E70890007C7443F0801FEA546060081C
:101D500090007C7450F08012EA30E60890007C74A9
:101D600049F0800690007C7458F090007CE0FAF511
:101D700082C0021214A875823A1214A87582301219
:101D800014A87582781214A8D002BA4902800EBA3B
:101D900050028009900067E0F5821214F790006607
:101DA000E0F5821214F78072D20990006D740AF087
:101DB000806890006D7408F0806090006D740AF087
:101DC000805890006D7410F08050D202804CD20385
:101DD0008048D2048044900079E024FDF890007996
:101DE000F0861D08861E08861F1818900066E51DDF
:101DF000F0A3E51EF0A3E51FF090006BE0FFA3E069
:101E0000FA851D82851E83851FF0EF1210FFA3EA5D
:101E10001210FF80058E821214A8200209200306EA
:101E2000200403021EBF900079E024FCF8900079A2
:101E3000F08602088603088604088606181818909B
:101E40000066EAF0A3EBF0A3ECF0A3EEF0900066DE
:101E5000E0A3E0A3E0A3E08A828B838CF0EE122162
:101E6000C190006FE0FABAFF0690006F7406F03080
:101E7000043E900069E0FA53027F90006AEAF0E0C5
:101E8000EA2A90006AF0900068E0FA30E70D9000CE
:101E90006AE0FA43020190006AEAF090006AE0FA10
:101EA0002468400A90006AE0FABA67005002D20340
:101EB00030030612187E0219D61215790219D6902F
:101EC000006DE0FA70030219D690007D742BF0309B
:101ED0000A47900079E014F8900079F0E6FA33951B
:101EE000E0FBFCFE900066EAF0A3EBF0A3ECF0A3AD
:101EF000EEF0300903021F8B900066E0FAA3E0A326
:101F0000E0A3E07B007C007E00900066EAF0A3EB9B
:101F1000F0A3ECF0A3EEF08072300B29900079E092
:101F200024FCF8900079F0860208860308860408ED
:101F30008606181818900066EAF0A3EBF0A3ECF000
:101F4000A3EEF08046900079E024FEF8900079F04E
:101F5000860208860318EB3395E0FCFE900066EAE3
:101F6000F0A3EBF0A3ECF0A3EEF020091E900066C6
:101F7000E0FAA3E0FBA3E0A3E07C007E0090006613
:101F8000EAF0A3EBF0A3ECF0A3EEF0300C3E9000EF
:101F900066E0FAA3E0FBA3E0FCA3E0FEEA4B4C4EB4
:101FA000602A90006DE0FABA08087582301214A811
:101FB000801ABA10177582301214A8300108758281
:101FC000781214A880067582581214A8300930902F
:101FD0000066E0FAA3E0FBA3E0FCA3E0FE30E71D0F
:101FE000C3E49AFAE49BFBE49CFCE49EFE9000664A
:101FF000EAF0A3EBF0A3ECF0A3EEF08002C20990AC
:102000000070E4F0D20D782B90006AE4F0C000126A
:102010001516D000200D1290006AE0C4FAE6FB4AC3
:10202000F61890007DE8F0800690006AE0FAF690DD
:102030000070E02401F0B20D900066E0FAA3E0FB2E
:10204000A3E0FCA3E0FEEA4B4C4E70BC90007DE8A0
:10205000F090006EE0FA700690006E7401F02006B9
:1020600024200521900070E0FA0A90006EE0FBC386
:10207000EA9B50117582201214A890006EE0149013
:10208000006EF080DF30091175822D1214A89000C7
:102090006EE01490006EF0802D900070E0FA6026E3
:1020A00030071175822B1214A890006EE014900076
:1020B0006EF0801230080F7582201214A890006E06
:1020C000E01490006EF020052390006EE0FA14906A
:1020D000006EF0900070E0FBC39A502C3006047A3A
:1020E0003080027A208A821214A880DD90006EE08F
:1020F000FA900070E0FBC39A500990006EEAC39B0F
:10210000F0800590006EE4F090007DE0F8900070A3
:10211000E0FA14900070F0EA602AB20D200D0C086D
:10212000E6C4540FFA90006AF0800A860253020F48
:1021300090006AEAF090006AE0F582C0001214D5BF
:10214000D00080C92005030219D690006EE0FA1471
:1021500090006EF0EA70030219D67582201214A85E
:1021600080E88D821214A80219D690006BE0FAA3C1
:10217000E08A82F58322E58290007EF090007EE086
:10218000FABA0A0810990280FB75990D109902801D
:10219000FB8A9922FCABF0AA83A982749EF582C2C5
:1021A000D1EC30E716D2D1E9F42401F9EAF4340095
:1021B000FAEBF43400FBECF43400FC1213EA0213E3
:1021C0009BC0E0F84582458345F07009F5F0FBFCC3
:1021D000FDFE02228FE823A2F792E0F8A982AA83EB
:1021E000D2F7ABF07C007E07C3749798404074FF31
:1021F0002EFE740A89F0A4F985F082740A8AF0A48C
:10220000FA85F083740A8BF0A4FB740529F9EA358A
:1022100082FAEB3583FB740035F0FCC3EC13FCEB66
:1022200013FBEA13FAE913F908EC70EF80BAE8C37C
:10223000947FF88B838EF0E4FBFCFDFEFF08C3E97E
:1022400033F9EA33FAE58333F583EB3BD4FBEC3C1B
:10225000D4FCED3DD4FDEE3ED4FEEF3FD4FF602D27
:1022600005F074052BD4FBE43CD4FCE43DD4FDE440
:102270003ED4FEE43FD4FF758204C3EF13FFEE1398
:10228000FEED13FDEC13FCEB13FBD582EDD8AF781C
:1022900026D0E020E704762B8002762D087906E729
:1022A000C4540F4430F608B90603762E08E7540FDD
:1022B0004430F60819B902E7764508E5F020E7044E
:1022C000762B8004762DF4040875F00A844430F6E9
:1022D00008E5F04430F608E4F690002675F0402258
:1022E000AAF0AB83E58290007FF0A3EBF0A3EAF0C5
:1022F0007A007B0090007FE0FCA3E0FDA3E0FE8C71
:10230000828D838EF0120EF9FFA3AC82AD83900014
:102310007FECF0A3EDF0A3EEF0EF60070ABA00DF68
:102320000B80DC90007FECF0A3EDF0A3EEF08A824E
:102330008B8322000000000000000000000000006D
:00000001FF
